{
  "contractName": "Ownable",
  "abi": [
    {
      "constant": true,
      "inputs": [
        {
          "name": "",
          "type": "address"
        }
      ],
      "name": "owner",
      "outputs": [
        {
          "name": "",
          "type": "bool"
        }
      ],
      "payable": false,
      "stateMutability": "view",
      "type": "function"
    },
    {
      "inputs": [],
      "payable": false,
      "stateMutability": "nonpayable",
      "type": "constructor"
    },
    {
      "anonymous": false,
      "inputs": [
        {
          "indexed": true,
          "name": "previousOwner",
          "type": "address"
        },
        {
          "indexed": true,
          "name": "newOwner",
          "type": "address"
        }
      ],
      "name": "OwnershipTransferred",
      "type": "event"
    },
    {
      "anonymous": false,
      "inputs": [
        {
          "indexed": true,
          "name": "allowedAddress",
          "type": "address"
        }
      ],
      "name": "AllowOwnership",
      "type": "event"
    },
    {
      "anonymous": false,
      "inputs": [
        {
          "indexed": true,
          "name": "allowedAddress",
          "type": "address"
        }
      ],
      "name": "RevokeOwnership",
      "type": "event"
    },
    {
      "constant": false,
      "inputs": [
        {
          "name": "newOwner",
          "type": "address"
        }
      ],
      "name": "transferOwnership",
      "outputs": [
        {
          "name": "success",
          "type": "bool"
        }
      ],
      "payable": false,
      "stateMutability": "nonpayable",
      "type": "function"
    },
    {
      "constant": false,
      "inputs": [
        {
          "name": "allowedAddress",
          "type": "address"
        }
      ],
      "name": "allowOwnership",
      "outputs": [
        {
          "name": "success",
          "type": "bool"
        }
      ],
      "payable": false,
      "stateMutability": "nonpayable",
      "type": "function"
    },
    {
      "constant": false,
      "inputs": [
        {
          "name": "allowedAddress",
          "type": "address"
        }
      ],
      "name": "removeOwnership",
      "outputs": [
        {
          "name": "success",
          "type": "bool"
        }
      ],
      "payable": false,
      "stateMutability": "nonpayable",
      "type": "function"
    }
  ],
  "bytecode": "0x608060405234801561001057600080fd5b50336000908152602081905260409020805460ff1916600117905561045a8061003a6000396000f3006080604052600436106100615763ffffffff7c01000000000000000000000000000000000000000000000000000000006000350416634bbc142c8114610066578063666a34271461009b578063666e1b39146100bc578063f2fde38b146100dd575b600080fd5b34801561007257600080fd5b50610087600160a060020a03600435166100fe565b604080519115158252519081900360200190f35b3480156100a757600080fd5b50610087600160a060020a03600435166101de565b3480156100c857600080fd5b50610087600160a060020a03600435166102bb565b3480156100e957600080fd5b50610087600160a060020a03600435166102d0565b3360009081526020819052604081205460ff16151561018d576040805160e560020a62461bcd02815260206004820152603960248201527f4572726f723a205472616e73616374696f6e2073656e646572206973206e6f7460448201527f20616c6c6f7765642062792074686520636f6e74726163742e00000000000000606482015290519081900360840190fd5b600160a060020a038216600081815260208190526040808220805460ff19166001179055517f1c965cca064792c08083e8746b9062155a2f163d9f9ddab08196d5b2e3a818c59190a2506001919050565b3360009081526020819052604081205460ff16151561026d576040805160e560020a62461bcd02815260206004820152603960248201527f4572726f723a205472616e73616374696f6e2073656e646572206973206e6f7460448201527f20616c6c6f7765642062792074686520636f6e74726163742e00000000000000606482015290519081900360840190fd5b600160a060020a038216600081815260208190526040808220805460ff19169055517f2d760b10f59f9d65a092cfebe73f70fd0a4e19e59791ffd61ee3057a0010ad989190a2506001919050565b60006020819052908152604090205460ff1681565b3360009081526020819052604081205460ff16151561035f576040805160e560020a62461bcd02815260206004820152603960248201527f4572726f723a205472616e73616374696f6e2073656e646572206973206e6f7460448201527f20616c6c6f7765642062792074686520636f6e74726163742e00000000000000606482015290519081900360840190fd5b600160a060020a03821615156103bf576040805160e560020a62461bcd02815260206004820152601f60248201527f4572726f723a206e65774f776e65722063616e6e6f74206265206e756c6c2100604482015290519081900360640190fd5b604051600160a060020a0383169033907f8be0079c531659141344cd1fd0a4f28419497f9722a3daafe3b4186f6b6457e090600090a350600160a060020a03166000908152602081905260408082208054600160ff1991821681179092553384529190922080549091169055905600a165627a7a72305820008982c7122c078b3561e82dc528b2b9c23f88189abb0e2866f411c5d2edc7950029",
  "source": "pragma solidity 0.4.24;\n\n\n\n\n/**\n\nCOPYRIGHT 2018 Token, Inc.\n\nTHE SOFTWARE IS PROVIDED \"AS IS\", WITHOUT WARRANTY OF ANY KIND, EXPRESS OR IMPLIED,\nINCLUDING BUT NOT LIMITED TO THE WARRANTIES OF MERCHANTABILITY, FITNESS FOR A\nPARTICULAR PURPOSE AND NONINFRINGEMENT. IN NO EVENT SHALL THE AUTHORS OR\nCOPYRIGHT HOLDERS BE LIABLE FOR ANY CLAIM, DAMAGES OR OTHER LIABILITY, WHETHER\nIN AN ACTION OF CONTRACT, TORT OR OTHERWISE, ARISING FROM, OUT OF OR IN CONNECTION\nWITH THE SOFTWARE OR THE USE OR OTHER DEALINGS IN THE SOFTWARE.\n\n\n@title Ownable\n@dev The Ownable contract has an owner address, and provides basic authorization control\nfunctions, this simplifies the implementation of \"user permissions\".\n\n\n */\ncontract Ownable {\n\n  mapping(address => bool) public owner;\n\n  event OwnershipTransferred(address indexed previousOwner, address indexed newOwner);\n  event AllowOwnership(address indexed allowedAddress);\n  event RevokeOwnership(address indexed allowedAddress);\n\n  /**\n   * @dev The Ownable constructor sets the original `owner` of the contract to the sender\n   * account.\n   */\n  constructor() public {\n    owner[msg.sender] = true;\n  }\n\n  /**\n   * @dev Throws if called by any account other than the owner.\n   */\n  modifier onlyOwner() {\n    require(owner[msg.sender], \"Error: Transaction sender is not allowed by the contract.\");\n    _;\n  }\n\n  /**\n   * @dev Allows the current owner to transfer control of the contract to a newOwner.\n   * @param newOwner The address to transfer ownership to.\n   * @return {\"success\" : \"Returns true when successfully transferred ownership\"}\n   */\n  function transferOwnership(address newOwner) public onlyOwner returns (bool success) {\n    require(newOwner != address(0), \"Error: newOwner cannot be null!\");\n    emit OwnershipTransferred(msg.sender, newOwner);\n    owner[newOwner] = true;\n    owner[msg.sender] = false;\n    return true;\n  }\n\n  /**\n   * @dev Allows interface contracts and accounts to access contract methods (e.g. Storage contract)\n   * @param allowedAddress The address of new owner\n   * @return {\"success\" : \"Returns true when successfully allowed ownership\"}\n   */\n  function allowOwnership(address allowedAddress) public onlyOwner returns (bool success) {\n    owner[allowedAddress] = true;\n    emit AllowOwnership(allowedAddress);\n    return true;\n  }\n\n  /**\n   * @dev Disallows interface contracts and accounts to access contract methods (e.g. Storage contract)\n   * @param allowedAddress The address to disallow ownership\n   * @return {\"success\" : \"Returns true when successfully allowed ownership\"}\n   */\n  function removeOwnership(address allowedAddress) public onlyOwner returns (bool success) {\n    owner[allowedAddress] = false;\n    emit RevokeOwnership(allowedAddress);\n    return true;\n  }\n\n}\n",
  "sourcePath": "/Users/ryan/Projects/TokenInc/tokeninc-smart-contracts/contracts/Ownable.sol",
  "compiler": {
    "name": "solc",
    "version": "0.4.24+commit.e67f0147.Emscripten.clang"
  },
  "schemaVersion": "2.0.1",
  "updatedAt": "2018-09-18T18:14:09.109Z"
}