{
  "contractName": "TokenIOAuthority",
  "abi": [
    {
      "constant": false,
      "inputs": [
        {
          "name": "allowedAddress",
          "type": "address"
        }
      ],
      "name": "allowOwnership",
      "outputs": [
        {
          "name": "success",
          "type": "bool"
        }
      ],
      "payable": false,
      "stateMutability": "nonpayable",
      "type": "function"
    },
    {
      "constant": false,
      "inputs": [
        {
          "name": "allowedAddress",
          "type": "address"
        }
      ],
      "name": "removeOwnership",
      "outputs": [
        {
          "name": "success",
          "type": "bool"
        }
      ],
      "payable": false,
      "stateMutability": "nonpayable",
      "type": "function"
    },
    {
      "constant": true,
      "inputs": [
        {
          "name": "",
          "type": "address"
        }
      ],
      "name": "owner",
      "outputs": [
        {
          "name": "",
          "type": "bool"
        }
      ],
      "payable": false,
      "stateMutability": "view",
      "type": "function"
    },
    {
      "constant": false,
      "inputs": [
        {
          "name": "newOwner",
          "type": "address"
        }
      ],
      "name": "transferOwnership",
      "outputs": [
        {
          "name": "success",
          "type": "bool"
        }
      ],
      "payable": false,
      "stateMutability": "nonpayable",
      "type": "function"
    },
    {
      "inputs": [
        {
          "name": "_storageContract",
          "type": "address"
        }
      ],
      "payable": false,
      "stateMutability": "nonpayable",
      "type": "constructor"
    },
    {
      "anonymous": false,
      "inputs": [
        {
          "indexed": true,
          "name": "previousOwner",
          "type": "address"
        },
        {
          "indexed": true,
          "name": "newOwner",
          "type": "address"
        }
      ],
      "name": "OwnershipTransferred",
      "type": "event"
    },
    {
      "anonymous": false,
      "inputs": [
        {
          "indexed": true,
          "name": "allowedAddress",
          "type": "address"
        }
      ],
      "name": "AllowOwnership",
      "type": "event"
    },
    {
      "anonymous": false,
      "inputs": [
        {
          "indexed": true,
          "name": "allowedAddress",
          "type": "address"
        }
      ],
      "name": "RevokeOwnership",
      "type": "event"
    },
    {
      "constant": false,
      "inputs": [
        {
          "name": "firmName",
          "type": "string"
        },
        {
          "name": "_authorized",
          "type": "bool"
        }
      ],
      "name": "setRegisteredFirm",
      "outputs": [
        {
          "name": "success",
          "type": "bool"
        }
      ],
      "payable": false,
      "stateMutability": "nonpayable",
      "type": "function"
    },
    {
      "constant": false,
      "inputs": [
        {
          "name": "firmName",
          "type": "string"
        },
        {
          "name": "authority",
          "type": "address"
        },
        {
          "name": "_authorized",
          "type": "bool"
        }
      ],
      "name": "setRegisteredAuthority",
      "outputs": [
        {
          "name": "success",
          "type": "bool"
        }
      ],
      "payable": false,
      "stateMutability": "nonpayable",
      "type": "function"
    },
    {
      "constant": true,
      "inputs": [
        {
          "name": "authority",
          "type": "address"
        }
      ],
      "name": "getFirmFromAuthority",
      "outputs": [
        {
          "name": "firm",
          "type": "string"
        }
      ],
      "payable": false,
      "stateMutability": "view",
      "type": "function"
    },
    {
      "constant": true,
      "inputs": [
        {
          "name": "firmName",
          "type": "string"
        }
      ],
      "name": "isRegisteredFirm",
      "outputs": [
        {
          "name": "status",
          "type": "bool"
        }
      ],
      "payable": false,
      "stateMutability": "view",
      "type": "function"
    },
    {
      "constant": true,
      "inputs": [
        {
          "name": "firmName",
          "type": "string"
        },
        {
          "name": "authority",
          "type": "address"
        }
      ],
      "name": "isRegisteredToFirm",
      "outputs": [
        {
          "name": "registered",
          "type": "bool"
        }
      ],
      "payable": false,
      "stateMutability": "view",
      "type": "function"
    },
    {
      "constant": true,
      "inputs": [
        {
          "name": "authority",
          "type": "address"
        }
      ],
      "name": "isRegisteredAuthority",
      "outputs": [
        {
          "name": "registered",
          "type": "bool"
        }
      ],
      "payable": false,
      "stateMutability": "view",
      "type": "function"
    },
    {
      "constant": false,
      "inputs": [
        {
          "name": "feeContract",
          "type": "address"
        }
      ],
      "name": "setMasterFeeContract",
      "outputs": [
        {
          "name": "success",
          "type": "bool"
        }
      ],
      "payable": false,
      "stateMutability": "nonpayable",
      "type": "function"
    }
  ],
  "bytecode": "0x608060405234801561001057600080fd5b50604051602080611d64833981016040908152905133600090815260208190529182208054600160ff19918216811783558054600160a060020a031916600160a060020a039094169390931783558154169091179055611cee90819061007690396000f3006080604052600436106100ae5763ffffffff7c0100000000000000000000000000000000000000000000000000000000600035041663339282b781146100b3578063339e2c45146100e857806341ade6b71461014c5780634bbc142c146101a9578063666a3427146101ca578063666e1b39146101eb578063acca2c241461020c578063ee5493b6146102a2578063f03529c3146102fb578063f2fde38b1461031c578063f3f969a01461033d575b600080fd5b3480156100bf57600080fd5b506100d4600160a060020a03600435166103a6565b604080519115158252519081900360200190f35b3480156100f457600080fd5b506040805160206004803580820135601f81018490048402850184019095528484526100d494369492936024939284019190819084018382808284375094975050509235600160a060020a031693506103bf92505050565b34801561015857600080fd5b506040805160206004803580820135601f81018490048402850184019095528484526100d49436949293602493928401919081908401838280828437509497505050509135151592506103da915050565b3480156101b557600080fd5b506100d4600160a060020a036004351661056c565b3480156101d657600080fd5b506100d4600160a060020a0360043516610628565b3480156101f757600080fd5b506100d4600160a060020a03600435166106e1565b34801561021857600080fd5b5061022d600160a060020a03600435166106f6565b6040805160208082528351818301528351919283929083019185019080838360005b8381101561026757818101518382015260200161024f565b50505050905090810190601f1680156102945780820380516001836020036101000a031916815260200191505b509250505060405180910390f35b3480156102ae57600080fd5b506040805160206004803580820135601f81018490048402850184019095528484526100d49436949293602493928401919081908401838280828437509497506107099650505050505050565b34801561030757600080fd5b506100d4600160a060020a036004351661071c565b34801561032857600080fd5b506100d4600160a060020a0360043516610842565b34801561034957600080fd5b506040805160206004803580820135601f81018490048402850184019095528484526100d494369492936024939284019190819084018382808284375094975050600160a060020a0385351695505050505060200135151561097c565b60006103b960018363ffffffff610aac16565b92915050565b60006103d36001848463ffffffff610c7216565b9392505050565b336000818152602081905260408120549091849160ff168061040957506104096001838363ffffffff610c7216565b15156104ab576040805160e560020a62461bcd02815260206004820152604660248201527f4572726f723a205472616e73616374696f6e2073656e64657220646f6573206e60448201527f6f742068617665207065726d697373696f6e20666f722074686973206f70657260648201527f6174696f6e210000000000000000000000000000000000000000000000000000608482015290519081900360a40190fd5b6104bd6001868663ffffffff610e2716565b151561055f576040805160e560020a62461bcd02815260206004820152605260248201527f4572726f723a204661696c656420746f207265676973746572206669726d207760448201527f6974682073746f7261676520636f6e74726163742120506c656173652063686560648201527f636b20796f757220617267756d656e74732e0000000000000000000000000000608482015290519081900360a40190fd5b600192505b505092915050565b3360009081526020819052604081205460ff1615156105d7576040805160e560020a62461bcd0281526020600482015260396024820152600080516020611ca38339815191526044820152600080516020611c63833981519152606482015290519081900360840190fd5b600160a060020a038216600081815260208190526040808220805460ff19166001179055517f1c965cca064792c08083e8746b9062155a2f163d9f9ddab08196d5b2e3a818c59190a2506001919050565b3360009081526020819052604081205460ff161515610693576040805160e560020a62461bcd0281526020600482015260396024820152600080516020611ca38339815191526044820152600080516020611c63833981519152606482015290519081900360840190fd5b600160a060020a038216600081815260208190526040808220805460ff19169055517f2d760b10f59f9d65a092cfebe73f70fd0a4e19e59791ffd61ee3057a0010ad989190a2506001919050565b60006020819052908152604090205460ff1681565b60606103b960018363ffffffff61106a16565b60006103b960018363ffffffff61122f16565b3360009081526020819052604081205460ff161515610787576040805160e560020a62461bcd0281526020600482015260396024820152600080516020611ca38339815191526044820152600080516020611c63833981519152606482015290519081900360840190fd5b61079860018363ffffffff6112ef16565b151561083a576040805160e560020a62461bcd02815260206004820152606060248201527f4572726f723a20556e61626c6520746f20736574206d6173746572206665652060448201527f636f6e74726163742e20506c6561736520656e737572652066656520636f6e7460648201527f72616374206861732074686520636f727265637420706172616d65746572732e608482015290519081900360a40190fd5b506001919050565b3360009081526020819052604081205460ff1615156108ad576040805160e560020a62461bcd0281526020600482015260396024820152600080516020611ca38339815191526044820152600080516020611c63833981519152606482015290519081900360840190fd5b600160a060020a038216151561090d576040805160e560020a62461bcd02815260206004820152601f60248201527f4572726f723a206e65774f776e65722063616e6e6f74206265206e756c6c2100604482015290519081900360640190fd5b604051600160a060020a0383169033907f8be0079c531659141344cd1fd0a4f28419497f9722a3daafe3b4186f6b6457e090600090a350600160a060020a03166000908152602081905260408082208054600160ff199182168117909255338452919092208054909116905590565b336000818152602081905260408120549091859160ff16806109ab57506109ab6001838363ffffffff610c7216565b1515610a4d576040805160e560020a62461bcd02815260206004820152604660248201527f4572726f723a205472616e73616374696f6e2073656e64657220646f6573206e60448201527f6f742068617665207065726d697373696f6e20666f722074686973206f70657260648201527f6174696f6e210000000000000000000000000000000000000000000000000000608482015290519081900360a40190fd5b610a60600187878763ffffffff6114e316565b1515610aa05760405160e560020a62461bcd0281526004018080602001828103825260b2815260200180611bb160b2913960c00191505060405180910390fd5b50600195945050505050565b600080610ac284610abd8686611a39565b61106a565b610acc8585611a39565b60405160200180807f726567697374657265642e617574686f7269747900000000000000000000000081525060140183805190602001908083835b60208310610b265780518252601f199092019160209182019101610b07565b6001836020036101000a03801982511681845116808217855250505050505090500182600160a060020a0316600160a060020a03166c01000000000000000000000000028152601401925050506040516020818303038152906040526040518082805190602001908083835b60208310610bb15780518252601f199092019160209182019101610b92565b51815160209384036101000a6000190180199092169116179052604080519290940182900382208a547f7ae1cfca000000000000000000000000000000000000000000000000000000008452600484018290529451909750600160a060020a039094169550637ae1cfca945060248083019491935090918290030181600087803b158015610c3e57600080fd5b505af1158015610c52573d6000803e3d6000fd5b505050506040513d6020811015610c6857600080fd5b5051949350505050565b60008083610c808685611a39565b60405160200180807f726567697374657265642e617574686f7269747900000000000000000000000081525060140183805190602001908083835b60208310610cda5780518252601f199092019160209182019101610cbb565b6001836020036101000a03801982511681845116808217855250505050505090500182600160a060020a0316600160a060020a03166c01000000000000000000000000028152601401925050506040516020818303038152906040526040518082805190602001908083835b60208310610d655780518252601f199092019160209182019101610d46565b51815160209384036101000a6000190180199092169116179052604080519290940182900382208b547f7ae1cfca000000000000000000000000000000000000000000000000000000008452600484018290529451909750600160a060020a039094169550637ae1cfca945060248083019491935090918290030181600087803b158015610df257600080fd5b505af1158015610e06573d6000803e3d6000fd5b505050506040513d6020811015610e1c57600080fd5b505195945050505050565b6000808360405160200180807f726567697374657265642e6669726d0000000000000000000000000000000000815250600f0182805190602001908083835b60208310610e855780518252601f199092019160209182019101610e66565b6001836020036101000a0380198251168184511680821785525050505050509050019150506040516020818303038152906040526040518082805190602001908083835b60208310610ee85780518252601f199092019160209182019101610ec9565b51815160209384036101000a6000190180199092169116179052604080519290940182900382208b547fabfdcced000000000000000000000000000000000000000000000000000000008452600484018290528a151560248501529451909750600160a060020a03909416955063abfdcced945060448083019491935090918290030181600087803b158015610f7d57600080fd5b505af1158015610f91573d6000803e3d6000fd5b505050506040513d6020811015610fa757600080fd5b5051151561105f576040805160e560020a62461bcd0281526020600482015260696024820152600080516020611c8383398151915260448201527f75652e20506c6561736520656e7375726520636f6e747261637420686173206160648201527f6c6c6f776564207065726d697373696f6e7320776974682073746f726167652060848201527f636f6e74726163742e000000000000000000000000000000000000000000000060a482015290519081900360c40190fd5b506001949350505050565b606060006110788484611a39565b60405160200180807f726567697374657265642e617574686f726974792e6669726d0000000000000081525060190182600160a060020a0316600160a060020a03166c010000000000000000000000000281526014019150506040516020818303038152906040526040518082805190602001908083835b6020831061110f5780518252601f1990920191602091820191016110f0565b5181516020939093036101000a60001901801990911692169190911790526040805191909301819003812089547f986e791a000000000000000000000000000000000000000000000000000000008352600483018290529351909650600160a060020a03909316945063986e791a9350602480820193600093509182900301818387803b15801561119f57600080fd5b505af11580156111b3573d6000803e3d6000fd5b505050506040513d6000823e601f3d908101601f1916820160405260208110156111dc57600080fd5b8101908080516401000000008111156111f457600080fd5b8201602081018481111561120757600080fd5b815164010000000081118282018710171561122157600080fd5b509098975050505050505050565b6000808260405160200180807f726567697374657265642e6669726d0000000000000000000000000000000000815250600f0182805190602001908083835b6020831061128d5780518252601f19909201916020918201910161126e565b6001836020036101000a03801982511681845116808217855250505050505090500191505060405160208183030381529060405260405180828051906020019080838360208310610bb15780518252601f199092019160209182019101610b92565b60008060405160200180807f6665652e636f6e74726163742e6d61737465720000000000000000000000000081525060130190506040516020818303038152906040526040518082805190602001908083835b602083106113615780518252601f199092019160209182019101611342565b51815160209384036101000a6000190180199092169116179052604080519290940182900382208a547fca446dd900000000000000000000000000000000000000000000000000000000845260048401829052600160a060020a038b81166024860152955191985094909416955063ca446dd9945060448083019491935090918290030181600087803b1580156113f757600080fd5b505af115801561140b573d6000803e3d6000fd5b505050506040513d602081101561142157600080fd5b505115156114d9576040805160e560020a62461bcd0281526020600482015260686024820152600080516020611c8383398151915260448201527f75652e20506c6561736520656e7375726520636f6e747261637420696e74657260648201527f6661636520697320616c6c6f776564206279207468652073746f72616765206360848201527f6f6e74726163742e00000000000000000000000000000000000000000000000060a482015290519081900360c40190fd5b5060019392505050565b60008060006114f2878761122f565b151561156e576040805160e560020a62461bcd02815260206004820152602760248201527f4572726f723a20606973737565724669726d60206d757374206265207265676960448201527f7374657265642e00000000000000000000000000000000000000000000000000606482015290519081900360840190fd5b858560405160200180807f726567697374657265642e617574686f7269747900000000000000000000000081525060140183805190602001908083835b602083106115ca5780518252601f1990920191602091820191016115ab565b6001836020036101000a03801982511681845116808217855250505050505090500182600160a060020a0316600160a060020a03166c01000000000000000000000000028152601401925050506040516020818303038152906040526040518082805190602001908083835b602083106116555780518252601f199092019160209182019101611636565b51815160209384036101000a6000190180199092169116179052604080519290940182900382207f726567697374657265642e617574686f726974792e6669726d0000000000000083830152600160a060020a038c166c010000000000000000000000000260398401528451808403602d018152604d9093019485905282519098509195509293508392850191508083835b602083106117065780518252601f1990920191602091820191016116e7565b51815160209384036101000a6000190180199092169116179052604080519290940182900382208d547fabfdcced000000000000000000000000000000000000000000000000000000008452600484018a90528b151560248501529451909750600160a060020a03909416955063abfdcced945060448083019491935090918290030181600087803b15801561179b57600080fd5b505af11580156117af573d6000803e3d6000fd5b505050506040513d60208110156117c557600080fd5b5051151561187d576040805160e560020a62461bcd0281526020600482015260696024820152600080516020611c8383398151915260448201527f75652e20506c6561736520656e7375726520636f6e747261637420686173206160648201527f6c6c6f776564207065726d697373696f6e7320776974682073746f726167652060848201527f636f6e74726163742e000000000000000000000000000000000000000000000060a482015290519081900360c40190fd5b8654604080517f6e8995500000000000000000000000000000000000000000000000000000000081526004810184815260248201928352895160448301528951600160a060020a0390941693636e8995509386938c9392606490910190602085019080838360005b838110156118fd5781810151838201526020016118e5565b50505050905090810190601f16801561192a5780820380516001836020036101000a031916815260200191505b509350505050602060405180830381600087803b15801561194a57600080fd5b505af115801561195e573d6000803e3d6000fd5b505050506040513d602081101561197457600080fd5b50511515611a2c576040805160e560020a62461bcd0281526020600482015260696024820152600080516020611c8383398151915260448201527f75652e20506c6561736520656e7375726520636f6e747261637420686173206160648201527f6c6c6f776564207065726d697373696f6e7320776974682073746f726167652060848201527f636f6e74726163742e000000000000000000000000000000000000000000000060a482015290519081900360c40190fd5b5060019695505050505050565b60008060008360405160200180807f6d61737465722e6163636f756e74000000000000000000000000000000000000815250600e0182600160a060020a0316600160a060020a03166c010000000000000000000000000281526014019150506040516020818303038152906040526040518082805190602001908083835b60208310611ad65780518252601f199092019160209182019101611ab7565b51815160209384036101000a6000190180199092169116179052604080519290940182900382208b547f21f8a721000000000000000000000000000000000000000000000000000000008452600484018290529451909850600160a060020a0390941695506321f8a721945060248083019491935090918290030181600087803b158015611b6357600080fd5b505af1158015611b77573d6000803e3d6000fd5b505050506040513d6020811015611b8d57600080fd5b50519050600160a060020a03811615611ba857809250610564565b83925061056456004572726f723a204661696c656420746f20726567697374657220617574686f7269747920666f7220697373756572206669726d20776974682073746f7261676520636f6e74726163742120506c6561736520636865636b20796f757220617267756d656e747320616e6420656e73757265206669726d4e616d652069732072656769737465726564206265666f726520616c6c6f77696e6720616e20617574686f72697479206f662073616964206669726d20616c6c6f7765642062792074686520636f6e74726163742e000000000000004572726f723a20556e61626c6520746f207365742073746f726167652076616c4572726f723a205472616e73616374696f6e2073656e646572206973206e6f74a165627a7a72305820c63567ca5f96382038fa1dd4daa39dbde12f257c3f669d7b7afc85f74e1bbffe0029",
  "source": "pragma solidity 0.4.24;\n\n/*\nCOPYRIGHT 2018 Token, Inc.\n\nTHE SOFTWARE IS PROVIDED \"AS IS\", WITHOUT WARRANTY OF ANY KIND, EXPRESS OR IMPLIED,\nINCLUDING BUT NOT LIMITED TO THE WARRANTIES OF MERCHANTABILITY, FITNESS FOR A\nPARTICULAR PURPOSE AND NONINFRINGEMENT. IN NO EVENT SHALL THE AUTHORS OR\nCOPYRIGHT HOLDERS BE LIABLE FOR ANY CLAIM, DAMAGES OR OTHER LIABILITY, WHETHER\nIN AN ACTION OF CONTRACT, TORT OR OTHERWISE, ARISING FROM, OUT OF OR IN CONNECTION\nWITH THE SOFTWARE OR THE USE OR OTHER DEALINGS IN THE SOFTWARE.\n*/\n\n\n/**\n@title TokenIOAuthority - Authority Smart Contract for Token, Inc.\n\n@author Ryan Tate <ryan.tate@token.io>, Sean Pollock <sean.pollock@token.io>\n\n@notice Contract uses generalized storage contract, `TokenIOStorage`, for\nupgradeability of interface contract.\n*/\n\nimport \"./Ownable.sol\";\nimport \"./TokenIOStorage.sol\";\nimport \"./TokenIOLib.sol\";\n\ncontract TokenIOAuthority is Ownable {\n\n    /// @dev Set reference to TokenIOLib interface which proxies to TokenIOStorage\n    using TokenIOLib for TokenIOLib.Data;\n    TokenIOLib.Data lib;\n\n    /**\n     * @notice Constructor method for Authority contract\n     * @param _storageContract Ethereum Address of TokenIOStorage contract\n     */\n    constructor(address _storageContract) public {\n        /*\n         * @notice Set the storage contract for the interface\n         * @dev This contract will be unable to use the storage constract until\n         * @dev contract address is authorized with the storage contract\n         * @dev Once authorized, you can setRegisteredFirm and setRegisteredAuthority\n        */\n        lib.Storage = TokenIOStorage(_storageContract);\n\n        /// @dev set owner to contract initiator\n        owner[msg.sender] = true;\n    }\n\n    /**\n     * @notice Registers a firm as authorized true/false\n     * @param firmName Name of firm\n     * @param _authorized Authorization status\n     * @return {\"success\" : \"Returns true if lib.setRegisteredFirm succeeds\"}\n     */\n    function setRegisteredFirm(string firmName, bool _authorized) public onlyAuthority(firmName, msg.sender) returns (bool success) {\n        /// @notice set firm registration status\n        require(\n          lib.setRegisteredFirm(firmName, _authorized),\n          \"Error: Failed to register firm with storage contract! Please check your arguments.\"\n        );\n        return true;\n    }\n\n    /**\n     * @notice Registers an authority asoociated with the given firm as true/false\n     * @param firmName Name of firm\n     * @param authority Address of authority account\n     * @param _authorized Authorization status\n     * @return {\"success\" : \"Returns true if lib.setRegisteredAuthority succeeds\"}\n     */\n    function setRegisteredAuthority(string firmName, address authority, bool _authorized) public onlyAuthority(firmName, msg.sender) returns (bool success) {\n        /// @notice set authority of firm to given status\n        require(\n          lib.setRegisteredAuthority(firmName, authority, _authorized),\n          \"Error: Failed to register authority for issuer firm with storage contract! Please check your arguments and ensure firmName is registered before allowing an authority of said firm\"\n        );\n        return true;\n    }\n\n    /**\n     * @notice Gets firm asoociated with an authority address\n     * @param authority Address of authority account\n     * @return {\"firm\" : \"name of firm\"}\n     */\n    function getFirmFromAuthority(address authority) public view returns (string firm) {\n        return lib.getFirmFromAuthority(authority);\n    }\n\n    /**\n     * @notice Gets status of firm registration\n     * @param firmName Name of firm\n     * @return {\"status\" : \"Returns status of firm registration\"}\n     */\n    function isRegisteredFirm(string firmName) public view returns (bool status) {\n        /// @notice check firm's registration status\n        return lib.isRegisteredFirm(firmName);\n    }\n\n    /**\n     * @notice Checks if an authority account is registered to a given firm\n     * @param firmName Name of firm\n     * @param authority Address of authority account\n     * @return {\"registered\" : \"Returns status of account registration to firm\"}\n     */\n    function isRegisteredToFirm(string firmName, address authority) public view returns (bool registered) {\n        /// @notice check if registered to firm\n        return lib.isRegisteredToFirm(firmName, authority);\n    }\n\n    /**\n     * @notice Gets status of authority registration\n     * @param authority Address of authority account\n     * @return { \"registered\" : \"Returns true if account is a registered authority\" }\n     */\n    function isRegisteredAuthority(address authority) public view returns (bool registered) {\n        /// @notice check if registered authority\n        return lib.isRegisteredAuthority(authority);\n    }\n\n    /**\n     * @notice Sets contract which specifies fee parameters\n     * @param feeContract Address of the fee contract\n     * @return { \"success\" : \"Returns true if lib.setMasterFeeContract succeeds\" }\n     */\n    function setMasterFeeContract(address feeContract) public onlyOwner returns (bool success) {\n        /// @notice set master fee contract\n        require(\n          lib.setMasterFeeContract(feeContract),\n          \"Error: Unable to set master fee contract. Please ensure fee contract has the correct parameters.\"\n        );\n        return true;\n      }\n\n\n    modifier onlyAuthority(string firmName, address authority) {\n        /// @notice throws if not an owner authority or not registered to the given firm\n        require(owner[authority] || lib.isRegisteredToFirm(firmName, authority),\n          \"Error: Transaction sender does not have permission for this operation!\"\n        );\n        _;\n    }\n\n}\n",
  "sourcePath": "/Users/ryan/Projects/TokenInc/tokeninc-smart-contracts/contracts/TokenIOAuthority.sol",
  "compiler": {
    "name": "solc",
    "version": "0.4.24+commit.e67f0147.Emscripten.clang"
  },
  "schemaVersion": "2.0.1",
  "updatedAt": "2018-09-18T18:57:45.575Z"
}