{
  "contractName": "TokenIOCurrencyAuthority",
  "abi": [
    {
      "constant": false,
      "inputs": [
        {
          "name": "allowedAddress",
          "type": "address"
        }
      ],
      "name": "allowOwnership",
      "outputs": [
        {
          "name": "success",
          "type": "bool"
        }
      ],
      "payable": false,
      "stateMutability": "nonpayable",
      "type": "function"
    },
    {
      "constant": false,
      "inputs": [
        {
          "name": "allowedAddress",
          "type": "address"
        }
      ],
      "name": "removeOwnership",
      "outputs": [
        {
          "name": "success",
          "type": "bool"
        }
      ],
      "payable": false,
      "stateMutability": "nonpayable",
      "type": "function"
    },
    {
      "constant": true,
      "inputs": [
        {
          "name": "",
          "type": "address"
        }
      ],
      "name": "owner",
      "outputs": [
        {
          "name": "",
          "type": "bool"
        }
      ],
      "payable": false,
      "stateMutability": "view",
      "type": "function"
    },
    {
      "constant": false,
      "inputs": [
        {
          "name": "newOwner",
          "type": "address"
        }
      ],
      "name": "transferOwnership",
      "outputs": [
        {
          "name": "success",
          "type": "bool"
        }
      ],
      "payable": false,
      "stateMutability": "nonpayable",
      "type": "function"
    },
    {
      "inputs": [
        {
          "name": "_storageContract",
          "type": "address"
        }
      ],
      "payable": false,
      "stateMutability": "nonpayable",
      "type": "constructor"
    },
    {
      "anonymous": false,
      "inputs": [
        {
          "indexed": true,
          "name": "previousOwner",
          "type": "address"
        },
        {
          "indexed": true,
          "name": "newOwner",
          "type": "address"
        }
      ],
      "name": "OwnershipTransferred",
      "type": "event"
    },
    {
      "anonymous": false,
      "inputs": [
        {
          "indexed": true,
          "name": "allowedAddress",
          "type": "address"
        }
      ],
      "name": "AllowOwnership",
      "type": "event"
    },
    {
      "anonymous": false,
      "inputs": [
        {
          "indexed": true,
          "name": "allowedAddress",
          "type": "address"
        }
      ],
      "name": "RevokeOwnership",
      "type": "event"
    },
    {
      "constant": true,
      "inputs": [
        {
          "name": "currency",
          "type": "string"
        },
        {
          "name": "account",
          "type": "address"
        }
      ],
      "name": "getTokenBalance",
      "outputs": [
        {
          "name": "balance",
          "type": "uint256"
        }
      ],
      "payable": false,
      "stateMutability": "view",
      "type": "function"
    },
    {
      "constant": true,
      "inputs": [
        {
          "name": "currency",
          "type": "string"
        }
      ],
      "name": "getTokenSupply",
      "outputs": [
        {
          "name": "supply",
          "type": "uint256"
        }
      ],
      "payable": false,
      "stateMutability": "view",
      "type": "function"
    },
    {
      "constant": false,
      "inputs": [
        {
          "name": "account",
          "type": "address"
        },
        {
          "name": "isAllowed",
          "type": "bool"
        },
        {
          "name": "issuerFirm",
          "type": "string"
        }
      ],
      "name": "freezeAccount",
      "outputs": [
        {
          "name": "success",
          "type": "bool"
        }
      ],
      "payable": false,
      "stateMutability": "nonpayable",
      "type": "function"
    },
    {
      "constant": false,
      "inputs": [
        {
          "name": "account",
          "type": "address"
        },
        {
          "name": "isApproved",
          "type": "bool"
        },
        {
          "name": "limit",
          "type": "uint256"
        },
        {
          "name": "issuerFirm",
          "type": "string"
        }
      ],
      "name": "approveKYC",
      "outputs": [
        {
          "name": "success",
          "type": "bool"
        }
      ],
      "payable": false,
      "stateMutability": "nonpayable",
      "type": "function"
    },
    {
      "constant": false,
      "inputs": [
        {
          "name": "currency",
          "type": "string"
        },
        {
          "name": "account",
          "type": "address"
        },
        {
          "name": "amount",
          "type": "uint256"
        },
        {
          "name": "limit",
          "type": "uint256"
        },
        {
          "name": "issuerFirm",
          "type": "string"
        }
      ],
      "name": "approveKYCAndDeposit",
      "outputs": [
        {
          "name": "success",
          "type": "bool"
        }
      ],
      "payable": false,
      "stateMutability": "nonpayable",
      "type": "function"
    },
    {
      "constant": false,
      "inputs": [
        {
          "name": "account",
          "type": "address"
        },
        {
          "name": "limit",
          "type": "uint256"
        },
        {
          "name": "issuerFirm",
          "type": "string"
        }
      ],
      "name": "setAccountSpendingLimit",
      "outputs": [
        {
          "name": "success",
          "type": "bool"
        }
      ],
      "payable": false,
      "stateMutability": "nonpayable",
      "type": "function"
    },
    {
      "constant": true,
      "inputs": [
        {
          "name": "account",
          "type": "address"
        }
      ],
      "name": "getAccountSpendingRemaining",
      "outputs": [
        {
          "name": "spendingRemaining",
          "type": "uint256"
        }
      ],
      "payable": false,
      "stateMutability": "view",
      "type": "function"
    },
    {
      "constant": true,
      "inputs": [
        {
          "name": "account",
          "type": "address"
        }
      ],
      "name": "getAccountSpendingLimit",
      "outputs": [
        {
          "name": "spendingLimit",
          "type": "uint256"
        }
      ],
      "payable": false,
      "stateMutability": "view",
      "type": "function"
    },
    {
      "constant": false,
      "inputs": [
        {
          "name": "currency",
          "type": "string"
        },
        {
          "name": "bpsRate",
          "type": "uint256"
        },
        {
          "name": "issuerFirm",
          "type": "string"
        }
      ],
      "name": "setFxBpsRate",
      "outputs": [
        {
          "name": "success",
          "type": "bool"
        }
      ],
      "payable": false,
      "stateMutability": "nonpayable",
      "type": "function"
    },
    {
      "constant": true,
      "inputs": [
        {
          "name": "currency",
          "type": "string"
        },
        {
          "name": "fxAmount",
          "type": "uint256"
        }
      ],
      "name": "getFxUSDAmount",
      "outputs": [
        {
          "name": "usdAmount",
          "type": "uint256"
        }
      ],
      "payable": false,
      "stateMutability": "view",
      "type": "function"
    },
    {
      "constant": false,
      "inputs": [
        {
          "name": "originalAccount",
          "type": "address"
        },
        {
          "name": "updatedAccount",
          "type": "address"
        },
        {
          "name": "issuerFirm",
          "type": "string"
        }
      ],
      "name": "approveForwardedAccount",
      "outputs": [
        {
          "name": "success",
          "type": "bool"
        }
      ],
      "payable": false,
      "stateMutability": "nonpayable",
      "type": "function"
    },
    {
      "constant": false,
      "inputs": [
        {
          "name": "currency",
          "type": "string"
        },
        {
          "name": "account",
          "type": "address"
        },
        {
          "name": "amount",
          "type": "uint256"
        },
        {
          "name": "issuerFirm",
          "type": "string"
        }
      ],
      "name": "deposit",
      "outputs": [
        {
          "name": "success",
          "type": "bool"
        }
      ],
      "payable": false,
      "stateMutability": "nonpayable",
      "type": "function"
    },
    {
      "constant": false,
      "inputs": [
        {
          "name": "currency",
          "type": "string"
        },
        {
          "name": "account",
          "type": "address"
        },
        {
          "name": "amount",
          "type": "uint256"
        },
        {
          "name": "issuerFirm",
          "type": "string"
        }
      ],
      "name": "withdraw",
      "outputs": [
        {
          "name": "success",
          "type": "bool"
        }
      ],
      "payable": false,
      "stateMutability": "nonpayable",
      "type": "function"
    }
  ],
  "bytecode": "0x608060405234801561001057600080fd5b5060405160208061457b833981016040908152905133600090815260208190529182208054600160ff19918216811783558054600160a060020a031916600160a060020a03909416939093178355815416909117905561450590819061007690396000f3006080604052600436106100d75763ffffffff60e060020a60003504166328e53bb281146100dc57806329db8ec4146101a25780633cdb9762146101d5578063448900141461023957806346e06634146102d65780634bbc142c146103445780635d586bfd1461036557806361e7662b14610412578063666a342714610433578063666e1b391461045457806379662bd5146104755780638a8f1f2514610522578063a0776a591461058b578063e354a3f2146105e4578063e6562fe11461064f578063f2de12fc146106be578063f2fde38b14610719575b600080fd5b3480156100e857600080fd5b506040805160206004803580820135601f810184900484028501840190955284845261018e94369492936024939284019190819084018382808284375050604080516020601f60608a01358b0180359182018390048302840183018552818452989b600160a060020a038b35169b838c01359b958601359a91995097506080909401955091935091820191819084018382808284375094975061073a9650505050505050565b604080519115158252519081900360200190f35b3480156101ae57600080fd5b506101c3600160a060020a0360043516610b8f565b60408051918252519081900360200190f35b3480156101e157600080fd5b506040805160206004803580820135601f81018490048402850184019095528484526101c394369492936024939284019190819084018382808284375094975050509235600160a060020a03169350610ba892505050565b34801561024557600080fd5b506040805160206004803580820135601f810184900484028501840190955284845261018e94369492936024939284019190819084018382808284375050604080516020601f818a01358b0180359182018390048302840183018552818452989b8a359b909a909994019750919550918201935091508190840183828082843750949750610bc39650505050505050565b3480156102e257600080fd5b50604080516020601f60643560048181013592830184900484028501840190955281845261018e94600160a060020a0381351694602480351515956044359536956084949301918190840183828082843750949750610cf19650505050505050565b34801561035057600080fd5b5061018e600160a060020a036004351661108f565b34801561037157600080fd5b506040805160206004803580820135601f810184900484028501840190955284845261018e94369492936024939284019190819084018382808284375050604080516020888301358a018035601f8101839004830284018301909452838352979a8935600160a060020a03169a8a8301359a9199909850606090910196509194509081019250819084018382808284375094975061116f9650505050505050565b34801561041e57600080fd5b506101c3600160a060020a03600435166112fa565b34801561043f57600080fd5b5061018e600160a060020a036004351661130d565b34801561046057600080fd5b5061018e600160a060020a03600435166113ea565b34801561048157600080fd5b506040805160206004803580820135601f810184900484028501840190955284845261018e94369492936024939284019190819084018382808284375050604080516020888301358a018035601f8101839004830284018301909452838352979a8935600160a060020a03169a8a8301359a919990985060609091019650919450908101925081908401838280828437509497506113ff9650505050505050565b34801561052e57600080fd5b50604080516020600460443581810135601f810184900484028501840190955284845261018e948235600160a060020a03169460248035953695946064949201919081908401838280828437509497506115289650505050505050565b34801561059757600080fd5b506040805160206004803580820135601f81018490048402850184019095528484526101c39436949293602493928401919081908401838280828437509497506116709650505050505050565b3480156105f057600080fd5b50604080516020600460443581810135601f810184900484028501840190955284845261018e948235600160a060020a031694602480351515953695946064949201919081908401838280828437509497506116839650505050505050565b34801561065b57600080fd5b50604080516020600460443581810135601f810184900484028501840190955284845261018e948235600160a060020a03908116956024803590921695369594606494929301919081908401838280828437509497506117a69650505050505050565b3480156106ca57600080fd5b506040805160206004803580820135601f81018490048402850184019095528484526101c394369492936024939284019190819084018382808284375094975050933594506118ee9350505050565b34801561072557600080fd5b5061018e600160a060020a0360043516611902565b600081336107506001838363ffffffff611a6016565b15156107a8576040805160e560020a62461bcd02815260206004820152603a60248201526000805160206143948339815191526044820152600080516020614434833981519152606482015290519081900360840190fd5b6107bb600188818763ffffffff611c0c16565b151561085d576040805160e560020a62461bcd02815260206004820152605b60248201527f4572726f723a20556e61626c6520746f20617070726f7665206163636f756e7460448201527f2e20506c6561736520636865636b206973737565724669726d20616e6420666960648201527f726d20617574686f726974792061726520726567697374657265640000000000608482015290519081900360a40190fd5b610870600188818763ffffffff611ed916565b1515610912576040805160e560020a62461bcd02815260206004820152605e60248201527f4572726f723a20556e61626c6520746f20736574206163636f756e742073746160448201527f7475732e20506c6561736520636865636b206973737565724669726d20616e6460648201527f206669726d20617574686f726974792061726520726567697374657265640000608482015290519081900360a40190fd5b61092660018989898863ffffffff61215e16565b15156109c8576040805160e560020a62461bcd02815260206004820152605960248201527f4572726f723a20556e61626c6520746f206465706f7369742066756e64732e2060448201527f506c6561736520636865636b206973737565724669726d20616e64206669726d60648201527f20617574686f7269747920617265207265676973746572656400000000000000608482015290519081900360a40190fd5b6109da6001888763ffffffff6129db16565b1515610aa2576040805160e560020a62461bcd02815260206004820152607260248201527f4572726f723a20556e61626c6520746f2073657420696e697469616c2073706560448201527f6e64696e67206c696d697420666f72206163636f756e742e20506c656173652060648201527f636865636b206973737565724669726d20616e64206669726d20617574686f7260848201527f697479206172652072656769737465726564000000000000000000000000000060a482015290519081900360c40190fd5b610ab960018862015180420163ffffffff612bee16565b1515610b81576040805160e560020a62461bcd02815260206004820152606b60248201527f4572726f723a20556e61626c6520746f20736574207370656e64696e6720706560448201527f72696f6420666f72206163636f756e742e20506c6561736520636865636b206960648201527f73737565724669726d20616e64206669726d20617574686f726974792061726560848201527f207265676973746572656400000000000000000000000000000000000000000060a482015290519081900360c40190fd5b506001979650505050505050565b6000610ba260018363ffffffff612c7f16565b92915050565b6000610bbc6001848463ffffffff612ca416565b9392505050565b60008133610bd96001838363ffffffff611a6016565b1515610c31576040805160e560020a62461bcd02815260206004820152603a60248201526000805160206143948339815191526044820152600080516020614434833981519152606482015290519081900360840190fd5b610c436001878763ffffffff612e0516565b1515610ce5576040805160e560020a62461bcd02815260206004820152605560248201527f4572726f723a20556e61626c6520746f2073657420465820555344206261736960448201527f7320706f696e747320726174652e20506c6561736520656e737572652069737360648201527f7565724669726d20697320617574686f72697a65640000000000000000000000608482015290519081900360a40190fd5b50600195945050505050565b60008133610d076001838363ffffffff611a6016565b1515610d5f576040805160e560020a62461bcd02815260206004820152603a60248201526000805160206143948339815191526044820152600080516020614434833981519152606482015290519081900360840190fd5b610d72600188888763ffffffff611c0c16565b1515610e14576040805160e560020a62461bcd02815260206004820152605b60248201527f4572726f723a20556e61626c6520746f20617070726f7665206163636f756e7460448201527f2e20506c6561736520636865636b206973737565724669726d20616e6420666960648201527f726d20617574686f726974792061726520726567697374657265640000000000608482015290519081900360a40190fd5b610e27600188888763ffffffff611ed916565b1515610ec9576040805160e560020a62461bcd02815260206004820152605e60248201527f4572726f723a20556e61626c6520746f20736574206163636f756e742073746160448201527f7475732e20506c6561736520636865636b206973737565724669726d20616e6460648201527f206669726d20617574686f726974792061726520726567697374657265640000608482015290519081900360a40190fd5b610edb6001888763ffffffff6129db16565b1515610fa3576040805160e560020a62461bcd02815260206004820152607260248201527f4572726f723a20556e61626c6520746f2073657420696e697469616c2073706560448201527f6e64696e67206c696d697420666f72206163636f756e742e20506c656173652060648201527f636865636b206973737565724669726d20616e64206669726d20617574686f7260848201527f697479206172652072656769737465726564000000000000000000000000000060a482015290519081900360c40190fd5b610fba60018862015180420163ffffffff612bee16565b1515611082576040805160e560020a62461bcd02815260206004820152606b60248201527f4572726f723a20556e61626c6520746f20736574207370656e64696e6720706560448201527f72696f6420666f72206163636f756e742e20506c6561736520636865636b206960648201527f73737565724669726d20616e64206669726d20617574686f726974792061726560848201527f207265676973746572656400000000000000000000000000000000000000000060a482015290519081900360c40190fd5b5060019695505050505050565b3360009081526020819052604081205460ff16151561111e576040805160e560020a62461bcd02815260206004820152603960248201527f4572726f723a205472616e73616374696f6e2073656e646572206973206e6f7460448201527f20616c6c6f7765642062792074686520636f6e74726163742e00000000000000606482015290519081900360840190fd5b600160a060020a038216600081815260208190526040808220805460ff19166001179055517f1c965cca064792c08083e8746b9062155a2f163d9f9ddab08196d5b2e3a818c59190a2506001919050565b600081336111856001838363ffffffff611a6016565b15156111dd576040805160e560020a62461bcd02815260206004820152603a60248201526000805160206143948339815191526044820152600080516020614434833981519152606482015290519081900360840190fd5b6111ee60018763ffffffff61300216565b1515611244576040805160e560020a62461bcd02815260206004820152601f60248201527f4572726f723a204163636f756e74206973206e6f742076657269666965642100604482015290519081900360640190fd5b61125860018888888863ffffffff61215e16565b1515611082576040805160e560020a62461bcd02815260206004820152605960248201527f4572726f723a20556e61626c6520746f206465706f7369742066756e64732e2060448201527f506c6561736520636865636b206973737565724669726d20616e64206669726d60648201527f20617574686f7269747920617265207265676973746572656400000000000000608482015290519081900360a40190fd5b6000610ba260018363ffffffff61311916565b3360009081526020819052604081205460ff16151561139c576040805160e560020a62461bcd02815260206004820152603960248201527f4572726f723a205472616e73616374696f6e2073656e646572206973206e6f7460448201527f20616c6c6f7765642062792074686520636f6e74726163742e00000000000000606482015290519081900360840190fd5b600160a060020a038216600081815260208190526040808220805460ff19169055517f2d760b10f59f9d65a092cfebe73f70fd0a4e19e59791ffd61ee3057a0010ad989190a2506001919050565b60006020819052908152604090205460ff1681565b600081336114156001838363ffffffff611a6016565b151561146d576040805160e560020a62461bcd02815260206004820152603a60248201526000805160206143948339815191526044820152600080516020614434833981519152606482015290519081900360840190fd5b61147e60018763ffffffff61300216565b15156114d4576040805160e560020a62461bcd02815260206004820152601f60248201527f4572726f723a204163636f756e74206973206e6f742076657269666965642100604482015290519081900360640190fd5b6114e860018888888863ffffffff61325816565b15156110825760405160e560020a62461bcd0281526004018080602001828103825260868152602001806144546086913960a00191505060405180910390fd5b6000813361153e6001838363ffffffff611a6016565b1515611596576040805160e560020a62461bcd02815260206004820152603a60248201526000805160206143948339815191526044820152600080516020614434833981519152606482015290519081900360840190fd5b6115a86001878763ffffffff6129db16565b1515610ce5576040805160e560020a62461bcd02815260206004820152607260248201527f4572726f723a20556e61626c6520746f2073657420696e697469616c2073706560448201527f6e64696e67206c696d697420666f72206163636f756e742e20506c656173652060648201527f636865636b206973737565724669726d20616e64206669726d20617574686f7260848201527f697479206172652072656769737465726564000000000000000000000000000060a482015290519081900360c40190fd5b6000610ba260018363ffffffff613a2816565b600081336116996001838363ffffffff611a6016565b15156116f1576040805160e560020a62461bcd02815260206004820152603a60248201526000805160206143948339815191526044820152600080516020614434833981519152606482015290519081900360840190fd5b611704600187878763ffffffff611ed916565b1515610ce5576040805160e560020a62461bcd02815260206004820152605a60248201527f4572726f723a20556e61626c6520746f20667265657a65206163636f756e742e60448201527f20506c6561736520636865636b206973737565724669726d20616e642066697260648201527f6d20617574686f72697479206172652072656769737465726564000000000000608482015290519081900360a40190fd5b600081336117bc6001838363ffffffff611a6016565b1515611814576040805160e560020a62461bcd02815260206004820152603a60248201526000805160206143948339815191526044820152600080516020614434833981519152606482015290519081900360840190fd5b6118266001878763ffffffff613ae816565b1515610ce5576040805160e560020a62461bcd02815260206004820152606d60248201527f4572726f723a20556e61626c6520746f2073657420666f72776172646564206160448201527f64647265737320666f72206163636f756e742e20506c6561736520636865636b60648201527f206973737565724669726d20616e64206669726d20617574686f72697479206160848201527f726520726567697374657265640000000000000000000000000000000000000060a482015290519081900360c40190fd5b6000610bbc6001848463ffffffff613c1016565b3360009081526020819052604081205460ff161515611991576040805160e560020a62461bcd02815260206004820152603960248201527f4572726f723a205472616e73616374696f6e2073656e646572206973206e6f7460448201527f20616c6c6f7765642062792074686520636f6e74726163742e00000000000000606482015290519081900360840190fd5b600160a060020a03821615156119f1576040805160e560020a62461bcd02815260206004820152601f60248201527f4572726f723a206e65774f776e65722063616e6e6f74206265206e756c6c2100604482015290519081900360640190fd5b604051600160a060020a0383169033907f8be0079c531659141344cd1fd0a4f28419497f9722a3daafe3b4186f6b6457e090600090a350600160a060020a03166000908152602081905260408082208054600160ff199182168117909255338452919092208054909116905590565b60008083611a6e8685613cb4565b60405160200180807f726567697374657265642e617574686f7269747900000000000000000000000081525060140183805190602001908083835b60208310611ac85780518252601f199092019160209182019101611aa9565b6001836020036101000a03801982511681845116808217855250505050505090500182600160a060020a0316600160a060020a0316606060020a028152601401925050506040516020818303038152906040526040518082805190602001908083835b60208310611b4a5780518252601f199092019160209182019101611b2b565b51815160209384036101000a6000190180199092169116179052604080519290940182900382208b547f7ae1cfca000000000000000000000000000000000000000000000000000000008452600484018290529451909750600160a060020a039094169550637ae1cfca945060248083019491935090918290030181600087803b158015611bd757600080fd5b505af1158015611beb573d6000803e3d6000fd5b505050506040513d6020811015611c0157600080fd5b505195945050505050565b600080611c198686613cb4565b60405160200180807f6163636f756e742e6b7963000000000000000000000000000000000000000000815250600b0182600160a060020a0316600160a060020a0316606060020a0281526014019150506040516020818303038152906040526040518082805190602001908083835b60208310611ca75780518252601f199092019160209182019101611c88565b51815160209384036101000a6000190180199092169116179052604080519290940182900382208c547fabfdcced000000000000000000000000000000000000000000000000000000008452600484018290528b151560248501529451909750600160a060020a03909416955063abfdcced945060448083019491935090918290030181600087803b158015611d3c57600080fd5b505af1158015611d50573d6000803e3d6000fd5b505050506040513d6020811015611d6657600080fd5b50511515611e1e576040805160e560020a62461bcd02815260206004820152606860248201526000805160206143f483398151915260448201527f75652e20506c6561736520656e7375726520636f6e747261637420696e74657260648201527f6661636520697320616c6c6f776564206279207468652073746f72616765206360848201527f6f6e74726163742e00000000000000000000000000000000000000000000000060a482015290519081900360c40190fd5b84600160a060020a03167fab56f1457128531bea5d39a6dbdbcdc655f2b2959bd7ee369f6461581aa6444d8585604051808315151515815260200180602001828103825283818151815260200191508051906020019080838360005b83811015611e92578181015183820152602001611e7a565b50505050905090810190601f168015611ebf5780820380516001836020036101000a031916815260200191505b50935050505060405180910390a250600195945050505050565b600080611ee68686613cb4565b60405160200180807f6163636f756e742e616c6c6f7765640000000000000000000000000000000000815250600f0182600160a060020a0316600160a060020a0316606060020a0281526014019150506040516020818303038152906040526040518082805190602001908083835b60208310611f745780518252601f199092019160209182019101611f55565b51815160209384036101000a6000190180199092169116179052604080519290940182900382208c547fabfdcced000000000000000000000000000000000000000000000000000000008452600484018290528b151560248501529451909750600160a060020a03909416955063abfdcced945060448083019491935090918290030181600087803b15801561200957600080fd5b505af115801561201d573d6000803e3d6000fd5b505050506040513d602081101561203357600080fd5b505115156120eb576040805160e560020a62461bcd02815260206004820152606860248201526000805160206143f483398151915260448201527f75652e20506c6561736520656e7375726520636f6e747261637420696e74657260648201527f6661636520697320616c6c6f776564206279207468652073746f72616765206360848201527f6f6e74726163742e00000000000000000000000000000000000000000000000060a482015290519081900360c40190fd5b84600160a060020a03167f1d71109398f40d30b03a3640657b60db5013a5e75026c3db99007b43bede166585856040518083151515158152602001806020018281038252838181518152602001915080519060200190808383600083811015611e92578181015183820152602001611e7a565b6000806000808761216f8a89613cb4565b60405160200180807f746f6b656e2e62616c616e636500000000000000000000000000000000000000815250600d0183805190602001908083835b602083106121c95780518252601f1990920191602091820191016121aa565b6001836020036101000a03801982511681845116808217855250505050505090500182600160a060020a0316600160a060020a0316606060020a028152601401925050506040516020818303038152906040526040518082805190602001908083835b6020831061224b5780518252601f19909201916020918201910161222c565b51815160001960209485036101000a019081169019919091161790526040519390910183900383207f746f6b656e2e69737375656400000000000000000000000000000000000000008483019081528e519199508e96508b955093602c019250908501908083835b602083106122d25780518252601f1990920191602091820191016122b3565b51815160209384036101000a600019018019909216911617905285519190930192850191508083835b6020831061231a5780518252601f1990920191602091820191016122fb565b6001836020036101000a038019825116818451168082178552505050505050905001925050506040516020818303038152906040526040518082805190602001908083835b6020831061237e5780518252601f19909201916020918201910161235f565b51815160209384036101000a60001901801990921691161790526040519190930181900381207f746f6b656e2e737570706c7900000000000000000000000000000000000000008285019081528e519198508e96509450602c90910192850191508083835b602083106124025780518252601f1990920191602091820191016123e3565b6001836020036101000a0380198251168184511680821785525050505050509050019150506040516020818303038152906040526040518082805190602001908083835b602083106124655780518252601f199092019160209182019101612446565b51815160209384036101000a6000190180199092169116179052604080519290940182900382208f5460e060020a63bd02d0f5028452600484018b90529451909750600160a060020a03909416955063e2a4853a9450889361252093508c92879263bd02d0f5926024808401938290030181600087803b1580156124e857600080fd5b505af11580156124fc573d6000803e3d6000fd5b505050506040513d602081101561251257600080fd5b50519063ffffffff613e2616565b6040518363ffffffff1660e060020a02815260040180836000191660001916815260200182815260200192505050602060405180830381600087803b15801561256857600080fd5b505af115801561257c573d6000803e3d6000fd5b505050506040513d602081101561259257600080fd5b50511515612614576040805160e560020a62461bcd02815260206004820152606960248201526000805160206143f483398151915260448201526000805160206143d483398151915260648201526000805160206143b4833981519152608482015260008051602061441483398151915260a482015290519081900360c40190fd5b88546040805160e060020a63bd02d0f5028152600481018590529051600160a060020a039092169163e2a4853a918591612673918b91869163bd02d0f59160248083019260209291908290030181600087803b1580156124e857600080fd5b6040518363ffffffff1660e060020a02815260040180836000191660001916815260200182815260200192505050602060405180830381600087803b1580156126bb57600080fd5b505af11580156126cf573d6000803e3d6000fd5b505050506040513d60208110156126e557600080fd5b50511515612767576040805160e560020a62461bcd02815260206004820152606960248201526000805160206143f483398151915260448201526000805160206143d483398151915260648201526000805160206143b4833981519152608482015260008051602061441483398151915260a482015290519081900360c40190fd5b88546040805160e060020a63bd02d0f5028152600481018490529051600160a060020a039092169163e2a4853a9184916127c6918b91869163bd02d0f59160248083019260209291908290030181600087803b1580156124e857600080fd5b6040518363ffffffff1660e060020a02815260040180836000191660001916815260200182815260200192505050602060405180830381600087803b15801561280e57600080fd5b505af1158015612822573d6000803e3d6000fd5b505050506040513d602081101561283857600080fd5b505115156128ba576040805160e560020a62461bcd02815260206004820152606960248201526000805160206143f483398151915260448201526000805160206143d483398151915260648201526000805160206143b4833981519152608482015260008051602061441483398151915260a482015290519081900360c40190fd5b86600160a060020a03167fb20a35859ac659f96b757a0975ff35141c00728783cc1b222c2fc323ed8a34ea898888604051808060200184815260200180602001838103835286818151815260200191508051906020019080838360005b8381101561292f578181015183820152602001612917565b50505050905090810190601f16801561295c5780820380516001836020036101000a031916815260200191505b50838103825284518152845160209182019186019080838360005b8381101561298f578181015183820152602001612977565b50505050905090810190601f1680156129bc5780820380516001836020036101000a031916815260200191505b509550505050505060405180910390a250600198975050505050505050565b6000808360405160200180807f6163636f756e742e7370656e64696e672e6c696d69740000000000000000000081525060160182600160a060020a0316600160a060020a0316606060020a0281526014019150506040516020818303038152906040526040518082805190602001908083835b60208310612a6d5780518252601f199092019160209182019101612a4e565b51815160209384036101000a6000190180199092169116179052604080519290940182900382208b547fe2a4853a00000000000000000000000000000000000000000000000000000000845260048401829052602484018b90529451909750600160a060020a03909416955063e2a4853a945060448083019491935090918290030181600087803b158015612b0157600080fd5b505af1158015612b15573d6000803e3d6000fd5b505050506040513d6020811015612b2b57600080fd5b50511515612be3576040805160e560020a62461bcd02815260206004820152606860248201526000805160206143f483398151915260448201527f75652e20506c6561736520656e7375726520636f6e747261637420696e74657260648201527f6661636520697320616c6c6f776564206279207468652073746f72616765206360848201527f6f6e74726163742e00000000000000000000000000000000000000000000000060a482015290519081900360c40190fd5b506001949350505050565b6000808360405160200180807f6c696d69742e7370656e64696e672e706572696f64000000000000000000000081525060150182600160a060020a0316600160a060020a0316606060020a02815260140191505060405160208183030381529060405260405180828051906020019080838360208310612a6d5780518252601f199092019160209182019101612a4e565b6000610bbc612c8e8484613ea9565b612c988585613119565b9063ffffffff613f4b16565b60008083612cb28685613cb4565b60405160200180807f746f6b656e2e62616c616e636500000000000000000000000000000000000000815250600d0183805190602001908083835b60208310612d0c5780518252601f199092019160209182019101612ced565b6001836020036101000a03801982511681845116808217855250505050505090500182600160a060020a0316600160a060020a0316606060020a028152601401925050506040516020818303038152906040526040518082805190602001908083835b60208310612d8e5780518252601f199092019160209182019101612d6f565b51815160209384036101000a6000190180199092169116179052604080519290940182900382208b5460e060020a63bd02d0f5028452600484018290529451909750600160a060020a03909416955063bd02d0f5945060248083019491935090918290030181600087803b158015611bd757600080fd5b6000808360405160200180807f66782e7573642e72617465000000000000000000000000000000000000000000815250600b0182805190602001908083835b60208310612e635780518252601f199092019160209182019101612e44565b6001836020036101000a0380198251168184511680821785525050505050509050019150506040516020818303038152906040526040518082805190602001908083835b60208310612ec65780518252601f199092019160209182019101612ea7565b51815160209384036101000a6000190180199092169116179052604080519290940182900382208b547fe2a4853a00000000000000000000000000000000000000000000000000000000845260048401829052602484018b90529451909750600160a060020a03909416955063e2a4853a945060448083019491935090918290030181600087803b158015612f5a57600080fd5b505af1158015612f6e573d6000803e3d6000fd5b505050506040513d6020811015612f8457600080fd5b50511515612be3576040805160e560020a62461bcd02815260206004820152603060248201527f4572726f723a20556e61626c6520746f20757064617465206163636f756e742060448201527f7370656e64696e6720706572696f642e00000000000000000000000000000000606482015290519081900360840190fd5b600061300e8383613fd0565b151561308a576040805160e560020a62461bcd02815260206004820152602a60248201527f4572726f723a204163636f756e7420646f6573206e6f742068617665204b594360448201527f20617070726f76616c2e00000000000000000000000000000000000000000000606482015290519081900360840190fd5b61309483836140f8565b1515613110576040805160e560020a62461bcd02815260206004820152602481018290527f4572726f723a204163636f756e7420737461747573206973206066616c73656060448201527f2e204163636f756e7420737461747573206d757374206265206074727565602e606482015290519081900360840190fd5b50600192915050565b6000808260405160200180807f6163636f756e742e7370656e64696e672e6c696d69740000000000000000000081525060160182600160a060020a0316600160a060020a0316606060020a0281526014019150506040516020818303038152906040526040518082805190602001908083835b602083106131ab5780518252601f19909201916020918201910161318c565b51815160209384036101000a6000190180199092169116179052604080519290940182900382208a5460e060020a63bd02d0f5028452600484018290529451909750600160a060020a03909416955063bd02d0f5945060248083019491935090918290030181600087803b15801561322257600080fd5b505af1158015613236573d6000803e3d6000fd5b505050506040513d602081101561324c57600080fd5b505191505b5092915050565b600080600080876132698a89613cb4565b60405160200180807f746f6b656e2e62616c616e636500000000000000000000000000000000000000815250600d0183805190602001908083835b602083106132c35780518252601f1990920191602091820191016132a4565b6001836020036101000a03801982511681845116808217855250505050505090500182600160a060020a0316600160a060020a0316606060020a028152601401925050506040516020818303038152906040526040518082805190602001908083835b602083106133455780518252601f199092019160209182019101613326565b51815160001960209485036101000a019081169019919091161790526040519390910183900383207f746f6b656e2e69737375656400000000000000000000000000000000000000008483019081528e519199508e96508b955093602c019250908501908083835b602083106133cc5780518252601f1990920191602091820191016133ad565b51815160209384036101000a600019018019909216911617905285519190930192850191508083835b602083106134145780518252601f1990920191602091820191016133f5565b6001836020036101000a038019825116818451168082178552505050505050905001925050506040516020818303038152906040526040518082805190602001908083835b602083106134785780518252601f199092019160209182019101613459565b51815160209384036101000a60001901801990921691161790526040519190930181900381207f746f6b656e2e737570706c7900000000000000000000000000000000000000008285019081528e519198508e96509450602c90910192850191508083835b602083106134fc5780518252601f1990920191602091820191016134dd565b6001836020036101000a0380198251168184511680821785525050505050509050019150506040516020818303038152906040526040518082805190602001908083835b6020831061355f5780518252601f199092019160209182019101613540565b51815160209384036101000a6000190180199092169116179052604080519290940182900382208f5460e060020a63bd02d0f5028452600484018b90529451909750600160a060020a03909416955063e2a4853a9450889361361a93508c92879263bd02d0f5926024808401938290030181600087803b1580156135e257600080fd5b505af11580156135f6573d6000803e3d6000fd5b505050506040513d602081101561360c57600080fd5b50519063ffffffff613f4b16565b6040518363ffffffff1660e060020a02815260040180836000191660001916815260200182815260200192505050602060405180830381600087803b15801561366257600080fd5b505af1158015613676573d6000803e3d6000fd5b505050506040513d602081101561368c57600080fd5b5051151561370e576040805160e560020a62461bcd02815260206004820152606960248201526000805160206143f483398151915260448201526000805160206143d483398151915260648201526000805160206143b4833981519152608482015260008051602061441483398151915260a482015290519081900360c40190fd5b88546040805160e060020a63bd02d0f5028152600481018590529051600160a060020a039092169163e2a4853a91859161376d918b91869163bd02d0f59160248083019260209291908290030181600087803b1580156135e257600080fd5b6040518363ffffffff1660e060020a02815260040180836000191660001916815260200182815260200192505050602060405180830381600087803b1580156137b557600080fd5b505af11580156137c9573d6000803e3d6000fd5b505050506040513d60208110156137df57600080fd5b50511515613861576040805160e560020a62461bcd02815260206004820152606960248201526000805160206143f483398151915260448201526000805160206143d483398151915260648201526000805160206143b4833981519152608482015260008051602061441483398151915260a482015290519081900360c40190fd5b88546040805160e060020a63bd02d0f5028152600481018490529051600160a060020a039092169163e2a4853a9184916138c0918b91869163bd02d0f59160248083019260209291908290030181600087803b1580156135e257600080fd5b6040518363ffffffff1660e060020a02815260040180836000191660001916815260200182815260200192505050602060405180830381600087803b15801561390857600080fd5b505af115801561391c573d6000803e3d6000fd5b505050506040513d602081101561393257600080fd5b505115156139b4576040805160e560020a62461bcd02815260206004820152606960248201526000805160206143f483398151915260448201526000805160206143d483398151915260648201526000805160206143b4833981519152608482015260008051602061441483398151915260a482015290519081900360c40190fd5b86600160a060020a03167fbe0071d3ab0eb6dc7f33a38ba50120d775cd62fa123f3b59c193caf48e44bb4c898888604051808060200184815260200180602001838103835286818151815260200191508051906020019080838360008381101561292f578181015183820152602001612917565b6000808260405160200180807f746f6b656e2e737570706c790000000000000000000000000000000000000000815250600c0182805190602001908083835b60208310613a865780518252601f199092019160209182019101613a67565b6001836020036101000a038019825116818451168082178552505050505050905001915050604051602081830303815290604052604051808280519060200190808383602083106131ab5780518252601f19909201916020918201910161318c565b6000808260405160200180807f6d61737465722e6163636f756e74000000000000000000000000000000000000815250600e0182600160a060020a0316600160a060020a0316606060020a0281526014019150506040516020818303038152906040526040518082805190602001908083835b60208310613b7a5780518252601f199092019160209182019101613b5b565b51815160209384036101000a6000190180199092169116179052604080519290940182900382208b547fca446dd900000000000000000000000000000000000000000000000000000000845260048401829052600160a060020a038c81166024860152955191985094909416955063ca446dd9945060448083019491935090918290030181600087803b158015612b0157600080fd5b600080600080613c55876040805190810160405280600481526020017f5553447800000000000000000000000000000000000000000000000000000000815250614192565b9250613c618787614192565b9150613ca982600a0a613c9185600a0a613c9d612710613c91613c848e8e6141ef565b8c9063ffffffff61424c16565b9063ffffffff6142eb16565b9063ffffffff61424c16565b979650505050505050565b60008060008360405160200180807f6d61737465722e6163636f756e74000000000000000000000000000000000000815250600e0182600160a060020a0316600160a060020a0316606060020a0281526014019150506040516020818303038152906040526040518082805190602001908083835b60208310613d485780518252601f199092019160209182019101613d29565b51815160209384036101000a6000190180199092169116179052604080519290940182900382208b547f21f8a721000000000000000000000000000000000000000000000000000000008452600484018290529451909850600160a060020a0390941695506321f8a721945060248083019491935090918290030181600087803b158015613dd557600080fd5b505af1158015613de9573d6000803e3d6000fd5b505050506040513d6020811015613dff57600080fd5b50519050600160a060020a03811615613e1a57809250613e1e565b8392505b505092915050565b600082820183811015610bbc576040805160e560020a62461bcd02815260206004820152602160248201527f4572726f723a20556e73616665206164646974696f6e206f7065726174696f6e60448201527f2100000000000000000000000000000000000000000000000000000000000000606482015290519081900360840190fd5b60008082613eb78585614302565b60405160200180807f6163636f756e742e7370656e64696e672e616d6f756e7400000000000000000081525060170183600160a060020a0316600160a060020a0316606060020a02815260140182815260200192505050604051602081830303815290604052604051808280519060200190808383602083106131ab5780518252601f19909201916020918201910161318c565b600082821115613fca576040805160e560020a62461bcd028152602060048201526024808201527f4572726f723a20556e73616665207375627472616374696f6e206f706572617460448201527f696f6e2100000000000000000000000000000000000000000000000000000000606482015290519081900360840190fd5b50900390565b600080613fdd8484613cb4565b60405160200180807f6163636f756e742e6b7963000000000000000000000000000000000000000000815250600b0182600160a060020a0316600160a060020a0316606060020a0281526014019150506040516020818303038152906040526040518082805190602001908083835b6020831061406b5780518252601f19909201916020918201910161404c565b51815160209384036101000a6000190180199092169116179052604080519290940182900382208a547f7ae1cfca000000000000000000000000000000000000000000000000000000008452600484018290529451909750600160a060020a039094169550637ae1cfca945060248083019491935090918290030181600087803b15801561322257600080fd5b6000806141058484613cb4565b60405160200180807f6163636f756e742e616c6c6f7765640000000000000000000000000000000000815250600f0182600160a060020a0316600160a060020a0316606060020a0281526014019150506040516020818303038152906040526040518082805190602001908083836020831061406b5780518252601f19909201916020918201910161404c565b6000808260405160200180807f746f6b656e2e646563696d616c73000000000000000000000000000000000000815250600e01828051906020019080838360208310613a865780518252601f199092019160209182019101613a67565b6000808260405160200180807f66782e7573642e72617465000000000000000000000000000000000000000000815250600b01828051906020019080838360208310613a865780518252601f199092019160209182019101613a67565b60008083151561425f5760009150613251565b5082820282848281151561426f57fe5b0414610bbc576040805160e560020a62461bcd02815260206004820152602760248201527f4572726f723a20556e73616665206d756c7469706c69636174696f6e206f706560448201527f726174696f6e2100000000000000000000000000000000000000000000000000606482015290519081900360840190fd5b60008082848115156142f957fe5b04949350505050565b6000808260405160200180807f6c696d69742e7370656e64696e672e706572696f64000000000000000000000081525060150182600160a060020a0316600160a060020a0316606060020a028152601401915050604051602081830303815290604052604051808280519060200190808383602083106131ab5780518252601f19909201916020918201910161318c56004572726f723a206973737565724669726d20616e642f6f72206669726d2061756c6c6f776564207065726d697373696f6e7320776974682073746f726167652075652e20506c6561736520656e7375726520636f6e74726163742068617320614572726f723a20556e61626c6520746f207365742073746f726167652076616c636f6e74726163742e000000000000000000000000000000000000000000000074686f7269747920617265206e6f7420726567697374657265640000000000004572726f723a20556e61626c6520746f2077697468647261772066756e64732e20506c6561736520636865636b206973737565724669726d20616e64206669726d20617574686f7269747920617265207265676973746572656420616e642068617665206973737565642066756e647320746861742063616e2062652077697468647261776ea165627a7a72305820a0eb788fffd99d155740f884f5f313458d7a83f1900c5ff2906357db56c5fd780029",
  "source": "pragma solidity 0.4.24;\n\n\n/*\n\nCOPYRIGHT 2018 Token, Inc.\n\nTHE SOFTWARE IS PROVIDED \"AS IS\", WITHOUT WARRANTY OF ANY KIND, EXPRESS OR IMPLIED,\nINCLUDING BUT NOT LIMITED TO THE WARRANTIES OF MERCHANTABILITY, FITNESS FOR A\nPARTICULAR PURPOSE AND NONINFRINGEMENT. IN NO EVENT SHALL THE AUTHORS OR\nCOPYRIGHT HOLDERS BE LIABLE FOR ANY CLAIM, DAMAGES OR OTHER LIABILITY, WHETHER\nIN AN ACTION OF CONTRACT, TORT OR OTHERWISE, ARISING FROM, OUT OF OR IN CONNECTION\nWITH THE SOFTWARE OR THE USE OR OTHER DEALINGS IN THE SOFTWARE.\n\n*/\n\nimport \"./Ownable.sol\";\nimport \"./TokenIOStorage.sol\";\nimport \"./TokenIOLib.sol\";\n\n/*\n@title TokenIOCurrencyAuthority - Currency Authority Smart Contract for Token, Inc.\n\n@author Ryan Tate <ryan.tate@token.io>, Sean Pollock <sean.pollock@token.io>\n\n@notice Contract uses generalized storage contract, `TokenIOStorage`, for\nupgradeability of interface contract.\n*/\n\ncontract TokenIOCurrencyAuthority is Ownable {\n\n    /// @dev Set reference to TokenIOLib interface which proxies to TokenIOStorage */\n    using TokenIOLib for TokenIOLib.Data;\n    TokenIOLib.Data lib;\n\n    /**\n     * @notice Constructor method for CurrencyAuthority contract\n     * @param _storageContract Address of TokenIOStorage contract\n     */\n    constructor(address _storageContract) public {\n        /**\n         * @notice Set the storage contract for the interface\n         * @dev This contract will be unable to use the storage constract until\n         * @dev Contract address is authorized with the storage contract\n         */\n        lib.Storage = TokenIOStorage(_storageContract);\n\n        // @dev set owner to contract initiator\n        owner[msg.sender] = true;\n    }\n\n    /**\n     * @notice Gets balance of sepcified account for a given currency\n     * @param currency Currency symbol 'USDx'\n     * @param account Sepcified account address\n     * @return { \"balance\": \"Returns account balance\"}\n     */\n    function getTokenBalance(string currency, address account) public view returns (uint balance) {\n      return lib.getTokenBalance(currency, account);\n    }\n\n    /**\n     * @notice Gets total supply of specified currency\n     * @param currency Currency symbol 'USDx'\n     * @return { \"supply\": \"Returns total supply of currency\"}\n     */\n    function getTokenSupply(string currency) public view returns (uint supply) {\n      return lib.getTokenSupply(currency);\n    }\n\n    /**\n     * @notice Updates account status. false: frozen, true: un-frozen\n     * @param account Sepcified account address\n     * @param isAllowed Frozen status\n     * @param issuerFirm Name of the issuer firm with authority on account holder;\n     * @return { \"success\": \"Returns true if successfully called from another contract\"}\n     */\n    function freezeAccount(address account, bool isAllowed, string issuerFirm) public onlyAuthority(issuerFirm, msg.sender) returns (bool success) {\n        // @notice updates account status\n        // @dev !!! mutates storage state\n        require(\n          lib.setAccountStatus(account, isAllowed, issuerFirm),\n          \"Error: Unable to freeze account. Please check issuerFirm and firm authority are registered\"\n        );\n        return true;\n    }\n\n    /**\n     * @notice Sets approval status of specified account\n     * @param account Sepcified account address\n     * @param isApproved Frozen status\n     * @param issuerFirm Name of the issuer firm with authority on account holder;\n     * @return { \"success\": \"Returns true if successfully called from another contract\"}\n     */\n    function approveKYC(address account, bool isApproved, uint limit, string issuerFirm) public onlyAuthority(issuerFirm, msg.sender) returns (bool success) {\n        // @notice updates kyc approval status\n        // @dev !!! mutates storage state\n        require(\n          lib.setKYCApproval(account, isApproved, issuerFirm),\n          \"Error: Unable to approve account. Please check issuerFirm and firm authority are registered\"\n        );\n        // @notice updates account statuss\n        // @dev !!! mutates storage state\n        require(\n          lib.setAccountStatus(account, isApproved, issuerFirm),\n          \"Error: Unable to set account status. Please check issuerFirm and firm authority are registered\"\n        );\n        require(\n          lib.setAccountSpendingLimit(account, limit),\n          \"Error: Unable to set initial spending limit for account. Please check issuerFirm and firm authority are registered\"\n        );\n        require(\n          lib.setAccountSpendingPeriod(account, (now + 86400)),\n          \"Error: Unable to set spending period for account. Please check issuerFirm and firm authority are registered\"\n        );\n        return true;\n    }\n\n    /**\n     * @notice Approves account and deposits specified amount of given currency\n     * @param currency Currency symbol of amount to be deposited;\n     * @param account Ethereum address of account holder;\n     * @param amount Deposit amount for account holder;\n     * @param issuerFirm Name of the issuer firm with authority on account holder;\n     * @return { \"success\": \"Returns true if successfully called from another contract\"}\n     */\n    function approveKYCAndDeposit(string currency, address account, uint amount, uint limit, string issuerFirm) public onlyAuthority(issuerFirm, msg.sender) returns (bool success) {\n        /// @notice updates kyc approval status\n        /// @dev !!! mutates storage state\n        require(\n          lib.setKYCApproval(account, true, issuerFirm),\n          \"Error: Unable to approve account. Please check issuerFirm and firm authority are registered\"\n        );\n        /// @notice updates kyc approval status\n        /// @dev !!! mutates storage state\n        require(\n          lib.setAccountStatus(account, true, issuerFirm),\n          \"Error: Unable to set account status. Please check issuerFirm and firm authority are registered\"\n        );\n        require(\n          lib.deposit(currency, account, amount, issuerFirm),\n          \"Error: Unable to deposit funds. Please check issuerFirm and firm authority are registered\"\n        );\n        require(\n          lib.setAccountSpendingLimit(account, limit),\n          \"Error: Unable to set initial spending limit for account. Please check issuerFirm and firm authority are registered\"\n        );\n        require(\n          lib.setAccountSpendingPeriod(account, (now + 86400)),\n          \"Error: Unable to set spending period for account. Please check issuerFirm and firm authority are registered\"\n        );\n        return true;\n    }\n\n    /**\n     * @notice Sets the spending limit for a given account\n     * @param account Ethereum address of account holder;\n     * @param limit Spending limit amount for account;\n     * @param issuerFirm Name of the issuer firm with authority on account holder;\n     * @return { \"success\": \"Returns true if successfully called from another contract\"}\n     */\n    function setAccountSpendingLimit(address account, uint limit, string issuerFirm) public onlyAuthority(issuerFirm, msg.sender) returns (bool success) {\n      require(\n        lib.setAccountSpendingLimit(account, limit),\n        \"Error: Unable to set initial spending limit for account. Please check issuerFirm and firm authority are registered\"\n      );\n      return true;\n    }\n\n    /**\n     * @notice Returns the periodic remaining spending amount for an account\n     * @param  account Ethereum address of account holder;\n     * @return {\"spendingRemaining\" : \"Returns the remaining spending amount for the account\"}\n     */\n    function getAccountSpendingRemaining(address account) public view returns (uint spendingRemaining) {\n      return lib.getAccountSpendingRemaining(account);\n    }\n\n    /**\n     * @notice Return the spending limit for an account\n     * @param  account Ethereum address of account holder\n     * @return {\"spendingLimit\" : \"Returns the remaining daily spending limit of the account\"}\n     */\n    function getAccountSpendingLimit(address account) public view returns (uint spendingLimit) {\n      return lib.getAccountSpendingLimit(account);\n    }\n\n    /**\n     * @notice Set the foreign currency exchange rate to USD in basis points\n     * @dev NOTE: This value should always be relative to USD pair; e.g. JPY/USD, GBP/USD, etc.\n     * @param currency The TokenIO currency symbol (e.g. USDx, JPYx, GBPx)\n     * @param bpsRate Basis point rate of foreign currency exchange rate to USD\n     * @param issuerFirm Firm setting the foreign currency exchange\n     * @return { \"success\": \"Returns true if successfully called from another contract\"}\n     */\n    function setFxBpsRate(string currency, uint bpsRate, string issuerFirm) public onlyAuthority(issuerFirm, msg.sender) returns (bool success) {\n      require(\n        lib.setFxUSDBPSRate(currency, bpsRate),\n        \"Error: Unable to set FX USD basis points rate. Please ensure issuerFirm is authorized\"\n      );\n      return true;\n    }\n\n    /**\n     * @notice Return the foreign currency USD exchanged amount\n     * @param currency The TokenIO currency symbol (e.g. USDx, JPYx, GBPx)\n     * @param fxAmount Amount of foreign currency to exchange into USD\n     * @return {\"usdAmount\" : \"Returns the foreign currency amount in USD\"}\n     */\n    function getFxUSDAmount(string currency, uint fxAmount) public view returns (uint usdAmount) {\n      return lib.getFxUSDAmount(currency, fxAmount);\n    }\n\n    /**\n     * @notice Updates to new forwarded account\n     * @param originalAccount [address]\n     * @param updatedAccount [address]\n     * @param issuerFirm Name of the issuer firm with authority on account holder;\n     * @return { \"success\": \"Returns true if successfully called from another contract\"}\n     */\n    function approveForwardedAccount(address originalAccount, address updatedAccount, string issuerFirm) public onlyAuthority(issuerFirm, msg.sender) returns (bool success) {\n        // @notice updatesa forwarded account\n        // @dev !!! mutates storage state\n        require(\n          lib.setForwardedAccount(originalAccount, updatedAccount),\n          \"Error: Unable to set forwarded address for account. Please check issuerFirm and firm authority are registered\"\n        );\n        return true;\n    }\n\n    /**\n     * @notice Issues a specified account to recipient account of a given currency\n     * @param currency [string] currency symbol\n     * @param amount [uint] issuance amount\n     * @param issuerFirm Name of the issuer firm with authority on account holder;\n     * @return { \"success\": \"Returns true if successfully called from another contract\"}\n     */\n    function deposit(string currency, address account, uint amount, string issuerFirm) public onlyAuthority(issuerFirm, msg.sender) returns (bool success) {\n        require(\n          lib.verifyAccount(account),\n          \"Error: Account is not verified!\"\n        );\n        // @notice depositing tokens to account\n        // @dev !!! mutates storage state\n        require(\n          lib.deposit(currency, account, amount, issuerFirm),\n          \"Error: Unable to deposit funds. Please check issuerFirm and firm authority are registered\"\n        );\n        return true;\n    }\n\n    /**\n     * @notice Withdraws a specified amount of tokens of a given currency\n     * @param currency Currency symbol\n     * @param account Ethereum address of account holder\n     * @param amount Issuance amount\n     * @param issuerFirm Name of the issuer firm with authority on account holder\n     * @return { \"success\": \"Returns true if successfully called from another contract\"}\n     */\n    function withdraw(string currency, address account, uint amount, string issuerFirm) public onlyAuthority(issuerFirm, msg.sender) returns (bool success) {\n        require(\n          lib.verifyAccount(account),\n          \"Error: Account is not verified!\"\n        );\n        // @notice withdrawing from account\n        // @dev !!! mutates storage state\n        require(\n          lib.withdraw(currency, account, amount, issuerFirm),\n          \"Error: Unable to withdraw funds. Please check issuerFirm and firm authority are registered and have issued funds that can be withdrawn\"\n        );\n        return true;\n    }\n\n    /**\n     * @notice Ensure only authorized currency firms and authorities can modify protected methods\n     * @dev authority must be registered to an authorized firm to use protected methods\n     */\n    modifier onlyAuthority(string firmName, address authority) {\n        // @notice throws if authority account is not registred to the given firm\n        require(\n          lib.isRegisteredToFirm(firmName, authority),\n          \"Error: issuerFirm and/or firm authority are not registered\"\n        );\n        _;\n    }\n\n}\n",
  "sourcePath": "/Users/ryan/Projects/TokenInc/tokeninc-smart-contracts/contracts/TokenIOCurrencyAuthority.sol",
  "compiler": {
    "name": "solc",
    "version": "0.4.24+commit.e67f0147.Emscripten.clang"
  },
  "schemaVersion": "2.0.1",
  "updatedAt": "2018-09-18T18:57:45.604Z"
}