{
  "contractName": "TokenIOFX",
  "abi": [
    {
      "constant": false,
      "inputs": [
        {
          "name": "allowedAddress",
          "type": "address"
        }
      ],
      "name": "allowOwnership",
      "outputs": [
        {
          "name": "success",
          "type": "bool"
        }
      ],
      "payable": false,
      "stateMutability": "nonpayable",
      "type": "function"
    },
    {
      "constant": false,
      "inputs": [
        {
          "name": "allowedAddress",
          "type": "address"
        }
      ],
      "name": "removeOwnership",
      "outputs": [
        {
          "name": "success",
          "type": "bool"
        }
      ],
      "payable": false,
      "stateMutability": "nonpayable",
      "type": "function"
    },
    {
      "constant": true,
      "inputs": [
        {
          "name": "",
          "type": "address"
        }
      ],
      "name": "owner",
      "outputs": [
        {
          "name": "",
          "type": "bool"
        }
      ],
      "payable": false,
      "stateMutability": "view",
      "type": "function"
    },
    {
      "constant": false,
      "inputs": [
        {
          "name": "newOwner",
          "type": "address"
        }
      ],
      "name": "transferOwnership",
      "outputs": [
        {
          "name": "success",
          "type": "bool"
        }
      ],
      "payable": false,
      "stateMutability": "nonpayable",
      "type": "function"
    },
    {
      "inputs": [
        {
          "name": "_storageContract",
          "type": "address"
        }
      ],
      "payable": false,
      "stateMutability": "nonpayable",
      "type": "constructor"
    },
    {
      "anonymous": false,
      "inputs": [
        {
          "indexed": true,
          "name": "previousOwner",
          "type": "address"
        },
        {
          "indexed": true,
          "name": "newOwner",
          "type": "address"
        }
      ],
      "name": "OwnershipTransferred",
      "type": "event"
    },
    {
      "anonymous": false,
      "inputs": [
        {
          "indexed": true,
          "name": "allowedAddress",
          "type": "address"
        }
      ],
      "name": "AllowOwnership",
      "type": "event"
    },
    {
      "anonymous": false,
      "inputs": [
        {
          "indexed": true,
          "name": "allowedAddress",
          "type": "address"
        }
      ],
      "name": "RevokeOwnership",
      "type": "event"
    },
    {
      "constant": false,
      "inputs": [
        {
          "name": "requester",
          "type": "address"
        },
        {
          "name": "symbolA",
          "type": "string"
        },
        {
          "name": "symbolB",
          "type": "string"
        },
        {
          "name": "valueA",
          "type": "uint256"
        },
        {
          "name": "valueB",
          "type": "uint256"
        },
        {
          "name": "sigV",
          "type": "uint8"
        },
        {
          "name": "sigR",
          "type": "bytes32"
        },
        {
          "name": "sigS",
          "type": "bytes32"
        },
        {
          "name": "expiration",
          "type": "uint256"
        }
      ],
      "name": "swap",
      "outputs": [
        {
          "name": "success",
          "type": "bool"
        }
      ],
      "payable": false,
      "stateMutability": "nonpayable",
      "type": "function"
    }
  ],
  "bytecode": "0x608060405234801561001057600080fd5b50604051602080611ee3833981016040908152905133600090815260208190529182208054600160ff19918216811783558054600160a060020a031916600160a060020a039094169390931783558154169091179055611e6d90819061007690396000f3006080604052600436106100535763ffffffff60e060020a6000350416634bbc142c8114610058578063666a34271461008d578063666e1b39146100ae578063987c6b9d146100cf578063f2fde38b14610194575b600080fd5b34801561006457600080fd5b50610079600160a060020a03600435166101b5565b604080519115158252519081900360200190f35b34801561009957600080fd5b50610079600160a060020a0360043516610295565b3480156100ba57600080fd5b50610079600160a060020a0360043516610372565b3480156100db57600080fd5b5060408051602060046024803582810135601f8101859004850286018501909652858552610079958335600160a060020a031695369560449491939091019190819084018382808284375050604080516020601f89358b018035918201839004830284018301909452808352979a9998810197919650918201945092508291508401838280828437509497505084359550505060208301359260ff60408201351692506060810135915060808101359060a00135610387565b3480156101a057600080fd5b50610079600160a060020a0360043516610454565b3360009081526020819052604081205460ff161515610244576040805160e560020a62461bcd02815260206004820152603960248201527f4572726f723a205472616e73616374696f6e2073656e646572206973206e6f7460448201527f20616c6c6f7765642062792074686520636f6e74726163742e00000000000000606482015290519081900360840190fd5b600160a060020a038216600081815260208190526040808220805460ff19166001179055517f1c965cca064792c08083e8746b9062155a2f163d9f9ddab08196d5b2e3a818c59190a2506001919050565b3360009081526020819052604081205460ff161515610324576040805160e560020a62461bcd02815260206004820152603960248201527f4572726f723a205472616e73616374696f6e2073656e646572206973206e6f7460448201527f20616c6c6f7765642062792074686520636f6e74726163742e00000000000000606482015290519081900360840190fd5b600160a060020a038216600081815260208190526040808220805460ff19169055517f2d760b10f59f9d65a092cfebe73f70fd0a4e19e59791ffd61ee3057a0010ad989190a2506001919050565b60006020819052908152604090205460ff1681565b60006103a260018b8b8b8b8b8b8b8b8b63ffffffff6105b216565b1515610444576040805160e560020a62461bcd02815260206004820152604760248201527f4572726f723a20556e61626c6520746f20706572666f726d2061746f6d69632060448201527f63757272656e637920737761702e20506c6561736520636865636b207061726160648201527f6d65746572732e00000000000000000000000000000000000000000000000000608482015290519081900360a40190fd5b5060019998505050505050505050565b3360009081526020819052604081205460ff1615156104e3576040805160e560020a62461bcd02815260206004820152603960248201527f4572726f723a205472616e73616374696f6e2073656e646572206973206e6f7460448201527f20616c6c6f7765642062792074686520636f6e74726163742e00000000000000606482015290519081900360840190fd5b600160a060020a0382161515610543576040805160e560020a62461bcd02815260206004820152601f60248201527f4572726f723a206e65774f776e65722063616e6e6f74206265206e756c6c2100604482015290519081900360640190fd5b604051600160a060020a0383169033907f8be0079c531659141344cd1fd0a4f28419497f9722a3daafe3b4186f6b6457e090600090a350600160a060020a03166000908152602081905260408082208054600160ff199182168117909255338452919092208054909116905590565b6000808a8a8a8a8a876040516020018087600160a060020a0316600160a060020a03166c0100000000000000000000000002815260140186805190602001908083835b602083106106145780518252601f1990920191602091820191016105f5565b51815160209384036101000a600019018019909216911617905288519190930192880191508083835b6020831061065c5780518252601f19909201916020918201910161063d565b6001836020036101000a03801982511681845116808217855250505050505090500184815260200183815260200182815260200196505050505050506040516020818303038152906040526040518082805190602001908083835b602083106106d65780518252601f1990920191602091820191016106b7565b6001836020036101000a038019825116818451168082178552505050505050905001915050604051809103902090506107108c338d610c3c565b151561078c576040805160e560020a62461bcd02815260206004820152603960248201527f4572726f723a204f6e6c79207665726966696564206163636f756e747320636160448201527f6e20706572666f726d2063757272656e63792073776170732e00000000000000606482015290519081900360840190fd5b6107968c82610da0565b1515610812576040805160e560020a62461bcd02815260206004820152603560248201527f4572726f723a204661696c656420746f20736574207472616e73616374696f6e60448201527f2073746174757320746f2066756c66696c6c65642e0000000000000000000000606482015290519081900360840190fd5b4283101561086a576040805160e560020a62461bcd02815260206004820152601f60248201527f4572726f723a205472616e73616374696f6e2068617320657870697265642100604482015290519081900360640190fd5b604080516000808252602080830180855285905260ff8a168385015260608301899052608083018890529251600160a060020a038f169360019360a0808201949293601f198101939281900390910191865af11580156108ce573d6000803e3d6000fd5b50505060206040510351600160a060020a0316141515610984576040805160e560020a62461bcd02815260206004820152605660248201527f4572726f723a204164647265737320646572697665642066726f6d207472616e60448201527f73616374696f6e207369676e617475726520646f6573206e6f74206d6174636860648201527f2074686520726571756573746572206164647265737300000000000000000000608482015290519081900360a40190fd5b6109c78c8b338e8c6040805190810160405280600381526020017f307830000000000000000000000000000000000000000000000000000000000081525061105d565b1515610a43576040805160e560020a62461bcd02815260206004820152602b60248201527f4572726f723a20556e61626c6520746f207472616e736665722066756e64732060448201527f746f206163636f756e742e000000000000000000000000000000000000000000606482015290519081900360840190fd5b610a868c8a8d338b6040805190810160405280600381526020017f307830000000000000000000000000000000000000000000000000000000000081525061105d565b1515610b02576040805160e560020a62461bcd02815260206004820152602b60248201527f4572726f723a20556e61626c6520746f207472616e736665722066756e64732060448201527f746f206163636f756e742e000000000000000000000000000000000000000000606482015290519081900360840190fd5b7f8afc838de412aaa0858b29e225f1811126bc93a1e25da13505909c403d2097d18a8a8a8a87866040518080602001806020018781526020018681526020018581526020018460001916600019168152602001838103835289818151815260200191508051906020019080838360005b83811015610b8a578181015183820152602001610b72565b50505050905090810190601f168015610bb75780820380516001836020036101000a031916815260200191505b5083810382528851815288516020918201918a019080838360005b83811015610bea578181015183820152602001610bd2565b50505050905090810190601f168015610c175780820380516001836020036101000a031916815260200191505b509850505050505050505060405180910390a15060019b9a5050505050505050505050565b6000610c488484611817565b1515610cea576040805160e560020a62461bcd02815260206004820152605a60248201527f4572726f723a204163636f756e74206973206e6f74207665726966696564206660448201527f6f72206f7065726174696f6e2e20506c6561736520656e73757265206163636f60648201527f756e7420686173206265656e204b594320617070726f7665642e000000000000608482015290519081900360a40190fd5b610cf48483611817565b1515610d96576040805160e560020a62461bcd02815260206004820152605a60248201527f4572726f723a204163636f756e74206973206e6f74207665726966696564206660448201527f6f72206f7065726174696f6e2e20506c6561736520656e73757265206163636f60648201527f756e7420686173206265656e204b594320617070726f7665642e000000000000608482015290519081900360a40190fd5b5060019392505050565b6000808260405160200180807f74782e737461747573000000000000000000000000000000000000000000000081525060090182600019166000191681526020019150506040516020818303038152906040526040518082805190602001908083835b60208310610e225780518252601f199092019160209182019101610e03565b6001836020036101000a03801982511681845116808217855250505050505090500191505060405180910390209050610e5b848461192e565b15610efc576040805160e560020a62461bcd02815260206004820152604e60248201527f4572726f723a205472616e73616374696f6e20737461747573206d757374206260448201527f652066616c7365206265666f72652073657474696e6720746865207472616e7360648201527f616374696f6e207374617475732e000000000000000000000000000000000000608482015290519081900360a40190fd5b8354604080517fabfdcced00000000000000000000000000000000000000000000000000000000815260048101849052600160248201529051600160a060020a039092169163abfdcced916044808201926020929091908290030181600087803b158015610f6957600080fd5b505af1158015610f7d573d6000803e3d6000fd5b505050506040513d6020811015610f9357600080fd5b50511515610d96576040805160e560020a62461bcd02815260206004820152606960248201527f4572726f723a20556e61626c6520746f207365742073746f726167652076616c60448201527f75652e20506c6561736520656e7375726520636f6e747261637420686173206160648201527f6c6c6f776564207065726d697373696f6e7320776974682073746f726167652060848201527f636f6e74726163742e000000000000000000000000000000000000000000000060a482015290519081900360c40190fd5b60008080600160a060020a03861615156110e7576040805160e560020a62461bcd02815260206004820152602560248201527f4572726f723a2060746f602061646472657373206d757374206e6f742062652060448201527f6e756c6c2e000000000000000000000000000000000000000000000000000000606482015290519081900360840190fd5b876110f28a89611a71565b60405160200180807f746f6b656e2e62616c616e636500000000000000000000000000000000000000815250600d0183805190602001908083835b6020831061114c5780518252601f19909201916020918201910161112d565b6001836020036101000a03801982511681845116808217855250505050505090500182600160a060020a0316600160a060020a03166c01000000000000000000000000028152601401925050506040516020818303038152906040526040518082805190602001908083835b602083106111d75780518252601f1990920191602091820191016111b8565b6001836020036101000a03801982511681845116808217855250505050505090500191505060405180910390209150876112118a88611a71565b60405160200180807f746f6b656e2e62616c616e636500000000000000000000000000000000000000815250600d0183805190602001908083835b6020831061126b5780518252601f19909201916020918201910161124c565b6001836020036101000a03801982511681845116808217855250505050505090500182600160a060020a0316600160a060020a03166c01000000000000000000000000028152601401925050506040516020818303038152906040526040518082805190602001908083835b602083106112f65780518252601f1990920191602091820191016112d7565b51815160209384036101000a6000190180199092169116179052604080519290940182900382208f547fbd02d0f5000000000000000000000000000000000000000000000000000000008452600484018a90529451909750600160a060020a03909416955063e2a4853a945087936113c793508b92879263bd02d0f5926024808401938290030181600087803b15801561138f57600080fd5b505af11580156113a3573d6000803e3d6000fd5b505050506040513d60208110156113b957600080fd5b50519063ffffffff611bec16565b6040518363ffffffff1660e060020a02815260040180836000191660001916815260200182815260200192505050602060405180830381600087803b15801561140f57600080fd5b505af1158015611423573d6000803e3d6000fd5b505050506040513d602081101561143957600080fd5b50511515611503576040805160e560020a62461bcd02815260206004820152606960248201527f4572726f723a20556e61626c6520746f207365742073746f726167652076616c60448201527f75652e20506c6561736520656e7375726520636f6e747261637420686173206160648201527f6c6c6f776564207065726d697373696f6e7320776974682073746f726167652060848201527f636f6e74726163742e000000000000000000000000000000000000000000000060a482015290519081900360c40190fd5b8854604080517fbd02d0f5000000000000000000000000000000000000000000000000000000008152600481018490529051600160a060020a039092169163e2a4853a9184916115b0918a91869163bd02d0f59160248083019260209291908290030181600087803b15801561157857600080fd5b505af115801561158c573d6000803e3d6000fd5b505050506040513d60208110156115a257600080fd5b50519063ffffffff611c7116565b6040518363ffffffff1660e060020a02815260040180836000191660001916815260200182815260200192505050602060405180830381600087803b1580156115f857600080fd5b505af115801561160c573d6000803e3d6000fd5b505050506040513d602081101561162257600080fd5b505115156116ec576040805160e560020a62461bcd02815260206004820152606960248201527f4572726f723a20556e61626c6520746f207365742073746f726167652076616c60448201527f75652e20506c6561736520656e7375726520636f6e747261637420686173206160648201527f6c6c6f776564207065726d697373696f6e7320776974682073746f726167652060848201527f636f6e74726163742e000000000000000000000000000000000000000000000060a482015290519081900360c40190fd5b85600160a060020a031687600160a060020a03167f6f3dcde00ed34d4f404b335a65d18fb4adf74f5b817aa46f5d7c4f05c6d1e96e8a8888604051808060200184815260200180602001838103835286818151815260200191508051906020019080838360005b8381101561176b578181015183820152602001611753565b50505050905090810190601f1680156117985780820380516001836020036101000a031916815260200191505b50838103825284518152845160209182019186019080838360005b838110156117cb5781810151838201526020016117b3565b50505050905090810190601f1680156117f85780820380516001836020036101000a031916815260200191505b509550505050505060405180910390a350600198975050505050505050565b60006118238383611cfb565b151561189f576040805160e560020a62461bcd02815260206004820152602a60248201527f4572726f723a204163636f756e7420646f6573206e6f742068617665204b594360448201527f20617070726f76616c2e00000000000000000000000000000000000000000000606482015290519081900360840190fd5b6118a98383611d9e565b1515611925576040805160e560020a62461bcd02815260206004820152602481018290527f4572726f723a204163636f756e7420737461747573206973206066616c73656060448201527f2e204163636f756e7420737461747573206d757374206265206074727565602e606482015290519081900360840190fd5b50600192915050565b6000808260405160200180807f74782e737461747573000000000000000000000000000000000000000000000081525060090182600019166000191681526020019150506040516020818303038152906040526040518082805190602001908083835b602083106119b05780518252601f199092019160209182019101611991565b51815160209384036101000a6000190180199092169116179052604080519290940182900382208a547f7ae1cfca000000000000000000000000000000000000000000000000000000008452600484018290529451909750600160a060020a039094169550637ae1cfca945060248083019491935090918290030181600087803b158015611a3d57600080fd5b505af1158015611a51573d6000803e3d6000fd5b505050506040513d6020811015611a6757600080fd5b5051949350505050565b60008060008360405160200180807f6d61737465722e6163636f756e74000000000000000000000000000000000000815250600e0182600160a060020a0316600160a060020a03166c010000000000000000000000000281526014019150506040516020818303038152906040526040518082805190602001908083835b60208310611b0e5780518252601f199092019160209182019101611aef565b51815160209384036101000a6000190180199092169116179052604080519290940182900382208b547f21f8a721000000000000000000000000000000000000000000000000000000008452600484018290529451909850600160a060020a0390941695506321f8a721945060248083019491935090918290030181600087803b158015611b9b57600080fd5b505af1158015611baf573d6000803e3d6000fd5b505050506040513d6020811015611bc557600080fd5b50519050600160a060020a03811615611be057809250611be4565b8392505b505092915050565b600082821115611c6b576040805160e560020a62461bcd028152602060048201526024808201527f4572726f723a20556e73616665207375627472616374696f6e206f706572617460448201527f696f6e2100000000000000000000000000000000000000000000000000000000606482015290519081900360840190fd5b50900390565b600082820183811015611cf4576040805160e560020a62461bcd02815260206004820152602160248201527f4572726f723a20556e73616665206164646974696f6e206f7065726174696f6e60448201527f2100000000000000000000000000000000000000000000000000000000000000606482015290519081900360840190fd5b9392505050565b600080611d088484611a71565b60405160200180807f6163636f756e742e6b7963000000000000000000000000000000000000000000815250600b0182600160a060020a0316600160a060020a03166c01000000000000000000000000028152601401915050604051602081830303815290604052604051808280519060200190808383602083106119b05780518252601f199092019160209182019101611991565b600080611dab8484611a71565b60405160200180807f6163636f756e742e616c6c6f7765640000000000000000000000000000000000815250600f0182600160a060020a0316600160a060020a03166c01000000000000000000000000028152601401915050604051602081830303815290604052604051808280519060200190808383602083106119b05780518252601f1990920191602091820191016119915600a165627a7a72305820ee14a97fa29abf13ca394e57c4b446c5bc87af092005db37c705fda2a6da93920029",
  "source": "pragma solidity 0.4.24;\n\nimport \"./Ownable.sol\";\nimport \"./TokenIOLib.sol\";\nimport \"./TokenIOStorage.sol\";\n\n\n/**\nCOPYRIGHT 2018 Token, Inc.\n\nTHE SOFTWARE IS PROVIDED \"AS IS\", WITHOUT WARRANTY OF ANY KIND, EXPRESS OR IMPLIED,\nINCLUDING BUT NOT LIMITED TO THE WARRANTIES OF MERCHANTABILITY, FITNESS FOR A\nPARTICULAR PURPOSE AND NONINFRINGEMENT. IN NO EVENT SHALL THE AUTHORS OR\nCOPYRIGHT HOLDERS BE LIABLE FOR ANY CLAIM, DAMAGES OR OTHER LIABILITY, WHETHER\nIN AN ACTION OF CONTRACT, TORT OR OTHERWISE, ARISING FROM, OUT OF OR IN CONNECTION\nWITH THE SOFTWARE OR THE USE OR OTHER DEALINGS IN THE SOFTWARE.\n\n\n@title Currency FX Contract for Token, Inc. Smart Money System\n\n@author Ryan Tate <ryan.tate@token.io>, Sean Pollock <sean.pollock@token.io>\n\n@notice Contract uses generalized storage contract, `TokenIOStorage`, for\nupgradeability of interface contract.\n\n@dev In the event that the main contract becomes deprecated, the upgraded contract\nwill be set as the owner of this contract, and use this contract's storage to\nmaintain data consistency between contract.\n\n*/\n\ncontract TokenIOFX is Ownable {\n\n  /// @dev Set reference to TokenIOLib interface which proxies to TokenIOStorage\n  using TokenIOLib for TokenIOLib.Data;\n  TokenIOLib.Data lib;\n\n\n  /**\n\t* @notice Constructor method for TokenIOFX contract\n\t* @param _storageContract Address of TokenIOStorage contract\n\t*/\n\tconstructor(address _storageContract) public {\n\t\t\t/// @dev Set the storage contract for the interface\n\t\t\t/// @dev NOTE: This contract will be unable to use the storage constract until\n\t\t\t/// @dev contract address is authorized with the storage contract\n\t\t\t/// @dev Once authorized, Use the `setParams` method to set storage values\n\t\t\tlib.Storage = TokenIOStorage(_storageContract);\n\n\t\t\t/// @dev set owner to contract initiator\n\t\t\towner[msg.sender] = true;\n\t}\n\n\n  /**\n   * @notice Accepts a signed fx request to swap currency pairs at a given amount;\n   * @dev This method can be called directly between peers.\n   * @param  requester address Requester is the orginator of the offer and must\n   * match the signature of the payload submitted by the fulfiller\n   * @param  symbolA    Symbol of the currency desired\n   * @param  symbolB    Symbol of the currency offered\n   * @param  valueA     Amount of the currency desired\n   * @param  valueB     Amount of the currency offered\n   * @param  sigV       Ethereum secp256k1 signature V value; used by ecrecover()\n   * @param  sigR       Ethereum secp256k1 signature R value; used by ecrecover()\n   * @param  sigS       Ethereum secp256k1 signature S value; used by ecrecover()\n   * @param  expiration Expiration of the offer; Offer is good until expired\n   * @return {\"success\" : \"Returns true if successfully called from another contract\"}\n   */\n  function swap(\n    address requester,\n    string symbolA,\n    string symbolB,\n    uint valueA,\n    uint valueB,\n    uint8 sigV,\n    bytes32 sigR,\n    bytes32 sigS,\n    uint expiration\n  ) public returns (bool success) {\n    require(\n      lib.execSwap(requester, symbolA, symbolB, valueA, valueB, sigV, sigR, sigS, expiration),\n      \"Error: Unable to perform atomic currency swap. Please check parameters.\"\n    );\n    return true;\n  }\n\n}\n",
  "sourcePath": "/Users/ryan/Projects/TokenInc/tokeninc-smart-contracts/contracts/TokenIOFX.sol",
  "compiler": {
    "name": "solc",
    "version": "0.4.24+commit.e67f0147.Emscripten.clang"
  },
  "schemaVersion": "2.0.1",
  "updatedAt": "2018-09-18T18:57:45.577Z"
}