{
  "contractName": "TokenIOStorage",
  "abi": [
    {
      "constant": false,
      "inputs": [
        {
          "name": "allowedAddress",
          "type": "address"
        }
      ],
      "name": "allowOwnership",
      "outputs": [
        {
          "name": "success",
          "type": "bool"
        }
      ],
      "payable": false,
      "stateMutability": "nonpayable",
      "type": "function"
    },
    {
      "constant": false,
      "inputs": [
        {
          "name": "allowedAddress",
          "type": "address"
        }
      ],
      "name": "removeOwnership",
      "outputs": [
        {
          "name": "success",
          "type": "bool"
        }
      ],
      "payable": false,
      "stateMutability": "nonpayable",
      "type": "function"
    },
    {
      "constant": true,
      "inputs": [
        {
          "name": "",
          "type": "address"
        }
      ],
      "name": "owner",
      "outputs": [
        {
          "name": "",
          "type": "bool"
        }
      ],
      "payable": false,
      "stateMutability": "view",
      "type": "function"
    },
    {
      "constant": false,
      "inputs": [
        {
          "name": "newOwner",
          "type": "address"
        }
      ],
      "name": "transferOwnership",
      "outputs": [
        {
          "name": "success",
          "type": "bool"
        }
      ],
      "payable": false,
      "stateMutability": "nonpayable",
      "type": "function"
    },
    {
      "inputs": [],
      "payable": false,
      "stateMutability": "nonpayable",
      "type": "constructor"
    },
    {
      "anonymous": false,
      "inputs": [
        {
          "indexed": true,
          "name": "previousOwner",
          "type": "address"
        },
        {
          "indexed": true,
          "name": "newOwner",
          "type": "address"
        }
      ],
      "name": "OwnershipTransferred",
      "type": "event"
    },
    {
      "anonymous": false,
      "inputs": [
        {
          "indexed": true,
          "name": "allowedAddress",
          "type": "address"
        }
      ],
      "name": "AllowOwnership",
      "type": "event"
    },
    {
      "anonymous": false,
      "inputs": [
        {
          "indexed": true,
          "name": "allowedAddress",
          "type": "address"
        }
      ],
      "name": "RevokeOwnership",
      "type": "event"
    },
    {
      "constant": false,
      "inputs": [
        {
          "name": "_key",
          "type": "bytes32"
        },
        {
          "name": "_value",
          "type": "address"
        }
      ],
      "name": "setAddress",
      "outputs": [
        {
          "name": "success",
          "type": "bool"
        }
      ],
      "payable": false,
      "stateMutability": "nonpayable",
      "type": "function"
    },
    {
      "constant": false,
      "inputs": [
        {
          "name": "_key",
          "type": "bytes32"
        },
        {
          "name": "_value",
          "type": "uint256"
        }
      ],
      "name": "setUint",
      "outputs": [
        {
          "name": "success",
          "type": "bool"
        }
      ],
      "payable": false,
      "stateMutability": "nonpayable",
      "type": "function"
    },
    {
      "constant": false,
      "inputs": [
        {
          "name": "_key",
          "type": "bytes32"
        },
        {
          "name": "_value",
          "type": "string"
        }
      ],
      "name": "setString",
      "outputs": [
        {
          "name": "success",
          "type": "bool"
        }
      ],
      "payable": false,
      "stateMutability": "nonpayable",
      "type": "function"
    },
    {
      "constant": false,
      "inputs": [
        {
          "name": "_key",
          "type": "bytes32"
        },
        {
          "name": "_value",
          "type": "bytes"
        }
      ],
      "name": "setBytes",
      "outputs": [
        {
          "name": "success",
          "type": "bool"
        }
      ],
      "payable": false,
      "stateMutability": "nonpayable",
      "type": "function"
    },
    {
      "constant": false,
      "inputs": [
        {
          "name": "_key",
          "type": "bytes32"
        },
        {
          "name": "_value",
          "type": "bool"
        }
      ],
      "name": "setBool",
      "outputs": [
        {
          "name": "success",
          "type": "bool"
        }
      ],
      "payable": false,
      "stateMutability": "nonpayable",
      "type": "function"
    },
    {
      "constant": false,
      "inputs": [
        {
          "name": "_key",
          "type": "bytes32"
        },
        {
          "name": "_value",
          "type": "int256"
        }
      ],
      "name": "setInt",
      "outputs": [
        {
          "name": "success",
          "type": "bool"
        }
      ],
      "payable": false,
      "stateMutability": "nonpayable",
      "type": "function"
    },
    {
      "constant": false,
      "inputs": [
        {
          "name": "_key",
          "type": "bytes32"
        }
      ],
      "name": "deleteAddress",
      "outputs": [
        {
          "name": "success",
          "type": "bool"
        }
      ],
      "payable": false,
      "stateMutability": "nonpayable",
      "type": "function"
    },
    {
      "constant": false,
      "inputs": [
        {
          "name": "_key",
          "type": "bytes32"
        }
      ],
      "name": "deleteUint",
      "outputs": [
        {
          "name": "success",
          "type": "bool"
        }
      ],
      "payable": false,
      "stateMutability": "nonpayable",
      "type": "function"
    },
    {
      "constant": false,
      "inputs": [
        {
          "name": "_key",
          "type": "bytes32"
        }
      ],
      "name": "deleteString",
      "outputs": [
        {
          "name": "success",
          "type": "bool"
        }
      ],
      "payable": false,
      "stateMutability": "nonpayable",
      "type": "function"
    },
    {
      "constant": false,
      "inputs": [
        {
          "name": "_key",
          "type": "bytes32"
        }
      ],
      "name": "deleteBytes",
      "outputs": [
        {
          "name": "success",
          "type": "bool"
        }
      ],
      "payable": false,
      "stateMutability": "nonpayable",
      "type": "function"
    },
    {
      "constant": false,
      "inputs": [
        {
          "name": "_key",
          "type": "bytes32"
        }
      ],
      "name": "deleteBool",
      "outputs": [
        {
          "name": "success",
          "type": "bool"
        }
      ],
      "payable": false,
      "stateMutability": "nonpayable",
      "type": "function"
    },
    {
      "constant": false,
      "inputs": [
        {
          "name": "_key",
          "type": "bytes32"
        }
      ],
      "name": "deleteInt",
      "outputs": [
        {
          "name": "success",
          "type": "bool"
        }
      ],
      "payable": false,
      "stateMutability": "nonpayable",
      "type": "function"
    },
    {
      "constant": true,
      "inputs": [
        {
          "name": "_key",
          "type": "bytes32"
        }
      ],
      "name": "getAddress",
      "outputs": [
        {
          "name": "_value",
          "type": "address"
        }
      ],
      "payable": false,
      "stateMutability": "view",
      "type": "function"
    },
    {
      "constant": true,
      "inputs": [
        {
          "name": "_key",
          "type": "bytes32"
        }
      ],
      "name": "getUint",
      "outputs": [
        {
          "name": "_value",
          "type": "uint256"
        }
      ],
      "payable": false,
      "stateMutability": "view",
      "type": "function"
    },
    {
      "constant": true,
      "inputs": [
        {
          "name": "_key",
          "type": "bytes32"
        }
      ],
      "name": "getString",
      "outputs": [
        {
          "name": "_value",
          "type": "string"
        }
      ],
      "payable": false,
      "stateMutability": "view",
      "type": "function"
    },
    {
      "constant": true,
      "inputs": [
        {
          "name": "_key",
          "type": "bytes32"
        }
      ],
      "name": "getBytes",
      "outputs": [
        {
          "name": "_value",
          "type": "bytes"
        }
      ],
      "payable": false,
      "stateMutability": "view",
      "type": "function"
    },
    {
      "constant": true,
      "inputs": [
        {
          "name": "_key",
          "type": "bytes32"
        }
      ],
      "name": "getBool",
      "outputs": [
        {
          "name": "_value",
          "type": "bool"
        }
      ],
      "payable": false,
      "stateMutability": "view",
      "type": "function"
    },
    {
      "constant": true,
      "inputs": [
        {
          "name": "_key",
          "type": "bytes32"
        }
      ],
      "name": "getInt",
      "outputs": [
        {
          "name": "_value",
          "type": "int256"
        }
      ],
      "payable": false,
      "stateMutability": "view",
      "type": "function"
    }
  ],
  "bytecode": "0x608060405234801561001057600080fd5b50336000908152602081905260409020805460ff1990811660019081179091161790556110b2806100426000396000f3006080604052600436106101275763ffffffff7c01000000000000000000000000000000000000000000000000000000006000350416630e14a376811461012c57806321f8a721146101585780632c62ff2d1461018c5780632e28d084146101a45780633e49bed0146102025780634bbc142c1461021d578063616b59f61461023e578063666a342714610256578063666e1b39146102775780636e899550146102985780637ae1cfca146102f65780638c1600951461030e578063986e791a14610326578063abfdcced146103b3578063bd02d0f5146103d0578063c031a180146103fa578063ca446dd914610412578063dc97d96214610436578063e2a4853a1461044e578063e2b202bf14610469578063f2fde38b14610481578063f6bb3cc4146104a2575b600080fd5b34801561013857600080fd5b506101446004356104ba565b604080519115158252519081900360200190f35b34801561016457600080fd5b50610170600435610554565b60408051600160a060020a039092168252519081900360200190f35b34801561019857600080fd5b5061014460043561056f565b3480156101b057600080fd5b5060408051602060046024803582810135601f81018590048502860185019096528585526101449583359536956044949193909101919081908401838280828437509497506105f69650505050505050565b34801561020e57600080fd5b5061014460043560243561068a565b34801561022957600080fd5b50610144600160a060020a036004351661070b565b34801561024a57600080fd5b506101446004356107c7565b34801561026257600080fd5b50610144600160a060020a0360043516610851565b34801561028357600080fd5b50610144600160a060020a036004351661090a565b3480156102a457600080fd5b5060408051602060046024803582810135601f810185900485028601850190965285855261014495833595369560449491939091019190819084018382808284375094975061091f9650505050505050565b34801561030257600080fd5b506101446004356109a9565b34801561031a57600080fd5b506101446004356109be565b34801561033257600080fd5b5061033e600435610a3e565b6040805160208082528351818301528351919283929083019185019080838360005b83811015610378578181015183820152602001610360565b50505050905090810190601f1680156103a55780820380516001836020036101000a031916815260200191505b509250505060405180910390f35b3480156103bf57600080fd5b506101446004356024351515610add565b3480156103dc57600080fd5b506103e8600435610b6c565b60408051918252519081900360200190f35b34801561040657600080fd5b5061033e600435610b7e565b34801561041e57600080fd5b50610144600435600160a060020a0360243516610be8565b34801561044257600080fd5b506103e8600435610c92565b34801561045a57600080fd5b50610144600435602435610ca4565b34801561047557600080fd5b50610144600435610d25565b34801561048d57600080fd5b50610144600160a060020a0360043516610da8565b3480156104ae57600080fd5b50610144600435610ee2565b3360009081526020819052604081205460ff161515610525576040805160e560020a62461bcd02815260206004820152603960248201526000805160206110678339815191526044820152600080516020611047833981519152606482015290519081900360840190fd5b506000908152600360205260409020805473ffffffffffffffffffffffffffffffffffffffff19169055600190565b600090815260036020526040902054600160a060020a031690565b3360009081526020819052604081205460ff1615156105da576040805160e560020a62461bcd02815260206004820152603960248201526000805160206110678339815191526044820152600080516020611047833981519152606482015290519081900360840190fd5b506000908152600560205260409020805460ff19169055600190565b3360009081526020819052604081205460ff161515610661576040805160e560020a62461bcd02815260206004820152603960248201526000805160206110678339815191526044820152600080516020611047833981519152606482015290519081900360840190fd5b6000838152600460209081526040909120835161068092850190610f64565b5060019392505050565b3360009081526020819052604081205460ff1615156106f5576040805160e560020a62461bcd02815260206004820152603960248201526000805160206110678339815191526044820152600080516020611047833981519152606482015290519081900360840190fd5b5060009182526006602052604090912055600190565b3360009081526020819052604081205460ff161515610776576040805160e560020a62461bcd02815260206004820152603960248201526000805160206110678339815191526044820152600080516020611047833981519152606482015290519081900360840190fd5b600160a060020a038216600081815260208190526040808220805460ff19166001179055517f1c965cca064792c08083e8746b9062155a2f163d9f9ddab08196d5b2e3a818c59190a2506001919050565b3360009081526020819052604081205460ff161515610832576040805160e560020a62461bcd02815260206004820152603960248201526000805160206110678339815191526044820152600080516020611047833981519152606482015290519081900360840190fd5b600082815260046020526040812061084991610fe2565b506001919050565b3360009081526020819052604081205460ff1615156108bc576040805160e560020a62461bcd02815260206004820152603960248201526000805160206110678339815191526044820152600080516020611047833981519152606482015290519081900360840190fd5b600160a060020a038216600081815260208190526040808220805460ff19169055517f2d760b10f59f9d65a092cfebe73f70fd0a4e19e59791ffd61ee3057a0010ad989190a2506001919050565b60006020819052908152604090205460ff1681565b3360009081526020819052604081205460ff16151561098a576040805160e560020a62461bcd02815260206004820152603960248201526000805160206110678339815191526044820152600080516020611047833981519152606482015290519081900360840190fd5b6000838152600260209081526040909120835161068092850190610f64565b60009081526005602052604090205460ff1690565b3360009081526020819052604081205460ff161515610a29576040805160e560020a62461bcd02815260206004820152603960248201526000805160206110678339815191526044820152600080516020611047833981519152606482015290519081900360840190fd5b50600090815260066020526040812055600190565b600081815260026020818152604092839020805484516000196001831615610100020190911693909304601f81018390048302840183019094528383526060939091830182828015610ad15780601f10610aa657610100808354040283529160200191610ad1565b820191906000526020600020905b815481529060010190602001808311610ab457829003601f168201915b50505050509050919050565b3360009081526020819052604081205460ff161515610b48576040805160e560020a62461bcd02815260206004820152603960248201526000805160206110678339815191526044820152600080516020611047833981519152606482015290519081900360840190fd5b50600091825260056020526040909120805460ff1916911515919091179055600190565b60009081526001602052604090205490565b60008181526004602090815260409182902080548351601f6002610100600185161502600019019093169290920491820184900484028101840190945280845260609392830182828015610ad15780601f10610aa657610100808354040283529160200191610ad1565b3360009081526020819052604081205460ff161515610c53576040805160e560020a62461bcd02815260206004820152603960248201526000805160206110678339815191526044820152600080516020611047833981519152606482015290519081900360840190fd5b5060008281526003602052604090208054600160a060020a03831673ffffffffffffffffffffffffffffffffffffffff19909116179055600192915050565b60009081526006602052604090205490565b3360009081526020819052604081205460ff161515610d0f576040805160e560020a62461bcd02815260206004820152603960248201526000805160206110678339815191526044820152600080516020611047833981519152606482015290519081900360840190fd5b5060009182526001602081905260409092205590565b3360009081526020819052604081205460ff161515610d90576040805160e560020a62461bcd02815260206004820152603960248201526000805160206110678339815191526044820152600080516020611047833981519152606482015290519081900360840190fd5b50600090815260016020819052604082209190915590565b3360009081526020819052604081205460ff161515610e13576040805160e560020a62461bcd02815260206004820152603960248201526000805160206110678339815191526044820152600080516020611047833981519152606482015290519081900360840190fd5b600160a060020a0382161515610e73576040805160e560020a62461bcd02815260206004820152601f60248201527f4572726f723a206e65774f776e65722063616e6e6f74206265206e756c6c2100604482015290519081900360640190fd5b604051600160a060020a0383169033907f8be0079c531659141344cd1fd0a4f28419497f9722a3daafe3b4186f6b6457e090600090a350600160a060020a03166000908152602081905260408082208054600160ff199182168117909255338452919092208054909116905590565b3360009081526020819052604081205460ff161515610f4d576040805160e560020a62461bcd02815260206004820152603960248201526000805160206110678339815191526044820152600080516020611047833981519152606482015290519081900360840190fd5b600082815260026020526040812061084991610fe2565b828054600181600116156101000203166002900490600052602060002090601f016020900481019282601f10610fa557805160ff1916838001178555610fd2565b82800160010185558215610fd2579182015b82811115610fd2578251825591602001919060010190610fb7565b50610fde929150611029565b5090565b50805460018160011615610100020316600290046000825580601f106110085750611026565b601f0160209004906000526020600020908101906110269190611029565b50565b61104391905b80821115610fde576000815560010161102f565b90560020616c6c6f7765642062792074686520636f6e74726163742e000000000000004572726f723a205472616e73616374696f6e2073656e646572206973206e6f74a165627a7a72305820056cfbd62230040e00d890ea4ea35df860cfed498efc9f987cffb80ffc91f0c50029",
  "source": "pragma solidity 0.4.24;\n\nimport \"./Ownable.sol\";\n\n/**\n\nCOPYRIGHT 2018 Token, Inc.\n\nTHE SOFTWARE IS PROVIDED \"AS IS\", WITHOUT WARRANTY OF ANY KIND, EXPRESS OR IMPLIED,\nINCLUDING BUT NOT LIMITED TO THE WARRANTIES OF MERCHANTABILITY, FITNESS FOR A\nPARTICULAR PURPOSE AND NONINFRINGEMENT. IN NO EVENT SHALL THE AUTHORS OR\nCOPYRIGHT HOLDERS BE LIABLE FOR ANY CLAIM, DAMAGES OR OTHER LIABILITY, WHETHER\nIN AN ACTION OF CONTRACT, TORT OR OTHERWISE, ARISING FROM, OUT OF OR IN CONNECTION\nWITH THE SOFTWARE OR THE USE OR OTHER DEALINGS IN THE SOFTWARE.\n\n\n@title TokenIOStorage - Serves as derived contract for TokenIO contract and\nis used to upgrade interfaces in the event of deprecating the main contract.\n\n@author Ryan Tate <ryan.tate@token.io>, Sean Pollock <sean.pollock@token.io>\n\n@notice Storage contract\n\n@dev In the event that the main contract becomes deprecated, the upgraded contract\nwill be set as the owner of this contract, and use this contract's storage to\nmaintain data consistency between contract.\n\n@notice NOTE: This contract is based on the RocketPool Storage Contract,\nfound here: https://github.com/rocket-pool/rocketpool/blob/master/contracts/RocketStorage.sol\nAnd this medium article: https://medium.com/rocket-pool/upgradable-solidity-contract-design-54789205276d\n\nChanges:\n - setting primitive mapping view to internal;\n - setting method views to public;\n\n @dev NOTE: When deprecating the main TokenIO contract, the upgraded contract\n must take ownership of the TokenIO contract, it will require using the public methods\n to update changes to the underlying data. The updated contract must use a\n standard call to original TokenIO contract such that the  request is made from\n the upgraded contract and not the transaction origin (tx.origin) of the signing\n account.\n\n\n @dev NOTE: The reasoning for using the storage contract is to abstract the interface\n from the data of the contract on chain, limiting the need to migrate data to\n new contracts.\n\n*/\ncontract TokenIOStorage is Ownable {\n\n\n    /// @dev mapping for Primitive Data Types;\n\t\t/// @notice primitive data mappings have `internal` view;\n\t\t/// @dev only the derived contract can use the internal methods;\n\t\t/// @dev key == `keccak256(param1, param2...)`\n\t\t/// @dev Nested mapping can be achieved using multiple params in keccak256 hash;\n    mapping(bytes32 => uint256)    internal uIntStorage;\n    mapping(bytes32 => string)     internal stringStorage;\n    mapping(bytes32 => address)    internal addressStorage;\n    mapping(bytes32 => bytes)      internal bytesStorage;\n    mapping(bytes32 => bool)       internal boolStorage;\n    mapping(bytes32 => int256)     internal intStorage;\n\n    constructor() public {\n\t\t\t\t/// @notice owner is set to msg.sender by default\n\t\t\t\t/// @dev consider removing in favor of setting ownership in inherited\n\t\t\t\t/// contract\n        owner[msg.sender] = true;\n    }\n\n    /// @dev Set Key Methods\n\n    /**\n     * @notice Set value for Address associated with bytes32 id key\n     * @param _key Pointer identifier for value in storage\n     * @param _value The Address value to be set\n     * @return { \"success\" : \"Returns true when successfully called from another contract\" }\n     */\n    function setAddress(bytes32 _key, address _value) public onlyOwner returns (bool success) {\n        addressStorage[_key] = _value;\n        return true;\n    }\n\n    /**\n     * @notice Set value for Uint associated with bytes32 id key\n     * @param _key Pointer identifier for value in storage\n     * @param _value The Uint value to be set\n     * @return { \"success\" : \"Returns true when successfully called from another contract\" }\n     */\n    function setUint(bytes32 _key, uint _value) public onlyOwner returns (bool success) {\n        uIntStorage[_key] = _value;\n        return true;\n    }\n\n    /**\n     * @notice Set value for String associated with bytes32 id key\n     * @param _key Pointer identifier for value in storage\n     * @param _value The String value to be set\n     * @return { \"success\" : \"Returns true when successfully called from another contract\" }\n     */\n    function setString(bytes32 _key, string _value) public onlyOwner returns (bool success) {\n        stringStorage[_key] = _value;\n        return true;\n    }\n\n    /**\n     * @notice Set value for Bytes associated with bytes32 id key\n     * @param _key Pointer identifier for value in storage\n     * @param _value The Bytes value to be set\n     * @return { \"success\" : \"Returns true when successfully called from another contract\" }\n     */\n    function setBytes(bytes32 _key, bytes _value) public onlyOwner returns (bool success) {\n        bytesStorage[_key] = _value;\n        return true;\n    }\n\n    /**\n     * @notice Set value for Bool associated with bytes32 id key\n     * @param _key Pointer identifier for value in storage\n     * @param _value The Bool value to be set\n     * @return { \"success\" : \"Returns true when successfully called from another contract\" }\n     */\n    function setBool(bytes32 _key, bool _value) public onlyOwner returns (bool success) {\n        boolStorage[_key] = _value;\n        return true;\n    }\n\n    /**\n     * @notice Set value for Int associated with bytes32 id key\n     * @param _key Pointer identifier for value in storage\n     * @param _value The Int value to be set\n     * @return { \"success\" : \"Returns true when successfully called from another contract\" }\n     */\n    function setInt(bytes32 _key, int _value) public onlyOwner returns (bool success) {\n        intStorage[_key] = _value;\n        return true;\n    }\n\n    /// @dev Delete Key Methods\n\t\t/// @dev delete methods may be unnecessary; Use set methods to set values\n\t\t/// to default?\n\n    /**\n     * @notice Delete value for Address associated with bytes32 id key\n     * @param _key Pointer identifier for value in storage\n     * @return { \"success\" : \"Returns true when successfully called from another contract\" }\n     */\n    function deleteAddress(bytes32 _key) public onlyOwner returns (bool success) {\n        delete addressStorage[_key];\n        return true;\n    }\n\n    /**\n     * @notice Delete value for Uint associated with bytes32 id key\n     * @param _key Pointer identifier for value in storage\n     * @return { \"success\" : \"Returns true when successfully called from another contract\" }\n     */\n    function deleteUint(bytes32 _key) public onlyOwner returns (bool success) {\n        delete uIntStorage[_key];\n        return true;\n    }\n\n    /**\n     * @notice Delete value for String associated with bytes32 id key\n     * @param _key Pointer identifier for value in storage\n     * @return { \"success\" : \"Returns true when successfully called from another contract\" }\n     */\n    function deleteString(bytes32 _key) public onlyOwner returns (bool success) {\n        delete stringStorage[_key];\n        return true;\n    }\n\n    /**\n     * @notice Delete value for Bytes associated with bytes32 id key\n     * @param _key Pointer identifier for value in storage\n     * @return { \"success\" : \"Returns true when successfully called from another contract\" }\n     */\n    function deleteBytes(bytes32 _key) public onlyOwner returns (bool success) {\n        delete bytesStorage[_key];\n        return true;\n    }\n\n    /**\n     * @notice Delete value for Bool associated with bytes32 id key\n     * @param _key Pointer identifier for value in storage\n     * @return { \"success\" : \"Returns true when successfully called from another contract\" }\n     */\n    function deleteBool(bytes32 _key) public onlyOwner returns (bool success) {\n        delete boolStorage[_key];\n        return true;\n    }\n\n    /**\n     * @notice Delete value for Int associated with bytes32 id key\n     * @param _key Pointer identifier for value in storage\n     * @return { \"success\" : \"Returns true when successfully called from another contract\" }\n     */\n    function deleteInt(bytes32 _key) public onlyOwner returns (bool success) {\n        delete intStorage[_key];\n        return true;\n    }\n\n    /// @dev Get Key Methods\n\n    /**\n     * @notice Get value for Address associated with bytes32 id key\n     * @param _key Pointer identifier for value in storage\n     * @return { \"_value\" : \"Returns the Address value associated with the id key\" }\n     */\n    function getAddress(bytes32 _key) public view returns (address _value) {\n        return addressStorage[_key];\n    }\n\n    /**\n     * @notice Get value for Uint associated with bytes32 id key\n     * @param _key Pointer identifier for value in storage\n     * @return { \"_value\" : \"Returns the Uint value associated with the id key\" }\n     */\n    function getUint(bytes32 _key) public view returns (uint _value) {\n        return uIntStorage[_key];\n    }\n\n    /**\n     * @notice Get value for String associated with bytes32 id key\n     * @param _key Pointer identifier for value in storage\n     * @return { \"_value\" : \"Returns the String value associated with the id key\" }\n     */\n    function getString(bytes32 _key) public view returns (string _value) {\n        return stringStorage[_key];\n    }\n\n    /**\n     * @notice Get value for Bytes associated with bytes32 id key\n     * @param _key Pointer identifier for value in storage\n     * @return { \"_value\" : \"Returns the Bytes value associated with the id key\" }\n     */\n    function getBytes(bytes32 _key) public view returns (bytes _value) {\n        return bytesStorage[_key];\n    }\n\n    /**\n     * @notice Get value for Bool associated with bytes32 id key\n     * @param _key Pointer identifier for value in storage\n     * @return { \"_value\" : \"Returns the Bool value associated with the id key\" }\n     */\n    function getBool(bytes32 _key) public view returns (bool _value) {\n        return boolStorage[_key];\n    }\n\n    /**\n     * @notice Get value for Int associated with bytes32 id key\n     * @param _key Pointer identifier for value in storage\n     * @return { \"_value\" : \"Returns the Int value associated with the id key\" }\n     */\n    function getInt(bytes32 _key) public view returns (int _value) {\n        return intStorage[_key];\n    }\n\n}\n",
  "sourcePath": "/Users/ryan/Projects/TokenInc/tokeninc-smart-contracts/contracts/TokenIOStorage.sol",
  "compiler": {
    "name": "solc",
    "version": "0.4.24+commit.e67f0147.Emscripten.clang"
  },
  "schemaVersion": "2.0.1",
  "updatedAt": "2018-10-24T17:41:08.927Z"
}