{
  "contractName": "TokenIONameSpace",
  "abi": [
    {
      "constant": false,
      "inputs": [
        {
          "name": "allowedAddress",
          "type": "address"
        }
      ],
      "name": "allowOwnership",
      "outputs": [
        {
          "name": "success",
          "type": "bool"
        }
      ],
      "payable": false,
      "stateMutability": "nonpayable",
      "type": "function"
    },
    {
      "constant": false,
      "inputs": [
        {
          "name": "allowedAddress",
          "type": "address"
        }
      ],
      "name": "removeOwnership",
      "outputs": [
        {
          "name": "success",
          "type": "bool"
        }
      ],
      "payable": false,
      "stateMutability": "nonpayable",
      "type": "function"
    },
    {
      "constant": true,
      "inputs": [
        {
          "name": "",
          "type": "address"
        }
      ],
      "name": "owner",
      "outputs": [
        {
          "name": "",
          "type": "bool"
        }
      ],
      "payable": false,
      "stateMutability": "view",
      "type": "function"
    },
    {
      "constant": false,
      "inputs": [
        {
          "name": "newOwner",
          "type": "address"
        }
      ],
      "name": "transferOwnership",
      "outputs": [
        {
          "name": "success",
          "type": "bool"
        }
      ],
      "payable": false,
      "stateMutability": "nonpayable",
      "type": "function"
    },
    {
      "inputs": [
        {
          "name": "_storageContract",
          "type": "address"
        }
      ],
      "payable": false,
      "stateMutability": "nonpayable",
      "type": "constructor"
    },
    {
      "anonymous": false,
      "inputs": [
        {
          "indexed": true,
          "name": "previousOwner",
          "type": "address"
        },
        {
          "indexed": true,
          "name": "newOwner",
          "type": "address"
        }
      ],
      "name": "OwnershipTransferred",
      "type": "event"
    },
    {
      "anonymous": false,
      "inputs": [
        {
          "indexed": true,
          "name": "allowedAddress",
          "type": "address"
        }
      ],
      "name": "AllowOwnership",
      "type": "event"
    },
    {
      "anonymous": false,
      "inputs": [
        {
          "indexed": true,
          "name": "allowedAddress",
          "type": "address"
        }
      ],
      "name": "RevokeOwnership",
      "type": "event"
    },
    {
      "constant": true,
      "inputs": [
        {
          "name": "currency",
          "type": "string"
        }
      ],
      "name": "getTokenNameSpace",
      "outputs": [
        {
          "name": "contractAddress",
          "type": "address"
        }
      ],
      "payable": false,
      "stateMutability": "view",
      "type": "function"
    }
  ],
  "bytecode": "0x608060405234801561001057600080fd5b506040516020806106eb833981016040908152905133600090815260208190529182208054600160ff19918216811783558054600160a060020a031916600160a060020a03909416939093178355815416909117905561067590819061007690396000f30060806040526004361061006c5763ffffffff7c0100000000000000000000000000000000000000000000000000000000600035041663394387b181146100715780634bbc142c146100e6578063666a34271461011b578063666e1b391461013c578063f2fde38b1461015d575b600080fd5b34801561007d57600080fd5b506040805160206004803580820135601f81018490048402850184019095528484526100ca94369492936024939284019190819084018382808284375094975061017e9650505050505050565b60408051600160a060020a039092168252519081900360200190f35b3480156100f257600080fd5b50610107600160a060020a0360043516610197565b604080519115158252519081900360200190f35b34801561012757600080fd5b50610107600160a060020a0360043516610277565b34801561014857600080fd5b50610107600160a060020a0360043516610354565b34801561016957600080fd5b50610107600160a060020a0360043516610369565b600061019160018363ffffffff6104c716565b92915050565b3360009081526020819052604081205460ff161515610226576040805160e560020a62461bcd02815260206004820152603960248201527f4572726f723a205472616e73616374696f6e2073656e646572206973206e6f7460448201527f20616c6c6f7765642062792074686520636f6e74726163742e00000000000000606482015290519081900360840190fd5b600160a060020a038216600081815260208190526040808220805460ff19166001179055517f1c965cca064792c08083e8746b9062155a2f163d9f9ddab08196d5b2e3a818c59190a2506001919050565b3360009081526020819052604081205460ff161515610306576040805160e560020a62461bcd02815260206004820152603960248201527f4572726f723a205472616e73616374696f6e2073656e646572206973206e6f7460448201527f20616c6c6f7765642062792074686520636f6e74726163742e00000000000000606482015290519081900360840190fd5b600160a060020a038216600081815260208190526040808220805460ff19169055517f2d760b10f59f9d65a092cfebe73f70fd0a4e19e59791ffd61ee3057a0010ad989190a2506001919050565b60006020819052908152604090205460ff1681565b3360009081526020819052604081205460ff1615156103f8576040805160e560020a62461bcd02815260206004820152603960248201527f4572726f723a205472616e73616374696f6e2073656e646572206973206e6f7460448201527f20616c6c6f7765642062792074686520636f6e74726163742e00000000000000606482015290519081900360840190fd5b600160a060020a0382161515610458576040805160e560020a62461bcd02815260206004820152601f60248201527f4572726f723a206e65774f776e65722063616e6e6f74206265206e756c6c2100604482015290519081900360640190fd5b604051600160a060020a0383169033907f8be0079c531659141344cd1fd0a4f28419497f9722a3daafe3b4186f6b6457e090600090a350600160a060020a03166000908152602081905260408082208054600160ff199182168117909255338452919092208054909116905590565b6000808260405160200180807f746f6b656e2e6e616d6573706163650000000000000000000000000000000000815250600f0182805190602001908083835b602083106105255780518252601f199092019160209182019101610506565b6001836020036101000a0380198251168184511680821785525050505050509050019150506040516020818303038152906040526040518082805190602001908083835b602083106105885780518252601f199092019160209182019101610569565b51815160209384036101000a6000190180199092169116179052604080519290940182900382208a547f21f8a721000000000000000000000000000000000000000000000000000000008452600484018290529451909750600160a060020a0390941695506321f8a721945060248083019491935090918290030181600087803b15801561061557600080fd5b505af1158015610629573d6000803e3d6000fd5b505050506040513d602081101561063f57600080fd5b50519493505050505600a165627a7a723058209fcd53ffea422196530e7f8d1ecf7c3e85b79a5ff60b736957e69e6c4b8b0dd60029",
  "source": "pragma solidity 0.4.24;\n\n\n/**\nCOPYRIGHT 2018 Token, Inc.\n\nTHE SOFTWARE IS PROVIDED \"AS IS\", WITHOUT WARRANTY OF ANY KIND, EXPRESS OR IMPLIED,\nINCLUDING BUT NOT LIMITED TO THE WARRANTIES OF MERCHANTABILITY, FITNESS FOR A\nPARTICULAR PURPOSE AND NONINFRINGEMENT. IN NO EVENT SHALL THE AUTHORS OR\nCOPYRIGHT HOLDERS BE LIABLE FOR ANY CLAIM, DAMAGES OR OTHER LIABILITY, WHETHER\nIN AN ACTION OF CONTRACT, TORT OR OTHERWISE, ARISING FROM, OUT OF OR IN CONNECTION\nWITH THE SOFTWARE OR THE USE OR OTHER DEALINGS IN THE SOFTWARE.\n\n\n\n@title Token Name Space Interface for Token, Inc. Smart Money System\n\n@author Ryan Tate <ryan.tate@token.io>, Sean Pollock <sean.pollock@token.io>\n\n@notice Contract uses generalized storage contract, `TokenIOStorage`, for\nupgradeability of interface contract.\n\n@dev In the event that the main contract becomes deprecated, the upgraded contract\nwill be set as the owner of this contract, and use this contract's storage to\nmaintain data consistency between contract.\n\n*/\n\nimport \"./Ownable.sol\";\nimport \"./TokenIOStorage.sol\";\nimport \"./TokenIOLib.sol\";\n\ncontract TokenIONameSpace is Ownable {\n\n    /// @dev Set reference to TokenIOLib interface which proxies to TokenIOStorage\n    using TokenIOLib for TokenIOLib.Data;\n    TokenIOLib.Data lib;\n\n    /**\n  \t* @notice Constructor method for TokenIONameSpace contract\n  \t* @param _storageContract     address of TokenIOStorage contract\n  \t*/\n  \tconstructor(address _storageContract) public {\n  \t\t\t/// @dev Set the storage contract for the interface\n  \t\t\t/// @dev NOTE: This contract will be unable to use the storage constract until\n  \t\t\t/// @dev contract address is authorized with the storage contract\n  \t\t\t/// @dev Once authorized, Use the `setParams` method to set storage values\n  \t\t\tlib.Storage = TokenIOStorage(_storageContract);\n\n  \t\t\t/// @dev set owner to contract initiator\n  \t\t\towner[msg.sender] = true;\n  \t}\n\n    /**\n     * @notice Returns the address of the contract associated with the currency symbol\n     * @notice This method may be deprecated or refactored to allow for multiple interfaces\n     * @param  currency string Currency symbol of the token (e.g. USDx, JYPx, GBPx)\n     * @return {\"contractAddress\": \"Returns the token contract address associated with the currency\"}\n     */\n    function getTokenNameSpace(string currency) public view returns (address contractAddress) {\n        return lib.getTokenNameSpace(currency);\n    }\n\n}\n",
  "sourcePath": "/Users/ryan/Projects/TokenInc/tokeninc-smart-contracts/contracts/TokenIONameSpace.sol",
  "compiler": {
    "name": "solc",
    "version": "0.4.24+commit.e67f0147.Emscripten.clang"
  },
  "schemaVersion": "2.0.1",
  "updatedAt": "2018-10-22T22:56:14.042Z"
}