{
  "contractName": "TokenIOMerchant",
  "abi": [
    {
      "constant": false,
      "inputs": [
        {
          "name": "allowedAddress",
          "type": "address"
        }
      ],
      "name": "allowOwnership",
      "outputs": [
        {
          "name": "success",
          "type": "bool"
        }
      ],
      "payable": false,
      "stateMutability": "nonpayable",
      "type": "function"
    },
    {
      "constant": false,
      "inputs": [
        {
          "name": "allowedAddress",
          "type": "address"
        }
      ],
      "name": "removeOwnership",
      "outputs": [
        {
          "name": "success",
          "type": "bool"
        }
      ],
      "payable": false,
      "stateMutability": "nonpayable",
      "type": "function"
    },
    {
      "constant": true,
      "inputs": [
        {
          "name": "",
          "type": "address"
        }
      ],
      "name": "owner",
      "outputs": [
        {
          "name": "",
          "type": "bool"
        }
      ],
      "payable": false,
      "stateMutability": "view",
      "type": "function"
    },
    {
      "constant": false,
      "inputs": [
        {
          "name": "newOwner",
          "type": "address"
        }
      ],
      "name": "transferOwnership",
      "outputs": [
        {
          "name": "success",
          "type": "bool"
        }
      ],
      "payable": false,
      "stateMutability": "nonpayable",
      "type": "function"
    },
    {
      "inputs": [
        {
          "name": "_storageContract",
          "type": "address"
        }
      ],
      "payable": false,
      "stateMutability": "nonpayable",
      "type": "constructor"
    },
    {
      "anonymous": false,
      "inputs": [
        {
          "indexed": true,
          "name": "previousOwner",
          "type": "address"
        },
        {
          "indexed": true,
          "name": "newOwner",
          "type": "address"
        }
      ],
      "name": "OwnershipTransferred",
      "type": "event"
    },
    {
      "anonymous": false,
      "inputs": [
        {
          "indexed": true,
          "name": "allowedAddress",
          "type": "address"
        }
      ],
      "name": "AllowOwnership",
      "type": "event"
    },
    {
      "anonymous": false,
      "inputs": [
        {
          "indexed": true,
          "name": "allowedAddress",
          "type": "address"
        }
      ],
      "name": "RevokeOwnership",
      "type": "event"
    },
    {
      "constant": false,
      "inputs": [
        {
          "name": "feeContract",
          "type": "address"
        }
      ],
      "name": "setParams",
      "outputs": [
        {
          "name": "success",
          "type": "bool"
        }
      ],
      "payable": false,
      "stateMutability": "nonpayable",
      "type": "function"
    },
    {
      "constant": true,
      "inputs": [],
      "name": "getFeeParams",
      "outputs": [
        {
          "name": "bps",
          "type": "uint256"
        },
        {
          "name": "min",
          "type": "uint256"
        },
        {
          "name": "max",
          "type": "uint256"
        },
        {
          "name": "flat",
          "type": "uint256"
        },
        {
          "name": "feeMsg",
          "type": "bytes"
        },
        {
          "name": "feeAccount",
          "type": "address"
        }
      ],
      "payable": false,
      "stateMutability": "view",
      "type": "function"
    },
    {
      "constant": true,
      "inputs": [
        {
          "name": "amount",
          "type": "uint256"
        }
      ],
      "name": "calculateFees",
      "outputs": [
        {
          "name": "fees",
          "type": "uint256"
        }
      ],
      "payable": false,
      "stateMutability": "view",
      "type": "function"
    },
    {
      "constant": false,
      "inputs": [
        {
          "name": "currency",
          "type": "string"
        },
        {
          "name": "merchant",
          "type": "address"
        },
        {
          "name": "amount",
          "type": "uint256"
        },
        {
          "name": "merchantPaysFees",
          "type": "bool"
        },
        {
          "name": "data",
          "type": "bytes"
        }
      ],
      "name": "pay",
      "outputs": [
        {
          "name": "success",
          "type": "bool"
        }
      ],
      "payable": false,
      "stateMutability": "nonpayable",
      "type": "function"
    }
  ],
  "bytecode": "0x608060405234801561001057600080fd5b50604051602080612e2b833981016040908152905133600090815260208190529182208054600160ff19918216811783558054600160a060020a031916600160a060020a039094169390931783558154169091179055612db590819061007690396000f3006080604052600436106100745763ffffffff60e060020a6000350416634bbc142c81146100795780634e49acac146100ae57806352238fdd146100cf578063666a3427146100f9578063666e1b391461011a5780636db31c251461013b578063be6fc181146101ef578063f2fde38b146102b1575b600080fd5b34801561008557600080fd5b5061009a600160a060020a03600435166102d2565b604080519115158252519081900360200190f35b3480156100ba57600080fd5b5061009a600160a060020a036004351661038e565b3480156100db57600080fd5b506100e76004356104b4565b60408051918252519081900360200190f35b34801561010557600080fd5b5061009a600160a060020a03600435166104df565b34801561012657600080fd5b5061009a600160a060020a0360043516610598565b34801561014757600080fd5b506040805160206004803580820135601f810184900484028501840190955284845261009a94369492936024939284019190819084018382808284375050604080516020601f60608a01358b0180359182018390048302840183018552818452989b600160a060020a038b35169b838c01359b9586013515159a9199509750608090940195509193509182019181908401838280828437509497506105ad9650505050505050565b3480156101fb57600080fd5b50610204610855565b604051808781526020018681526020018581526020018481526020018060200183600160a060020a0316600160a060020a03168152602001828103825284818151815260200191508051906020019080838360005b83811015610271578181015183820152602001610259565b50505050905090810190601f16801561029e5780820380516001836020036101000a031916815260200191505b5097505050505050505060405180910390f35b3480156102bd57600080fd5b5061009a600160a060020a036004351661092b565b3360009081526020819052604081205460ff16151561033d576040805160e560020a62461bcd0281526020600482015260396024820152600080516020612d6a8339815191526044820152600080516020612d2a833981519152606482015290519081900360840190fd5b600160a060020a038216600081815260208190526040808220805460ff19166001179055517f1c965cca064792c08083e8746b9062155a2f163d9f9ddab08196d5b2e3a818c59190a2506001919050565b3360009081526020819052604081205460ff1615156103f9576040805160e560020a62461bcd0281526020600482015260396024820152600080516020612d6a8339815191526044820152600080516020612d2a833981519152606482015290519081900360840190fd5b61040a60018363ffffffff610a6516565b15156104ac576040805160e560020a62461bcd02815260206004820152605260248201527f4572726f723a20556e61626c6520746f207365742066656520636f6e7472616360448201527f742e20456e7375726520636f6e747261637420697320616c6c6f77656420627960648201527f2073746f7261676520636f6e74726163742e0000000000000000000000000000608482015290519081900360a40190fd5b506001919050565b60006104d96104ca60013063ffffffff610c6816565b6001908463ffffffff610de316565b92915050565b3360009081526020819052604081205460ff16151561054a576040805160e560020a62461bcd0281526020600482015260396024820152600080516020612d6a8339815191526044820152600080516020612d2a833981519152606482015290519081900360840190fd5b600160a060020a038216600081815260208190526040808220805460ff19169055517f2d760b10f59f9d65a092cfebe73f70fd0a4e19e59791ffd61ee3057a0010ad989190a2506001919050565b60006020819052908152604090205460ff1681565b60008060006105bb866104b4565b91506105e2336105d360018b8a63ffffffff6112d416565b6001919063ffffffff61136c16565b151561065e576040805160e560020a62461bcd02815260206004820152602d60248201527f4572726f723a20556e61626c6520746f20736574206163636f756e742073706560448201527f6e64696e6720616d6f756e742e00000000000000000000000000000000000000606482015290519081900360840190fd5b610673600189338a8a8963ffffffff6116b016565b15156106ef576040805160e560020a62461bcd02815260206004820152602a60248201527f4572726f723a20556e61626c6520746f207472616e736665722066756e64732060448201527f746f206163636f756e7400000000000000000000000000000000000000000000606482015290519081900360840190fd5b61070060013063ffffffff610c6816565b905084156107b3576107328888838561072060018363ffffffff611e3416565b6001949392919063ffffffff6116b016565b15156107ae576040805160e560020a62461bcd02815260206004820152602f60248201527f4572726f723a20556e61626c6520746f207472616e736665722066656573207460448201527f6f2066656520636f6e74726163742e0000000000000000000000000000000000606482015290519081900360840190fd5b610847565b6107cb8833838561072060018363ffffffff611e3416565b1515610847576040805160e560020a62461bcd02815260206004820152602f60248201527f4572726f723a20556e61626c6520746f207472616e736665722066656573207460448201527f6f2066656520636f6e74726163742e0000000000000000000000000000000000606482015290519081900360840190fd5b506001979650505050505050565b600080808060608161087f61087160013063ffffffff610c6816565b60019063ffffffff611fe716565b6108a161089360013063ffffffff610c6816565b60019063ffffffff61213a16565b6108c36108b560013063ffffffff610c6816565b60019063ffffffff6121cb16565b6108e56108d760013063ffffffff610c6816565b60019063ffffffff61225c16565b6109076108f960013063ffffffff610c6816565b60019063ffffffff611e3416565b61091860013063ffffffff610c6816565b949b939a50919850965094509092509050565b3360009081526020819052604081205460ff161515610996576040805160e560020a62461bcd0281526020600482015260396024820152600080516020612d6a8339815191526044820152600080516020612d2a833981519152606482015290519081900360840190fd5b600160a060020a03821615156109f6576040805160e560020a62461bcd02815260206004820152601f60248201527f4572726f723a206e65774f776e65722063616e6e6f74206265206e756c6c2100604482015290519081900360640190fd5b604051600160a060020a0383169033907f8be0079c531659141344cd1fd0a4f28419497f9722a3daafe3b4186f6b6457e090600090a350600160a060020a03166000908152602081905260408082208054600160ff199182168117909255338452919092208054909116905590565b604080517f6665652e6163636f756e74000000000000000000000000000000000000000000602080830191909152606060020a3002602b8301528251601f818403018152603f909201928390528151600093849392909182918401908083835b60208310610ae45780518252601f199092019160209182019101610ac5565b51815160209384036101000a6000190180199092169116179052604080519290940182900382208a547fca446dd900000000000000000000000000000000000000000000000000000000845260048401829052600160a060020a038b81166024860152955191985094909416955063ca446dd9945060448083019491935090918290030181600087803b158015610b7a57600080fd5b505af1158015610b8e573d6000803e3d6000fd5b505050506040513d6020811015610ba457600080fd5b50511515610c5c576040805160e560020a62461bcd0281526020600482015260686024820152600080516020612d4a83398151915260448201527f75652e20506c6561736520656e7375726520636f6e747261637420696e74657260648201527f6661636520697320616c6c6f776564206279207468652073746f72616765206360848201527f6f6e74726163742e00000000000000000000000000000000000000000000000060a482015290519081900360c40190fd5b600191505b5092915050565b60008060008360405160200180807f6665652e6163636f756e74000000000000000000000000000000000000000000815250600b0182600160a060020a0316600160a060020a0316606060020a0281526014019150506040516020818303038152906040526040518082805190602001908083835b60208310610cfc5780518252601f199092019160209182019101610cdd565b51815160209384036101000a6000190180199092169116179052604080519290940182900382208b547f21f8a721000000000000000000000000000000000000000000000000000000008452600484018290529451909850600160a060020a0390941695506321f8a721945060248083019491935090918290030181600087803b158015610d8957600080fd5b505af1158015610d9d573d6000803e3d6000fd5b505050506040513d6020811015610db357600080fd5b50519050600160a060020a0381161515610dd757610dd0856122ed565b9250610ddb565b8092505b505092915050565b8254604080517f6665652e6d617800000000000000000000000000000000000000000000000000602080830191909152600160a060020a03868116606060020a0260278401528351808403601b018152603b9093019384905282516000958695869586958695869594169363bd02d0f593918291908401908083835b60208310610e7e5780518252601f199092019160209182019101610e5f565b51815160209384036101000a60001901801990921691161790526040805192909401829003822063ffffffff881660e060020a0283526004830152925160248083019650939450929083900301905081600087803b158015610edf57600080fd5b505af1158015610ef3573d6000803e3d6000fd5b505050506040513d6020811015610f0957600080fd5b50518954604080517f6665652e6d696e00000000000000000000000000000000000000000000000000602080830191909152600160a060020a038d8116606060020a0260278401528351808403601b018152603b909301938490528251959a509093169363bd02d0f5939192918291908401908083835b60208310610f9f5780518252601f199092019160209182019101610f80565b51815160209384036101000a60001901801990921691161790526040805192909401829003822063ffffffff881660e060020a0283526004830152925160248083019650939450929083900301905081600087803b15801561100057600080fd5b505af1158015611014573d6000803e3d6000fd5b505050506040513d602081101561102a57600080fd5b50518954604080517f6665652e62707300000000000000000000000000000000000000000000000000602080830191909152600160a060020a038d8116606060020a0260278401528351808403601b018152603b9093019384905282519599509093169363bd02d0f5939192918291908401908083835b602083106110c05780518252601f1990920191602091820191016110a1565b51815160209384036101000a60001901801990921691161790526040805192909401829003822063ffffffff881660e060020a0283526004830152925160248083019650939450929083900301905081600087803b15801561112157600080fd5b505af1158015611135573d6000803e3d6000fd5b505050506040513d602081101561114b57600080fd5b50518954604080517f6665652e666c6174000000000000000000000000000000000000000000000000602080830191909152600160a060020a038d8116606060020a0260288401528351808403601c018152603c9093019384905282519598509093169363bd02d0f5939192918291908401908083835b602083106111e15780518252601f1990920191602091820191016111c2565b51815160209384036101000a60001901801990921691161790526040805192909401829003822063ffffffff881660e060020a0283526004830152925160248083019650939450929083900301905081600087803b15801561124257600080fd5b505af1158015611256573d6000803e3d6000fd5b505050506040513d602081101561126c57600080fd5b505191506112a28261129661271061128a8b8863ffffffff61241f16565b9063ffffffff6124c516565b9063ffffffff6124dc16565b9050848111156112b4578495506112c8565b838110156112c4578395506112c8565b8095505b50505050509392505050565b600080600080611319876040805190810160405280600481526020017f555344780000000000000000000000000000000000000000000000000000000081525061255f565b9250611325878761255f565b915061136182600a0a61128a85600a0a61135561271061128a6113488e8e61261f565b8c9063ffffffff61241f16565b9063ffffffff61241f16565b979650505050505050565b600080600061137b868661267c565b15156113f7576040805160e560020a62461bcd02815260206004820152603060248201527f4572726f723a20556e61626c6520746f20757064617465206163636f756e742060448201527f7370656e64696e6720706572696f642e00000000000000000000000000000000606482015290519081900360840190fd5b61140584611296888861275f565b9150816114128787612801565b101561148e576040805160e560020a62461bcd02815260206004820152603360248201527f4572726f723a204163636f756e742063616e6e6f74206578636565642069747360448201527f206461696c79207370656e64206c696d69742e00000000000000000000000000606482015290519081900360840190fd5b846114998787612892565b60405160200180807f6163636f756e742e7370656e64696e672e616d6f756e7400000000000000000081525060170183600160a060020a0316600160a060020a0316606060020a028152601401828152602001925050506040516020818303038152906040526040518082805190602001908083835b6020831061152e5780518252601f19909201916020918201910161150f565b51815160209384036101000a6000190180199092169116179052604080519290940182900382208c547fe2a4853a00000000000000000000000000000000000000000000000000000000845260048401829052602484018a90529451909750600160a060020a03909416955063e2a4853a945060448083019491935090918290030181600087803b1580156115c257600080fd5b505af11580156115d6573d6000803e3d6000fd5b505050506040513d60208110156115ec57600080fd5b505115156116a4576040805160e560020a62461bcd0281526020600482015260686024820152600080516020612d4a83398151915260448201527f75652e20506c6561736520656e7375726520636f6e747261637420696e74657260648201527f6661636520697320616c6c6f776564206279207468652073746f72616765206360848201527f6f6e74726163742e00000000000000000000000000000000000000000000000060a482015290519081900360c40190fd5b50600195945050505050565b60008080600160a060020a038616151561173a576040805160e560020a62461bcd02815260206004820152602560248201527f4572726f723a2060746f602061646472657373206d757374206e6f742062652060448201527f6e756c6c2e000000000000000000000000000000000000000000000000000000606482015290519081900360840190fd5b876117458a89612923565b60405160200180807f746f6b656e2e62616c616e636500000000000000000000000000000000000000815250600d0183805190602001908083835b6020831061179f5780518252601f199092019160209182019101611780565b6001836020036101000a03801982511681845116808217855250505050505090500182600160a060020a0316600160a060020a0316606060020a028152601401925050506040516020818303038152906040526040518082805190602001908083835b602083106118215780518252601f199092019160209182019101611802565b6001836020036101000a038019825116818451168082178552505050505050905001915050604051809103902091508761185b8a88612923565b60405160200180807f746f6b656e2e62616c616e636500000000000000000000000000000000000000815250600d0183805190602001908083835b602083106118b55780518252601f199092019160209182019101611896565b6001836020036101000a03801982511681845116808217855250505050505090500182600160a060020a0316600160a060020a0316606060020a028152601401925050506040516020818303038152906040526040518082805190602001908083835b602083106119375780518252601f199092019160209182019101611918565b51815160209384036101000a6000190180199092169116179052604080519290940182900382208f547fbd02d0f5000000000000000000000000000000000000000000000000000000008452600484018a90529451909750600160a060020a03909416955063e2a4853a94508793611a0893508b92879263bd02d0f5926024808401938290030181600087803b1580156119d057600080fd5b505af11580156119e4573d6000803e3d6000fd5b505050506040513d60208110156119fa57600080fd5b50519063ffffffff612a9116565b6040518363ffffffff1660e060020a02815260040180836000191660001916815260200182815260200192505050602060405180830381600087803b158015611a5057600080fd5b505af1158015611a64573d6000803e3d6000fd5b505050506040513d6020811015611a7a57600080fd5b50511515611b32576040805160e560020a62461bcd0281526020600482015260696024820152600080516020612d4a83398151915260448201527f75652e20506c6561736520656e7375726520636f6e747261637420686173206160648201527f6c6c6f776564207065726d697373696f6e7320776974682073746f726167652060848201527f636f6e74726163742e000000000000000000000000000000000000000000000060a482015290519081900360c40190fd5b8854604080517fbd02d0f5000000000000000000000000000000000000000000000000000000008152600481018490529051600160a060020a039092169163e2a4853a918491611bdf918a91869163bd02d0f59160248083019260209291908290030181600087803b158015611ba757600080fd5b505af1158015611bbb573d6000803e3d6000fd5b505050506040513d6020811015611bd157600080fd5b50519063ffffffff6124dc16565b6040518363ffffffff1660e060020a02815260040180836000191660001916815260200182815260200192505050602060405180830381600087803b158015611c2757600080fd5b505af1158015611c3b573d6000803e3d6000fd5b505050506040513d6020811015611c5157600080fd5b50511515611d09576040805160e560020a62461bcd0281526020600482015260696024820152600080516020612d4a83398151915260448201527f75652e20506c6561736520656e7375726520636f6e747261637420686173206160648201527f6c6c6f776564207065726d697373696f6e7320776974682073746f726167652060848201527f636f6e74726163742e000000000000000000000000000000000000000000000060a482015290519081900360c40190fd5b85600160a060020a031687600160a060020a03167f6f3dcde00ed34d4f404b335a65d18fb4adf74f5b817aa46f5d7c4f05c6d1e96e8a8888604051808060200184815260200180602001838103835286818151815260200191508051906020019080838360005b83811015611d88578181015183820152602001611d70565b50505050905090810190601f168015611db55780820380516001836020036101000a031916815260200191505b50838103825284518152845160209182019186019080838360005b83811015611de8578181015183820152602001611dd0565b50505050905090810190601f168015611e155780820380516001836020036101000a031916815260200191505b509550505050505060405180910390a350600198975050505050505050565b606060008260405160200180807f6665652e6d73670000000000000000000000000000000000000000000000000081525060070182600160a060020a0316600160a060020a0316606060020a0281526014019150506040516020818303038152906040526040518082805190602001908083835b60208310611ec75780518252601f199092019160209182019101611ea8565b5181516020939093036101000a60001901801990911692169190911790526040805191909301819003812089547fc031a180000000000000000000000000000000000000000000000000000000008352600483018290529351909650600160a060020a03909316945063c031a1809350602480820193600093509182900301818387803b158015611f5757600080fd5b505af1158015611f6b573d6000803e3d6000fd5b505050506040513d6000823e601f3d908101601f191682016040526020811015611f9457600080fd5b810190808051640100000000811115611fac57600080fd5b82016020810184811115611fbf57600080fd5b8151640100000000811182820187101715611fd957600080fd5b509098975050505050505050565b6000808260405160200180807f6665652e6270730000000000000000000000000000000000000000000000000081525060070182600160a060020a0316600160a060020a0316606060020a0281526014019150506040516020818303038152906040526040518082805190602001908083835b602083106120795780518252601f19909201916020918201910161205a565b51815160209384036101000a6000190180199092169116179052604080519290940182900382208a547fbd02d0f5000000000000000000000000000000000000000000000000000000008452600484018290529451909750600160a060020a03909416955063bd02d0f5945060248083019491935090918290030181600087803b15801561210657600080fd5b505af115801561211a573d6000803e3d6000fd5b505050506040513d602081101561213057600080fd5b5051949350505050565b6000808260405160200180807f6665652e6d696e0000000000000000000000000000000000000000000000000081525060070182600160a060020a0316600160a060020a0316606060020a028152601401915050604051602081830303815290604052604051808280519060200190808383602083106120795780518252601f19909201916020918201910161205a565b6000808260405160200180807f6665652e6d61780000000000000000000000000000000000000000000000000081525060070182600160a060020a0316600160a060020a0316606060020a028152601401915050604051602081830303815290604052604051808280519060200190808383602083106120795780518252601f19909201916020918201910161205a565b6000808260405160200180807f6665652e666c617400000000000000000000000000000000000000000000000081525060080182600160a060020a0316600160a060020a0316606060020a028152601401915050604051602081830303815290604052604051808280519060200190808383602083106120795780518252601f19909201916020918201910161205a565b60008060405160200180807f6665652e636f6e74726163742e6d61737465720000000000000000000000000081525060130190506040516020818303038152906040526040518082805190602001908083835b6020831061235f5780518252601f199092019160209182019101612340565b51815160209384036101000a60001901801990921691161790526040805192909401829003822089547f21f8a721000000000000000000000000000000000000000000000000000000008452600484018290529451909750600160a060020a0390941695506321f8a721945060248083019491935090918290030181600087803b1580156123ec57600080fd5b505af1158015612400573d6000803e3d6000fd5b505050506040513d602081101561241657600080fd5b50519392505050565b6000808315156124325760009150610c61565b5082820282848281151561244257fe5b04146124be576040805160e560020a62461bcd02815260206004820152602760248201527f4572726f723a20556e73616665206d756c7469706c69636174696f6e206f706560448201527f726174696f6e2100000000000000000000000000000000000000000000000000606482015290519081900360840190fd5b9392505050565b60008082848115156124d357fe5b04949350505050565b6000828201838110156124be576040805160e560020a62461bcd02815260206004820152602160248201527f4572726f723a20556e73616665206164646974696f6e206f7065726174696f6e60448201527f2100000000000000000000000000000000000000000000000000000000000000606482015290519081900360840190fd5b6000808260405160200180807f746f6b656e2e646563696d616c73000000000000000000000000000000000000815250600e0182805190602001908083835b602083106125bd5780518252601f19909201916020918201910161259e565b6001836020036101000a038019825116818451168082178552505050505050905001915050604051602081830303815290604052604051808280519060200190808383602083106120795780518252601f19909201916020918201910161205a565b6000808260405160200180807f66782e7573642e72617465000000000000000000000000000000000000000000815250600b018280519060200190808383602083106125bd5780518252601f19909201916020918201910161259e565b600080600061268b8585612892565b91504282111561269e5760019250610ddb565b50620151806126da85856126d56126c88561135560016112968361128a428d63ffffffff612a9116565b869063ffffffff6124dc16565b612b16565b1515612756576040805160e560020a62461bcd02815260206004820152603060248201527f4572726f723a20556e61626c6520746f20757064617465206163636f756e742060448201527f7370656e64696e6720706572696f642e00000000000000000000000000000000606482015290519081900360840190fd5b60019250610ddb565b6000808261276d8585612892565b60405160200180807f6163636f756e742e7370656e64696e672e616d6f756e7400000000000000000081525060170183600160a060020a0316600160a060020a0316606060020a02815260140182815260200192505050604051602081830303815290604052604051808280519060200190808383602083106120795780518252601f19909201916020918201910161205a565b6000808260405160200180807f6163636f756e742e7370656e64696e672e6c696d69740000000000000000000081525060160182600160a060020a0316600160a060020a0316606060020a028152601401915050604051602081830303815290604052604051808280519060200190808383602083106120795780518252601f19909201916020918201910161205a565b6000808260405160200180807f6c696d69742e7370656e64696e672e706572696f64000000000000000000000081525060150182600160a060020a0316600160a060020a0316606060020a028152601401915050604051602081830303815290604052604051808280519060200190808383602083106120795780518252601f19909201916020918201910161205a565b60008060008360405160200180807f6d61737465722e6163636f756e74000000000000000000000000000000000000815250600e0182600160a060020a0316600160a060020a0316606060020a0281526014019150506040516020818303038152906040526040518082805190602001908083835b602083106129b75780518252601f199092019160209182019101612998565b51815160209384036101000a6000190180199092169116179052604080519290940182900382208b547f21f8a721000000000000000000000000000000000000000000000000000000008452600484018290529451909850600160a060020a0390941695506321f8a721945060248083019491935090918290030181600087803b158015612a4457600080fd5b505af1158015612a58573d6000803e3d6000fd5b505050506040513d6020811015612a6e57600080fd5b50519050600160a060020a03811615612a8957809250610ddb565b839250610ddb565b600082821115612b10576040805160e560020a62461bcd028152602060048201526024808201527f4572726f723a20556e73616665207375627472616374696f6e206f706572617460448201527f696f6e2100000000000000000000000000000000000000000000000000000000606482015290519081900360840190fd5b50900390565b6000808360405160200180807f6c696d69742e7370656e64696e672e706572696f64000000000000000000000081525060150182600160a060020a0316600160a060020a0316606060020a0281526014019150506040516020818303038152906040526040518082805190602001908083835b60208310612ba85780518252601f199092019160209182019101612b89565b51815160209384036101000a6000190180199092169116179052604080519290940182900382208b547fe2a4853a00000000000000000000000000000000000000000000000000000000845260048401829052602484018b90529451909750600160a060020a03909416955063e2a4853a945060448083019491935090918290030181600087803b158015612c3c57600080fd5b505af1158015612c50573d6000803e3d6000fd5b505050506040513d6020811015612c6657600080fd5b50511515612d1e576040805160e560020a62461bcd0281526020600482015260686024820152600080516020612d4a83398151915260448201527f75652e20506c6561736520656e7375726520636f6e747261637420696e74657260648201527f6661636520697320616c6c6f776564206279207468652073746f72616765206360848201527f6f6e74726163742e00000000000000000000000000000000000000000000000060a482015290519081900360c40190fd5b506001949350505050560020616c6c6f7765642062792074686520636f6e74726163742e000000000000004572726f723a20556e61626c6520746f207365742073746f726167652076616c4572726f723a205472616e73616374696f6e2073656e646572206973206e6f74a165627a7a723058201db28dac1d03a32ffcd5545f7d0479d1bf52011d0a29675bf682a8fdf395fae40029",
  "source": "pragma solidity 0.4.24;\n\nimport \"./Ownable.sol\";\nimport \"./TokenIOStorage.sol\";\nimport \"./TokenIOLib.sol\";\n\n/*\nCOPYRIGHT 2018 Token, Inc.\n\nTHE SOFTWARE IS PROVIDED \"AS IS\", WITHOUT WARRANTY OF ANY KIND, EXPRESS OR IMPLIED,\nINCLUDING BUT NOT LIMITED TO THE WARRANTIES OF MERCHANTABILITY, FITNESS FOR A\nPARTICULAR PURPOSE AND NONINFRINGEMENT. IN NO EVENT SHALL THE AUTHORS OR\nCOPYRIGHT HOLDERS BE LIABLE FOR ANY CLAIM, DAMAGES OR OTHER LIABILITY, WHETHER\nIN AN ACTION OF CONTRACT, TORT OR OTHERWISE, ARISING FROM, OUT OF OR IN CONNECTION\nWITH THE SOFTWARE OR THE USE OR OTHER DEALINGS IN THE SOFTWARE.\n\n\n@title TokenIOMerchant - Merchant Interface Smart Contract for Token, Inc.\n\n@author Ryan Tate <ryan.tate@token.io>, Sean Pollock <sean.pollock@token.io>\n\n@notice Contract uses generalized storage contract, `TokenIOStorage`, for\nupgradeability of interface contract.\n\n*/\n\n\ncontract TokenIOMerchant is Ownable {\n\n    /// @dev Set reference to TokenIOLib interface which proxies to TokenIOStorage\n    using TokenIOLib for TokenIOLib.Data;\n    TokenIOLib.Data lib;\n\n    /**\n     * @notice Constructor method for Merchant contract\n     * @param _storageContract Ethereum Address of TokenIOStorage contract\n     */\n    constructor(address _storageContract) public {\n        /*\n         * @notice Set the storage contract for the interface\n         * @dev This contract will be unable to use the storage constract until\n         * @dev contract address is authorized with the storage contract\n         * @dev Once authorized, you can setRegisteredFirm and setRegisteredAuthority\n        */\n        lib.Storage = TokenIOStorage(_storageContract);\n\n        /// @dev set owner to contract initiator\n        owner[msg.sender] = true;\n    }\n\n    /**\n    @notice Sets Merchant globals and fee paramters\n    @param feeContract Address of fee contract\n    @return { \"success\" : \"Returns true if successfully called from another contract\"}\n    */\n    function setParams(\n      address feeContract\n    ) onlyOwner public returns (bool success) {\n      require(lib.setFeeContract(feeContract),\n        \"Error: Unable to set fee contract. Ensure contract is allowed by storage contract.\");\n      return true;\n    }\n\n    /**\n    * @notice Gets fee parameters\n    * @return {\n    \"bps\":\"Fee amount as a mesuare of basis points\",\n    \"min\":\"Minimum fee amount\",\n    \"max\":\"Maximum fee amount\",\n    \"flat\":\"Flat fee amount\",\n    \"contract\":\"Address of fee contract\"\n    }\n    */\n    function getFeeParams() public view returns (uint bps, uint min, uint max, uint flat, bytes feeMsg, address feeAccount) {\n      return (\n        lib.getFeeBPS(lib.getFeeContract(address(this))),\n        lib.getFeeMin(lib.getFeeContract(address(this))),\n        lib.getFeeMax(lib.getFeeContract(address(this))),\n        lib.getFeeFlat(lib.getFeeContract(address(this))),\n        lib.getFeeMsg(lib.getFeeContract(address(this))),\n        lib.getFeeContract(address(this))\n      );\n    }\n\n    /**\n    * @notice Calculates fee of a given transfer amount\n    * @param amount Amount to calculcate fee value\n    * @return {\"fees\": \"Returns the calculated transaction fees based on the fee contract parameters\"}\n    */\n    function calculateFees(uint amount) public view returns (uint fees) {\n      return lib.calculateFees(lib.getFeeContract(address(this)), amount);\n    }\n\n    /**\n     * @notice Pay method for merchant interface\n     * @param  currency Currency symbol of the token (e.g. USDx, JYPx, GBPx)\n     * @param  merchant Ethereum address of merchant\n     * @param  amount Amount of currency to send to merchant\n     * @param  merchantPaysFees Provide option for merchant to pay the transaction fees\n     * @param  data Optional data to be included when paying the merchant (e.g. item receipt)\n     * @return { \"success\" : \"Returns true if successfully called from another contract\"}\n     */\n    function pay(string currency, address merchant, uint amount, bool merchantPaysFees, bytes data) public returns (bool success) {\n      uint fees = calculateFees(amount);\n      /// @dev note the spending amount limit is gross of fees\n      require(lib.setAccountSpendingAmount(msg.sender, lib.getFxUSDAmount(currency, amount)),\n        \"Error: Unable to set account spending amount.\");\n      require(lib.forceTransfer(currency, msg.sender, merchant, amount, data),\n        \"Error: Unable to transfer funds to account\");\n\n      address feeContract = lib.getFeeContract(address(this));\n      /// @dev If merchantPaysFees == true, the merchant will pay the fees to the fee contract;\n      if (merchantPaysFees) {\n        require(lib.forceTransfer(currency, merchant, feeContract, fees, lib.getFeeMsg(feeContract)),\n          \"Error: Unable to transfer fees to fee contract.\");\n\n      } else {\n        require(lib.forceTransfer(currency, msg.sender, feeContract, fees, lib.getFeeMsg(feeContract)),\n          \"Error: Unable to transfer fees to fee contract.\");\n\n      }\n\n      return true;\n    }\n\n}\n",
  "sourcePath": "/Users/ryan/Projects/TokenInc/tokeninc-smart-contracts/contracts/TokenIOMerchant.sol",
  "compiler": {
    "name": "solc",
    "version": "0.4.24+commit.e67f0147.Emscripten.clang"
  },
  "schemaVersion": "2.0.1",
  "updatedAt": "2018-10-24T17:29:03.360Z"
}