{
  "contractName": "TokenIOERC20",
  "abi": [
    {
      "constant": false,
      "inputs": [
        {
          "name": "allowedAddress",
          "type": "address"
        }
      ],
      "name": "allowOwnership",
      "outputs": [
        {
          "name": "success",
          "type": "bool"
        }
      ],
      "payable": false,
      "stateMutability": "nonpayable",
      "type": "function"
    },
    {
      "constant": false,
      "inputs": [
        {
          "name": "allowedAddress",
          "type": "address"
        }
      ],
      "name": "removeOwnership",
      "outputs": [
        {
          "name": "success",
          "type": "bool"
        }
      ],
      "payable": false,
      "stateMutability": "nonpayable",
      "type": "function"
    },
    {
      "constant": true,
      "inputs": [
        {
          "name": "",
          "type": "address"
        }
      ],
      "name": "owner",
      "outputs": [
        {
          "name": "",
          "type": "bool"
        }
      ],
      "payable": false,
      "stateMutability": "view",
      "type": "function"
    },
    {
      "constant": false,
      "inputs": [
        {
          "name": "newOwner",
          "type": "address"
        }
      ],
      "name": "transferOwnership",
      "outputs": [
        {
          "name": "success",
          "type": "bool"
        }
      ],
      "payable": false,
      "stateMutability": "nonpayable",
      "type": "function"
    },
    {
      "inputs": [
        {
          "name": "_storageContract",
          "type": "address"
        }
      ],
      "payable": false,
      "stateMutability": "nonpayable",
      "type": "constructor"
    },
    {
      "anonymous": false,
      "inputs": [
        {
          "indexed": true,
          "name": "previousOwner",
          "type": "address"
        },
        {
          "indexed": true,
          "name": "newOwner",
          "type": "address"
        }
      ],
      "name": "OwnershipTransferred",
      "type": "event"
    },
    {
      "anonymous": false,
      "inputs": [
        {
          "indexed": true,
          "name": "allowedAddress",
          "type": "address"
        }
      ],
      "name": "AllowOwnership",
      "type": "event"
    },
    {
      "anonymous": false,
      "inputs": [
        {
          "indexed": true,
          "name": "allowedAddress",
          "type": "address"
        }
      ],
      "name": "RevokeOwnership",
      "type": "event"
    },
    {
      "constant": false,
      "inputs": [
        {
          "name": "_name",
          "type": "string"
        },
        {
          "name": "_symbol",
          "type": "string"
        },
        {
          "name": "_tla",
          "type": "string"
        },
        {
          "name": "_version",
          "type": "string"
        },
        {
          "name": "_decimals",
          "type": "uint256"
        },
        {
          "name": "_feeContract",
          "type": "address"
        },
        {
          "name": "_fxUSDBPSRate",
          "type": "uint256"
        }
      ],
      "name": "setParams",
      "outputs": [
        {
          "name": "success",
          "type": "bool"
        }
      ],
      "payable": false,
      "stateMutability": "nonpayable",
      "type": "function"
    },
    {
      "constant": true,
      "inputs": [],
      "name": "name",
      "outputs": [
        {
          "name": "_name",
          "type": "string"
        }
      ],
      "payable": false,
      "stateMutability": "view",
      "type": "function"
    },
    {
      "constant": true,
      "inputs": [],
      "name": "symbol",
      "outputs": [
        {
          "name": "_symbol",
          "type": "string"
        }
      ],
      "payable": false,
      "stateMutability": "view",
      "type": "function"
    },
    {
      "constant": true,
      "inputs": [],
      "name": "tla",
      "outputs": [
        {
          "name": "_tla",
          "type": "string"
        }
      ],
      "payable": false,
      "stateMutability": "view",
      "type": "function"
    },
    {
      "constant": true,
      "inputs": [],
      "name": "version",
      "outputs": [
        {
          "name": "_version",
          "type": "string"
        }
      ],
      "payable": false,
      "stateMutability": "view",
      "type": "function"
    },
    {
      "constant": true,
      "inputs": [],
      "name": "decimals",
      "outputs": [
        {
          "name": "_decimals",
          "type": "uint256"
        }
      ],
      "payable": false,
      "stateMutability": "view",
      "type": "function"
    },
    {
      "constant": true,
      "inputs": [],
      "name": "totalSupply",
      "outputs": [
        {
          "name": "supply",
          "type": "uint256"
        }
      ],
      "payable": false,
      "stateMutability": "view",
      "type": "function"
    },
    {
      "constant": true,
      "inputs": [
        {
          "name": "account",
          "type": "address"
        },
        {
          "name": "spender",
          "type": "address"
        }
      ],
      "name": "allowance",
      "outputs": [
        {
          "name": "amount",
          "type": "uint256"
        }
      ],
      "payable": false,
      "stateMutability": "view",
      "type": "function"
    },
    {
      "constant": true,
      "inputs": [
        {
          "name": "account",
          "type": "address"
        }
      ],
      "name": "balanceOf",
      "outputs": [
        {
          "name": "balance",
          "type": "uint256"
        }
      ],
      "payable": false,
      "stateMutability": "view",
      "type": "function"
    },
    {
      "constant": true,
      "inputs": [],
      "name": "getFeeParams",
      "outputs": [
        {
          "name": "bps",
          "type": "uint256"
        },
        {
          "name": "min",
          "type": "uint256"
        },
        {
          "name": "max",
          "type": "uint256"
        },
        {
          "name": "flat",
          "type": "uint256"
        },
        {
          "name": "feeMsg",
          "type": "bytes"
        },
        {
          "name": "feeAccount",
          "type": "address"
        }
      ],
      "payable": false,
      "stateMutability": "view",
      "type": "function"
    },
    {
      "constant": true,
      "inputs": [
        {
          "name": "amount",
          "type": "uint256"
        }
      ],
      "name": "calculateFees",
      "outputs": [
        {
          "name": "fees",
          "type": "uint256"
        }
      ],
      "payable": false,
      "stateMutability": "view",
      "type": "function"
    },
    {
      "constant": false,
      "inputs": [
        {
          "name": "to",
          "type": "address"
        },
        {
          "name": "amount",
          "type": "uint256"
        }
      ],
      "name": "transfer",
      "outputs": [
        {
          "name": "success",
          "type": "bool"
        }
      ],
      "payable": false,
      "stateMutability": "nonpayable",
      "type": "function"
    },
    {
      "constant": false,
      "inputs": [
        {
          "name": "from",
          "type": "address"
        },
        {
          "name": "to",
          "type": "address"
        },
        {
          "name": "amount",
          "type": "uint256"
        }
      ],
      "name": "transferFrom",
      "outputs": [
        {
          "name": "success",
          "type": "bool"
        }
      ],
      "payable": false,
      "stateMutability": "nonpayable",
      "type": "function"
    },
    {
      "constant": false,
      "inputs": [
        {
          "name": "spender",
          "type": "address"
        },
        {
          "name": "amount",
          "type": "uint256"
        }
      ],
      "name": "approve",
      "outputs": [
        {
          "name": "success",
          "type": "bool"
        }
      ],
      "payable": false,
      "stateMutability": "nonpayable",
      "type": "function"
    },
    {
      "constant": false,
      "inputs": [],
      "name": "deprecateInterface",
      "outputs": [
        {
          "name": "deprecated",
          "type": "bool"
        }
      ],
      "payable": false,
      "stateMutability": "nonpayable",
      "type": "function"
    }
  ],
  "bytecode": "0x608060405234801561001057600080fd5b50604051602080615539833981016040908152905133600090815260208190529182208054600160ff19918216811783558054600160a060020a031916600160a060020a0390941693909317835581541690911790556154c390819061007690396000f3006080604052600436106100ed5763ffffffff60e060020a60003504166306fdde0381146100f2578063095ea7b31461017c57806318160ddd146101b457806323b872dd146101db578063313ce567146102055780634bbc142c1461021a57806352238fdd1461023b57806354fd4d5014610253578063666a342714610268578063666e1b39146102895780636b0235a0146102aa57806370a08231146102bf57806395d89b41146102e0578063a9059cbb146102f5578063be6fc18114610319578063dd62ed3e146103db578063e052f0c814610402578063ebe6ba071461052a578063f2fde38b1461053f575b600080fd5b3480156100fe57600080fd5b50610107610560565b6040805160208082528351818301528351919283929083019185019080838360005b83811015610141578181015183820152602001610129565b50505050905090810190601f16801561016e5780820380516001836020036101000a031916815260200191505b509250505060405180910390f35b34801561018857600080fd5b506101a0600160a060020a0360043516602435610578565b604080519115158252519081900360200190f35b3480156101c057600080fd5b506101c96106e9565b60408051918252519081900360200190f35b3480156101e757600080fd5b506101a0600160a060020a036004358116906024351660443561070d565b34801561021157600080fd5b506101c9610842565b34801561022657600080fd5b506101a0600160a060020a0360043516610866565b34801561024757600080fd5b506101c9600435610922565b34801561025f57600080fd5b5061010761094d565b34801561027457600080fd5b506101a0600160a060020a0360043516610960565b34801561029557600080fd5b506101a0600160a060020a0360043516610a19565b3480156102b657600080fd5b50610107610a2e565b3480156102cb57600080fd5b506101c9600160a060020a0360043516610a41565b3480156102ec57600080fd5b50610107610a66565b34801561030157600080fd5b506101a0600160a060020a0360043516602435610a79565b34801561032557600080fd5b5061032e610bde565b604051808781526020018681526020018581526020018481526020018060200183600160a060020a0316600160a060020a03168152602001828103825284818151815260200191508051906020019080838360005b8381101561039b578181015183820152602001610383565b50505050905090810190601f1680156103c85780820380516001836020036101000a031916815260200191505b5097505050505050505060405180910390f35b3480156103e757600080fd5b506101c9600160a060020a0360043581169060243516610c63565b34801561040e57600080fd5b506040805160206004803580820135601f81018490048402850184019095528484526101a094369492936024939284019190819084018382808284375050604080516020601f89358b018035918201839004830284018301909452808352979a99988101979196509182019450925082915084018382808284375050604080516020601f89358b018035918201839004830284018301909452808352979a99988101979196509182019450925082915084018382808284375050604080516020601f89358b018035918201839004830284018301909452808352979a99988101979196509182019450925082915084018382808284375094975050843595505050506020820135600160a060020a031691604001359050610c90565b34801561053657600080fd5b506101a061110c565b34801561054b57600080fd5b506101a0600160a060020a0360043516611209565b606061057360013063ffffffff61134316565b905090565b600061058b60013063ffffffff6114f816565b15610606576040805160e560020a62461bcd02815260206004820152603e60248201527f4572726f723a20436f6e747261637420686173206265656e206465707265636160448201527f7465642c2063616e6e6f7420706572666f726d206f7065726174696f6e210000606482015290519081900360840190fd5b6106186001848463ffffffff61164b16565b15156106e0576040805160e560020a62461bcd02815260206004820152607560248201527f4572726f723a20556e61626c6520746f20617070726f766520616c6c6f77616e60448201527f636520666f72207370656e6465722e20506c6561736520656e7375726520737060648201527f656e646572206973206e6f74206e756c6c20616e6420646f6573206e6f74206860848201527f61766520612066726f7a656e2062616c616e63652e000000000000000000000060a482015290519081900360c40190fd5b50600192915050565b60006105736106ff60013063ffffffff611d1c16565b60019063ffffffff611dae16565b600061072060013063ffffffff6114f816565b1561079b576040805160e560020a62461bcd02815260206004820152603e60248201527f4572726f723a20436f6e747261637420686173206265656e206465707265636160448201527f7465642c2063616e6e6f7420706572666f726d206f7065726174696f6e210000606482015290519081900360840190fd5b6107f86107af60013063ffffffff611d1c16565b60408051808201909152600381527f307830000000000000000000000000000000000000000000000000000000000060208201526001919087908790879063ffffffff611ee616565b15156108385760405160e560020a62461bcd0281526004018080602001828103825260828152602001806153766082913960a00191505060405180910390fd5b5060019392505050565b600061057361085860013063ffffffff611d1c16565b60019063ffffffff6121ce16565b3360009081526020819052604081205460ff1615156108d1576040805160e560020a62461bcd02815260206004820152603960248201526000805160206154788339815191526044820152600080516020615336833981519152606482015290519081900360840190fd5b600160a060020a038216600081815260208190526040808220805460ff19166001179055517f1c965cca064792c08083e8746b9062155a2f163d9f9ddab08196d5b2e3a818c59190a2506001919050565b600061094761093860013063ffffffff61222b16565b6001908463ffffffff6123a616565b92915050565b606061057360013063ffffffff61289716565b3360009081526020819052604081205460ff1615156109cb576040805160e560020a62461bcd02815260206004820152603960248201526000805160206154788339815191526044820152600080516020615336833981519152606482015290519081900360840190fd5b600160a060020a038216600081815260208190526040808220805460ff19169055517f2d760b10f59f9d65a092cfebe73f70fd0a4e19e59791ffd61ee3057a0010ad989190a2506001919050565b60006020819052908152604090205460ff1681565b606061057360013063ffffffff61292916565b6000610947610a5760013063ffffffff611d1c16565b6001908463ffffffff6129bb16565b606061057360013063ffffffff611d1c16565b6000610a8c60013063ffffffff6114f816565b15610b07576040805160e560020a62461bcd02815260206004820152603e60248201527f4572726f723a20436f6e747261637420686173206265656e206465707265636160448201527f7465642c2063616e6e6f7420706572666f726d206f7065726174696f6e210000606482015290519081900360840190fd5b610b62610b1b60013063ffffffff611d1c16565b60408051808201909152600381527f30783000000000000000000000000000000000000000000000000000000000006020820152600191908690869063ffffffff612b3f16565b15156106e0576040805160e560020a62461bcd02815260206004820152603e60248201527f4572726f723a20556e61626c6520746f207472616e736665722066756e64732e60448201527f20506c6561736520636865636b20796f757220706172616d65746572732e0000606482015290519081900360840190fd5b600080808060608180610bf860013063ffffffff61222b16565b9050610c0b60018263ffffffff612e0416565b610c1c60018363ffffffff612e9516565b610c2d60018463ffffffff612f2616565b610c3e60018563ffffffff612fb716565b610c4f60018663ffffffff61304816565b939b929a5090985096509094509092509050565b6000610c89610c7960013063ffffffff611d1c16565b600190858563ffffffff61316b16565b9392505050565b3360009081526020819052604081205460ff161515610cfb576040805160e560020a62461bcd02815260206004820152603960248201526000805160206154788339815191526044820152600080516020615336833981519152606482015290519081900360840190fd5b610d0c60018963ffffffff61332b16565b1515610d88576040805160e560020a62461bcd02815260206004820152603860248201527f4572726f723a20556e61626c6520746f2073657420746f6b656e206e616d652e60448201527f20506c6561736520636865636b20617267756d656e74732e0000000000000000606482015290519081900360840190fd5b610d9960018863ffffffff61358416565b1515610e15576040805160e560020a62461bcd02815260206004820152603a60248201527f4572726f723a20556e61626c6520746f2073657420746f6b656e2073796d626f60448201527f6c2e20506c6561736520636865636b20617267756d656e74732e000000000000606482015290519081900360840190fd5b610e2660018763ffffffff6135ff16565b1515610ea2576040805160e560020a62461bcd02815260206004820152603760248201527f4572726f723a20556e61626c6520746f2073657420746f6b656e20544c412e2060448201527f506c6561736520636865636b20617267756d656e74732e000000000000000000606482015290519081900360840190fd5b610eb360018663ffffffff61367d16565b1515610f2f576040805160e560020a62461bcd02815260206004820152603b60248201527f4572726f723a20556e61626c6520746f2073657420746f6b656e20766572736960448201527f6f6e2e20506c6561736520636865636b20617267756d656e74732e0000000000606482015290519081900360840190fd5b610f416001888663ffffffff6136fb16565b1515610fbd576040805160e560020a62461bcd02815260206004820152603c60248201527f4572726f723a20556e61626c6520746f2073657420746f6b656e20646563696d60448201527f616c732e20506c6561736520636865636b20617267756d656e74732e00000000606482015290519081900360840190fd5b610fce60018463ffffffff61392716565b151561104a576040805160e560020a62461bcd02815260206004820152603a60248201527f4572726f723a20556e61626c6520746f207365742066656520636f6e7472616360448201527f742e20506c6561736520636865636b20617267756d656e74732e000000000000606482015290519081900360840190fd5b61105c6001888463ffffffff613a3c16565b15156110fe576040805160e560020a62461bcd02815260206004820152604660248201527f4572726f723a20556e61626c6520746f2073657420667820555344206261736960448201527f7320706f696e747320726174652e20506c6561736520636865636b206172677560648201527f6d656e74732e0000000000000000000000000000000000000000000000000000608482015290519081900360a40190fd5b506001979650505050505050565b3360009081526020819052604081205460ff161515611177576040805160e560020a62461bcd02815260206004820152603960248201526000805160206154788339815191526044820152600080516020615336833981519152606482015290519081900360840190fd5b61118860013063ffffffff613c2316565b1515611203576040805160e560020a62461bcd028152602060048201526024808201527f4572726f723a20556e61626c6520746f2064657072656361746520636f6e747260448201527f6163742100000000000000000000000000000000000000000000000000000000606482015290519081900360840190fd5b50600190565b3360009081526020819052604081205460ff161515611274576040805160e560020a62461bcd02815260206004820152603960248201526000805160206154788339815191526044820152600080516020615336833981519152606482015290519081900360840190fd5b600160a060020a03821615156112d4576040805160e560020a62461bcd02815260206004820152601f60248201527f4572726f723a206e65774f776e65722063616e6e6f74206265206e756c6c2100604482015290519081900360640190fd5b604051600160a060020a0383169033907f8be0079c531659141344cd1fd0a4f28419497f9722a3daafe3b4186f6b6457e090600090a350600160a060020a03166000908152602081905260408082208054600160ff199182168117909255338452919092208054909116905590565b606060008260405160200180807f746f6b656e2e6e616d6500000000000000000000000000000000000000000000815250600a0182600160a060020a0316600160a060020a0316606060020a0281526014019150506040516020818303038152906040526040518082805190602001908083835b602083106113d65780518252601f1990920191602091820191016113b7565b5181516020939093036101000a60001901801990911692169190911790526040805191909301819003812089547f986e791a000000000000000000000000000000000000000000000000000000008352600483018290529351909650600160a060020a03909316945063986e791a9350602480820193600093509182900301818387803b15801561146657600080fd5b505af115801561147a573d6000803e3d6000fd5b505050506040513d6000823e601f3d908101601f1916820160405260208110156114a357600080fd5b8101908080516401000000008111156114bb57600080fd5b820160208101848111156114ce57600080fd5b81516401000000008111828201871017156114e857600080fd5b50909550505050505b5092915050565b6000808260405160200180807f6465706372656361746564000000000000000000000000000000000000000000815250600b0182600160a060020a0316600160a060020a0316606060020a0281526014019150506040516020818303038152906040526040518082805190602001908083835b6020831061158a5780518252601f19909201916020918201910161156b565b51815160209384036101000a6000190180199092169116179052604080519290940182900382208a547f7ae1cfca000000000000000000000000000000000000000000000000000000008452600484018290529451909750600160a060020a039094169550637ae1cfca945060248083019491935090918290030181600087803b15801561161757600080fd5b505af115801561162b573d6000803e3d6000fd5b505050506040513d602081101561164157600080fd5b5051949350505050565b600060608180600160a060020a03861615156116d7576040805160e560020a62461bcd02815260206004820152602860248201527f4572726f723a20607370656e6465726020616464726573732063616e6e6f742060448201527f6265206e756c6c2e000000000000000000000000000000000000000000000000606482015290519081900360840190fd5b6116e18730611d1c565b92506116f787846116f28a8a613dc3565b613f31565b15611772576040805160e560020a62461bcd02815260206004820152603660248201527f4572726f723a205370656e646572206d757374206e6f7420686176652061206660448201527f726f7a656e2062616c616e6365206469726563746c7900000000000000000000606482015290519081900360840190fd5b8261177d8833613dc3565b6117878989613dc3565b60405160200180807f746f6b656e2e616c6c6f77616e63650000000000000000000000000000000000815250600f0184805190602001908083835b602083106117e15780518252601f1990920191602091820191016117c2565b6001836020036101000a03801982511681845116808217855250505050505090500183600160a060020a0316600160a060020a0316606060020a02815260140182600160a060020a0316600160a060020a0316606060020a02815260140193505050506040516020818303038152906040526040518082805190602001908083835b602083106118825780518252601f199092019160209182019101611863565b6001836020036101000a03801982511681845116808217855250505050505090500191505060405180910390209150826118bc8833613dc3565b6040516020018080600080516020615356833981519152815250600d0183805190602001908083835b602083106119045780518252601f1990920191602091820191016118e5565b6001836020036101000a03801982511681845116808217855250505050505090500182600160a060020a0316600160a060020a0316606060020a028152601401925050506040516020818303038152906040526040518082805190602001908083835b602083106119865780518252601f199092019160209182019101611967565b51815160209384036101000a6000190180199092169116179052604080519290940182900382208d5460e060020a63bd02d0f5028452600484018a90529451909750600160a060020a03909416955063bd02d0f5945060248083019491935090918290030181600087803b1580156119fd57600080fd5b505af1158015611a11573d6000803e3d6000fd5b505050506040513d6020811015611a2757600080fd5b50511580611a33575084155b1515611ad5576040805160e560020a62461bcd02815260206004820152605260248201527f4572726f723a20416c6c6f77616e6365206d757374206265207a65726f20283060448201527f29206265666f72652073657474696e6720616e207570646174656420616c6c6f60648201527f77616e636520666f72207370656e6465722e0000000000000000000000000000608482015290519081900360a40190fd5b86546040805160e060020a63bd02d0f50281526004810184905290518792600160a060020a03169163bd02d0f59160248083019260209291908290030181600087803b158015611b2457600080fd5b505af1158015611b38573d6000803e3d6000fd5b505050506040513d6020811015611b4e57600080fd5b50511015611bcc576040805160e560020a62461bcd02815260206004820152603860248201527f4572726f723a20416c6c6f77616e63652063616e6e6f7420657863656564206d60448201527f73672e73656e64657220746f6b656e2062616c616e63652e0000000000000000606482015290519081900360840190fd5b86546040805160e160020a637152429d02815260048101859052602481018890529051600160a060020a039092169163e2a4853a916044808201926020929091908290030181600087803b158015611c2357600080fd5b505af1158015611c37573d6000803e3d6000fd5b505050506040513d6020811015611c4d57600080fd5b50511515611ccf576040805160e560020a62461bcd0281526020600482015260696024820152600080516020615438833981519152604482015260008051602061541883398151915260648201526000805160206153f8833981519152608482015260008051602061545883398151915260a482015290519081900360c40190fd5b604080518681529051600160a060020a0388169133917f8c5be1e5ebec7d5bd14f71427d1e84f3dd0314c0f7b2291e5b200ac8c7c3b9259181900360200190a35060019695505050505050565b606060008260405160200180807f746f6b656e2e73796d626f6c0000000000000000000000000000000000000000815250600c0182600160a060020a0316600160a060020a0316606060020a028152601401915050604051602081830303815290604052604051808280519060200190808383602083106113d65780518252601f1990920191602091820191016113b7565b6000808260405160200180807f746f6b656e2e737570706c790000000000000000000000000000000000000000815250600c0182805190602001908083835b60208310611e0c5780518252601f199092019160209182019101611ded565b6001836020036101000a0380198251168184511680821785525050505050509050019150506040516020818303038152906040526040518082805190602001908083835b60208310611e6f5780518252601f199092019160209182019101611e50565b51815160209384036101000a6000190180199092169116179052604080519290940182900382208a5460e060020a63bd02d0f5028452600484018290529451909750600160a060020a03909416955063bd02d0f5945060248083019491935090918290030181600087803b15801561161757600080fd5b60008080600160a060020a0386161515611f70576040805160e560020a62461bcd02815260206004820152602560248201527f4572726f723a2060746f602061646472657373206d757374206e6f742062652060448201527f6e756c6c2e000000000000000000000000000000000000000000000000000000606482015290519081900360840190fd5b611f7a893061222b565b9150611f878983876123a6565b9050611f9e8988611f998c8c8a613f98565b614030565b151561201a576040805160e560020a62461bcd02815260206004820152602d60248201527f4572726f723a20556e61626c6520746f20736574206163636f756e742073706560448201527f6e64696e6720616d6f756e742e00000000000000000000000000000000000000606482015290519081900360840190fd5b61202889898989898961435e565b15156120a4576040805160e560020a62461bcd02815260206004820152602b60248201527f4572726f723a20556e61626c6520746f207472616e736665722066756e64732060448201527f746f206163636f756e742e000000000000000000000000000000000000000000606482015290519081900360840190fd5b6120bb89898985856120b68f89613048565b61435e565b1515612137576040805160e560020a62461bcd02815260206004820152602f60248201527f4572726f723a20556e61626c6520746f207472616e736665722066656573207460448201527f6f2066656520636f6e74726163742e0000000000000000000000000000000000606482015290519081900360840190fd5b61214389898988614a26565b15156121bf576040805160e560020a62461bcd02815260206004820152602e60248201527f4572726f723a20556e61626c6520746f2075706461746520616c6c6f77616e6360448201527f6520666f72207370656e6465722e000000000000000000000000000000000000606482015290519081900360840190fd5b50600198975050505050505050565b6000808260405160200180807f746f6b656e2e646563696d616c73000000000000000000000000000000000000815250600e01828051906020019080838360208310611e0c5780518252601f199092019160209182019101611ded565b60008060008360405160200180807f6665652e6163636f756e74000000000000000000000000000000000000000000815250600b0182600160a060020a0316600160a060020a0316606060020a0281526014019150506040516020818303038152906040526040518082805190602001908083835b602083106122bf5780518252601f1990920191602091820191016122a0565b51815160209384036101000a6000190180199092169116179052604080519290940182900382208b547f21f8a721000000000000000000000000000000000000000000000000000000008452600484018290529451909850600160a060020a0390941695506321f8a721945060248083019491935090918290030181600087803b15801561234c57600080fd5b505af1158015612360573d6000803e3d6000fd5b505050506040513d602081101561237657600080fd5b50519050600160a060020a038116151561239a5761239385614cb0565b925061239e565b8092505b505092915050565b8254604080517f6665652e6d617800000000000000000000000000000000000000000000000000602080830191909152600160a060020a03868116606060020a0260278401528351808403601b018152603b9093019384905282516000958695869586958695869594169363bd02d0f593918291908401908083835b602083106124415780518252601f199092019160209182019101612422565b51815160209384036101000a60001901801990921691161790526040805192909401829003822063ffffffff881660e060020a0283526004830152925160248083019650939450929083900301905081600087803b1580156124a257600080fd5b505af11580156124b6573d6000803e3d6000fd5b505050506040513d60208110156124cc57600080fd5b50518954604080517f6665652e6d696e00000000000000000000000000000000000000000000000000602080830191909152600160a060020a038d8116606060020a0260278401528351808403601b018152603b909301938490528251959a509093169363bd02d0f5939192918291908401908083835b602083106125625780518252601f199092019160209182019101612543565b51815160209384036101000a60001901801990921691161790526040805192909401829003822063ffffffff881660e060020a0283526004830152925160248083019650939450929083900301905081600087803b1580156125c357600080fd5b505af11580156125d7573d6000803e3d6000fd5b505050506040513d60208110156125ed57600080fd5b50518954604080517f6665652e62707300000000000000000000000000000000000000000000000000602080830191909152600160a060020a038d8116606060020a0260278401528351808403601b018152603b9093019384905282519599509093169363bd02d0f5939192918291908401908083835b602083106126835780518252601f199092019160209182019101612664565b51815160209384036101000a60001901801990921691161790526040805192909401829003822063ffffffff881660e060020a0283526004830152925160248083019650939450929083900301905081600087803b1580156126e457600080fd5b505af11580156126f8573d6000803e3d6000fd5b505050506040513d602081101561270e57600080fd5b50518954604080517f6665652e666c6174000000000000000000000000000000000000000000000000602080830191909152600160a060020a038d8116606060020a0260288401528351808403601c018152603c9093019384905282519598509093169363bd02d0f5939192918291908401908083835b602083106127a45780518252601f199092019160209182019101612785565b51815160209384036101000a60001901801990921691161790526040805192909401829003822063ffffffff881660e060020a0283526004830152925160248083019650939450929083900301905081600087803b15801561280557600080fd5b505af1158015612819573d6000803e3d6000fd5b505050506040513d602081101561282f57600080fd5b505191506128658261285961271061284d8b8863ffffffff614de216565b9063ffffffff614e8116565b9063ffffffff614e9816565b9050848111156128775784955061288b565b838110156128875783955061288b565b8095505b50505050509392505050565b606060008260405160200180807f746f6b656e2e76657273696f6e00000000000000000000000000000000000000815250600d0182600160a060020a0316600160a060020a0316606060020a028152601401915050604051602081830303815290604052604051808280519060200190808383602083106113d65780518252601f1990920191602091820191016113b7565b606060008260405160200180807f746f6b656e2e746c61000000000000000000000000000000000000000000000081525060090182600160a060020a0316600160a060020a0316606060020a028152601401915050604051602081830303815290604052604051808280519060200190808383602083106113d65780518252601f1990920191602091820191016113b7565b600080836129c98685613dc3565b6040516020018080600080516020615356833981519152815250600d0183805190602001908083835b60208310612a115780518252601f1990920191602091820191016129f2565b6001836020036101000a03801982511681845116808217855250505050505090500182600160a060020a0316600160a060020a0316606060020a028152601401925050506040516020818303038152906040526040518082805190602001908083835b60208310612a935780518252601f199092019160209182019101612a74565b51815160209384036101000a6000190180199092169116179052604080519290940182900382208b5460e060020a63bd02d0f5028452600484018290529451909750600160a060020a03909416955063bd02d0f5945060248083019491935090918290030181600087803b158015612b0a57600080fd5b505af1158015612b1e573d6000803e3d6000fd5b505050506040513d6020811015612b3457600080fd5b505195945050505050565b60008080600160a060020a0386161515612bc9576040805160e560020a62461bcd02815260206004820152602360248201527f4572726f723a2060746f6020616464726573732063616e6e6f74206265206e7560448201527f6c6c2e0000000000000000000000000000000000000000000000000000000000606482015290519081900360840190fd5b60008511612c47576040805160e560020a62461bcd02815260206004820152602960248201527f4572726f723a2060616d6f756e7460206d75737420626520677265617465722060448201527f7468616e207a65726f0000000000000000000000000000000000000000000000606482015290519081900360840190fd5b612c51883061222b565b9150612c5e8883876123a6565b9050612c708833611f998b8b8a613f98565b1515612cec576040805160e560020a62461bcd02815260206004820152603160248201527f4572726f723a20556e61626c6520746f20736574207370656e64696e6720616d60448201527f6f756e7420666f72206163636f756e742e000000000000000000000000000000606482015290519081900360840190fd5b612cfa88883389898961435e565b1515612d76576040805160e560020a62461bcd02815260206004820152602b60248201527f4572726f723a20556e61626c6520746f207472616e736665722066756e64732060448201527f746f206163636f756e742e000000000000000000000000000000000000000000606482015290519081900360840190fd5b612d8888883385856120b68e89613048565b15156110fe576040805160e560020a62461bcd02815260206004820152602f60248201527f4572726f723a20556e61626c6520746f207472616e736665722066656573207460448201527f6f2066656520636f6e74726163742e0000000000000000000000000000000000606482015290519081900360840190fd5b6000808260405160200180807f6665652e6270730000000000000000000000000000000000000000000000000081525060070182600160a060020a0316600160a060020a0316606060020a02815260140191505060405160208183030381529060405260405180828051906020019080838360208310611e6f5780518252601f199092019160209182019101611e50565b6000808260405160200180807f6665652e6d696e0000000000000000000000000000000000000000000000000081525060070182600160a060020a0316600160a060020a0316606060020a02815260140191505060405160208183030381529060405260405180828051906020019080838360208310611e6f5780518252601f199092019160209182019101611e50565b6000808260405160200180807f6665652e6d61780000000000000000000000000000000000000000000000000081525060070182600160a060020a0316600160a060020a0316606060020a02815260140191505060405160208183030381529060405260405180828051906020019080838360208310611e6f5780518252601f199092019160209182019101611e50565b6000808260405160200180807f6665652e666c617400000000000000000000000000000000000000000000000081525060080182600160a060020a0316600160a060020a0316606060020a02815260140191505060405160208183030381529060405260405180828051906020019080838360208310611e6f5780518252601f199092019160209182019101611e50565b606060008260405160200180807f6665652e6d73670000000000000000000000000000000000000000000000000081525060070182600160a060020a0316600160a060020a0316606060020a0281526014019150506040516020818303038152906040526040518082805190602001908083835b602083106130db5780518252601f1990920191602091820191016130bc565b5181516020939093036101000a60001901801990911692169190911790526040805191909301819003812089547fc031a180000000000000000000000000000000000000000000000000000000008352600483018290529351909650600160a060020a03909316945063c031a1809350602480820193600093509182900301818387803b15801561146657600080fd5b600080846131798786613dc3565b6131838886613dc3565b60405160200180807f746f6b656e2e616c6c6f77616e63650000000000000000000000000000000000815250600f0184805190602001908083835b602083106131dd5780518252601f1990920191602091820191016131be565b6001836020036101000a03801982511681845116808217855250505050505090500183600160a060020a0316600160a060020a0316606060020a02815260140182600160a060020a0316600160a060020a0316606060020a02815260140193505050506040516020818303038152906040526040518082805190602001908083835b6020831061327e5780518252601f19909201916020918201910161325f565b51815160209384036101000a6000190180199092169116179052604080519290940182900382208c5460e060020a63bd02d0f5028452600484018290529451909750600160a060020a03909416955063bd02d0f5945060248083019491935090918290030181600087803b1580156132f557600080fd5b505af1158015613309573d6000803e3d6000fd5b505050506040513d602081101561331f57600080fd5b50519695505050505050565b604080517f746f6b656e2e6e616d6500000000000000000000000000000000000000000000602080830191909152606060020a3002602a8301528251601e818403018152603e909201928390528151600093849392909182918401908083835b602083106133aa5780518252601f19909201916020918201910161338b565b51815160209384036101000a6000190180199092169116179052604080519290940182900382208a547f6e89955000000000000000000000000000000000000000000000000000000000845260048401828152602485019687528b5160448601528b51929950600160a060020a039091169750636e899550965088958b9550909390926064909101919085019080838360005b8381101561345557818101518382015260200161343d565b50505050905090810190601f1680156134825780820380516001836020036101000a031916815260200191505b509350505050602060405180830381600087803b1580156134a257600080fd5b505af11580156134b6573d6000803e3d6000fd5b505050506040513d60208110156134cc57600080fd5b50511515610838576040805160e560020a62461bcd028152602060048201526068602482015260008051602061543883398151915260448201527f75652e20506c6561736520656e7375726520636f6e747261637420696e74657260648201527f6661636520697320616c6c6f776564206279207468652073746f72616765206360848201527f6f6e74726163742e00000000000000000000000000000000000000000000000060a482015290519081900360c40190fd5b604080517f746f6b656e2e73796d626f6c0000000000000000000000000000000000000000602080830191909152606060020a3002602c83015282518083038201815291830192839052815160009384939290918291840190808383602083106133aa5780518252601f19909201916020918201910161338b565b604080517f746f6b656e2e746c610000000000000000000000000000000000000000000000602080830191909152606060020a300260298301528251601d818403018152603d90920192839052815160009384939290918291840190808383602083106133aa5780518252601f19909201916020918201910161338b565b604080517f746f6b656e2e76657273696f6e00000000000000000000000000000000000000602080830191909152606060020a3002602d83015282516021818403018152604190920192839052815160009384939290918291840190808383602083106133aa5780518252601f19909201916020918201910161338b565b6000808360405160200180807f746f6b656e2e646563696d616c73000000000000000000000000000000000000815250600e0182805190602001908083835b602083106137595780518252601f19909201916020918201910161373a565b6001836020036101000a0380198251168184511680821785525050505050509050019150506040516020818303038152906040526040518082805190602001908083835b602083106137bc5780518252601f19909201916020918201910161379d565b51815160209384036101000a6000190180199092169116179052604080519290940182900382208b5460e160020a637152429d02845260048401829052602484018b90529451909750600160a060020a03909416955063e2a4853a945060448083019491935090918290030181600087803b15801561383a57600080fd5b505af115801561384e573d6000803e3d6000fd5b505050506040513d602081101561386457600080fd5b5051151561391c576040805160e560020a62461bcd028152602060048201526068602482015260008051602061543883398151915260448201527f75652e20506c6561736520656e7375726520636f6e747261637420696e74657260648201527f6661636520697320616c6c6f776564206279207468652073746f72616765206360848201527f6f6e74726163742e00000000000000000000000000000000000000000000000060a482015290519081900360c40190fd5b506001949350505050565b604080517f6665652e6163636f756e74000000000000000000000000000000000000000000602080830191909152606060020a3002602b8301528251601f818403018152603f909201928390528151600093849392909182918401908083835b602083106139a65780518252601f199092019160209182019101613987565b51815160209384036101000a6000190180199092169116179052604080519290940182900382208a547fca446dd900000000000000000000000000000000000000000000000000000000845260048401829052600160a060020a038b81166024860152955191985094909416955063ca446dd9945060448083019491935090918290030181600087803b1580156134a257600080fd5b6000808360405160200180807f66782e7573642e72617465000000000000000000000000000000000000000000815250600b0182805190602001908083835b60208310613a9a5780518252601f199092019160209182019101613a7b565b6001836020036101000a0380198251168184511680821785525050505050509050019150506040516020818303038152906040526040518082805190602001908083835b60208310613afd5780518252601f199092019160209182019101613ade565b51815160209384036101000a6000190180199092169116179052604080519290940182900382208b5460e160020a637152429d02845260048401829052602484018b90529451909750600160a060020a03909416955063e2a4853a945060448083019491935090918290030181600087803b158015613b7b57600080fd5b505af1158015613b8f573d6000803e3d6000fd5b505050506040513d6020811015613ba557600080fd5b5051151561391c576040805160e560020a62461bcd02815260206004820152603060248201527f4572726f723a20556e61626c6520746f20757064617465206163636f756e742060448201527f7370656e64696e6720706572696f642e00000000000000000000000000000000606482015290519081900360840190fd5b600080600160a060020a0383161515613cac576040805160e560020a62461bcd02815260206004820152602760248201527f4572726f723a2063616e6e6f74206465707265636174652061206e756c6c206160448201527f6464726573732e00000000000000000000000000000000000000000000000000606482015290519081900360840190fd5b604080517f6465706372656361746564000000000000000000000000000000000000000000602080830191909152606060020a600160a060020a03871602602b8301528251601f818403018152603f90920192839052815191929182918401908083835b60208310613d2f5780518252601f199092019160209182019101613d10565b51815160209384036101000a6000190180199092169116179052604080519290940182900382208a547fabfdcced00000000000000000000000000000000000000000000000000000000845260048401829052600160248501529451909750600160a060020a03909416955063abfdcced945060448083019491935090918290030181600087803b1580156134a257600080fd5b60008060008360405160200180807f6d61737465722e6163636f756e74000000000000000000000000000000000000815250600e0182600160a060020a0316600160a060020a0316606060020a0281526014019150506040516020818303038152906040526040518082805190602001908083835b60208310613e575780518252601f199092019160209182019101613e38565b51815160209384036101000a6000190180199092169116179052604080519290940182900382208b547f21f8a721000000000000000000000000000000000000000000000000000000008452600484018290529451909850600160a060020a0390941695506321f8a721945060248083019491935090918290030181600087803b158015613ee457600080fd5b505af1158015613ef8573d6000803e3d6000fd5b505050506040513d6020811015613f0e57600080fd5b50519050600160a060020a03811615613f295780925061239e565b83925061239e565b60008083613f3f8685613dc3565b60405160200180807f746f6b656e2e66726f7a656e0000000000000000000000000000000000000000815250600c01838051906020019080838360208310612a115780518252601f1990920191602091820191016129f2565b600080600080613fdd876040805190810160405280600481526020017f55534478000000000000000000000000000000000000000000000000000000008152506121ce565b9250613fe987876121ce565b915061402582600a0a61284d85600a0a61401961271061284d61400c8e8e614f1b565b8c9063ffffffff614de216565b9063ffffffff614de216565b979650505050505050565b600080600061403f8686614f78565b15156140bb576040805160e560020a62461bcd02815260206004820152603060248201527f4572726f723a20556e61626c6520746f20757064617465206163636f756e742060448201527f7370656e64696e6720706572696f642e00000000000000000000000000000000606482015290519081900360840190fd5b6140c984612859888861505b565b9150816140d687876150fd565b1015614152576040805160e560020a62461bcd02815260206004820152603360248201527f4572726f723a204163636f756e742063616e6e6f74206578636565642069747360448201527f206461696c79207370656e64206c696d69742e00000000000000000000000000606482015290519081900360840190fd5b8461415d878761518e565b60405160200180807f6163636f756e742e7370656e64696e672e616d6f756e7400000000000000000081525060170183600160a060020a0316600160a060020a0316606060020a028152601401828152602001925050506040516020818303038152906040526040518082805190602001908083835b602083106141f25780518252601f1990920191602091820191016141d3565b51815160209384036101000a6000190180199092169116179052604080519290940182900382208c5460e160020a637152429d02845260048401829052602484018a90529451909750600160a060020a03909416955063e2a4853a945060448083019491935090918290030181600087803b15801561427057600080fd5b505af1158015614284573d6000803e3d6000fd5b505050506040513d602081101561429a57600080fd5b50511515614352576040805160e560020a62461bcd028152602060048201526068602482015260008051602061543883398151915260448201527f75652e20506c6561736520656e7375726520636f6e747261637420696e74657260648201527f6661636520697320616c6c6f776564206279207468652073746f72616765206360848201527f6f6e74726163742e00000000000000000000000000000000000000000000000060a482015290519081900360c40190fd5b50600195945050505050565b60008080600160a060020a03861615156143e8576040805160e560020a62461bcd02815260206004820152602560248201527f4572726f723a2060746f602061646472657373206d757374206e6f742062652060448201527f6e756c6c2e000000000000000000000000000000000000000000000000000000606482015290519081900360840190fd5b876143f38a89613dc3565b6040516020018080600080516020615356833981519152815250600d0183805190602001908083835b6020831061443b5780518252601f19909201916020918201910161441c565b6001836020036101000a03801982511681845116808217855250505050505090500182600160a060020a0316600160a060020a0316606060020a028152601401925050506040516020818303038152906040526040518082805190602001908083835b602083106144bd5780518252601f19909201916020918201910161449e565b6001836020036101000a03801982511681845116808217855250505050505090500191505060405180910390209150876144f78a88613dc3565b6040516020018080600080516020615356833981519152815250600d0183805190602001908083835b6020831061453f5780518252601f199092019160209182019101614520565b6001836020036101000a03801982511681845116808217855250505050505090500182600160a060020a0316600160a060020a0316606060020a028152601401925050506040516020818303038152906040526040518082805190602001908083835b602083106145c15780518252601f1990920191602091820191016145a2565b51815160209384036101000a6000190180199092169116179052604080519290940182900382208f5460e060020a63bd02d0f5028452600484018a90529451909750600160a060020a03909416955063e2a4853a9450879361467c93508b92879263bd02d0f5926024808401938290030181600087803b15801561464457600080fd5b505af1158015614658573d6000803e3d6000fd5b505050506040513d602081101561466e57600080fd5b50519063ffffffff61521f16565b6040518363ffffffff1660e060020a02815260040180836000191660001916815260200182815260200192505050602060405180830381600087803b1580156146c457600080fd5b505af11580156146d8573d6000803e3d6000fd5b505050506040513d60208110156146ee57600080fd5b50511515614770576040805160e560020a62461bcd0281526020600482015260696024820152600080516020615438833981519152604482015260008051602061541883398151915260648201526000805160206153f8833981519152608482015260008051602061545883398151915260a482015290519081900360c40190fd5b88546040805160e060020a63bd02d0f5028152600481018490529051600160a060020a039092169163e2a4853a918491614807918a91869163bd02d0f59160248083019260209291908290030181600087803b1580156147cf57600080fd5b505af11580156147e3573d6000803e3d6000fd5b505050506040513d60208110156147f957600080fd5b50519063ffffffff614e9816565b6040518363ffffffff1660e060020a02815260040180836000191660001916815260200182815260200192505050602060405180830381600087803b15801561484f57600080fd5b505af1158015614863573d6000803e3d6000fd5b505050506040513d602081101561487957600080fd5b505115156148fb576040805160e560020a62461bcd0281526020600482015260696024820152600080516020615438833981519152604482015260008051602061541883398151915260648201526000805160206153f8833981519152608482015260008051602061545883398151915260a482015290519081900360c40190fd5b85600160a060020a031687600160a060020a03167f6f3dcde00ed34d4f404b335a65d18fb4adf74f5b817aa46f5d7c4f05c6d1e96e8a8888604051808060200184815260200180602001838103835286818151815260200191508051906020019080838360005b8381101561497a578181015183820152602001614962565b50505050905090810190601f1680156149a75780820380516001836020036101000a031916815260200191505b50838103825284518152845160209182019186019080838360005b838110156149da5781810151838201526020016149c2565b50505050905090810190601f168015614a075780820380516001836020036101000a031916815260200191505b509550505050505060405180910390a350600198975050505050505050565b60008084614a348786613dc3565b614a3e8833613dc3565b60405160200180807f746f6b656e2e616c6c6f77616e63650000000000000000000000000000000000815250600f0184805190602001908083835b60208310614a985780518252601f199092019160209182019101614a79565b6001836020036101000a03801982511681845116808217855250505050505090500183600160a060020a0316600160a060020a0316606060020a02815260140182600160a060020a0316600160a060020a0316606060020a02815260140193505050506040516020818303038152906040526040518082805190602001908083835b60208310614b395780518252601f199092019160209182019101614b1a565b51815160209384036101000a6000190180199092169116179052604080519290940182900382208c5460e060020a63bd02d0f5028452600484018290529451909750600160a060020a03909416955063e2a4853a94508693614bbc93508992879263bd02d0f5926024808401938290030181600087803b15801561464457600080fd5b6040518363ffffffff1660e060020a02815260040180836000191660001916815260200182815260200192505050602060405180830381600087803b158015614c0457600080fd5b505af1158015614c18573d6000803e3d6000fd5b505050506040513d6020811015614c2e57600080fd5b50511515614352576040805160e560020a62461bcd0281526020600482015260696024820152600080516020615438833981519152604482015260008051602061541883398151915260648201526000805160206153f8833981519152608482015260008051602061545883398151915260a482015290519081900360c40190fd5b60008060405160200180807f6665652e636f6e74726163742e6d61737465720000000000000000000000000081525060130190506040516020818303038152906040526040518082805190602001908083835b60208310614d225780518252601f199092019160209182019101614d03565b51815160209384036101000a60001901801990921691161790526040805192909401829003822089547f21f8a721000000000000000000000000000000000000000000000000000000008452600484018290529451909750600160a060020a0390941695506321f8a721945060248083019491935090918290030181600087803b158015614daf57600080fd5b505af1158015614dc3573d6000803e3d6000fd5b505050506040513d6020811015614dd957600080fd5b50519392505050565b600080831515614df557600091506114f1565b50828202828482811515614e0557fe5b0414610c89576040805160e560020a62461bcd02815260206004820152602760248201527f4572726f723a20556e73616665206d756c7469706c69636174696f6e206f706560448201527f726174696f6e2100000000000000000000000000000000000000000000000000606482015290519081900360840190fd5b6000808284811515614e8f57fe5b04949350505050565b600082820183811015610c89576040805160e560020a62461bcd02815260206004820152602160248201527f4572726f723a20556e73616665206164646974696f6e206f7065726174696f6e60448201527f2100000000000000000000000000000000000000000000000000000000000000606482015290519081900360840190fd5b6000808260405160200180807f66782e7573642e72617465000000000000000000000000000000000000000000815250600b01828051906020019080838360208310611e0c5780518252601f199092019160209182019101611ded565b6000806000614f87858561518e565b915042821115614f9a576001925061239e565b5062015180614fd68585614fd1614fc48561401960016128598361284d428d63ffffffff61521f16565b869063ffffffff614e9816565b6152a4565b1515615052576040805160e560020a62461bcd02815260206004820152603060248201527f4572726f723a20556e61626c6520746f20757064617465206163636f756e742060448201527f7370656e64696e6720706572696f642e00000000000000000000000000000000606482015290519081900360840190fd5b6001925061239e565b60008082615069858561518e565b60405160200180807f6163636f756e742e7370656e64696e672e616d6f756e7400000000000000000081525060170183600160a060020a0316600160a060020a0316606060020a0281526014018281526020019250505060405160208183030381529060405260405180828051906020019080838360208310611e6f5780518252601f199092019160209182019101611e50565b6000808260405160200180807f6163636f756e742e7370656e64696e672e6c696d69740000000000000000000081525060160182600160a060020a0316600160a060020a0316606060020a02815260140191505060405160208183030381529060405260405180828051906020019080838360208310611e6f5780518252601f199092019160209182019101611e50565b6000808260405160200180807f6c696d69742e7370656e64696e672e706572696f64000000000000000000000081525060150182600160a060020a0316600160a060020a0316606060020a02815260140191505060405160208183030381529060405260405180828051906020019080838360208310611e6f5780518252601f199092019160209182019101611e50565b60008282111561529e576040805160e560020a62461bcd028152602060048201526024808201527f4572726f723a20556e73616665207375627472616374696f6e206f706572617460448201527f696f6e2100000000000000000000000000000000000000000000000000000000606482015290519081900360840190fd5b50900390565b6000808360405160200180807f6c696d69742e7370656e64696e672e706572696f64000000000000000000000081525060150182600160a060020a0316600160a060020a0316606060020a028152601401915050604051602081830303815290604052604051808280519060200190808383602083106137bc5780518252601f19909201916020918201910161379d560020616c6c6f7765642062792074686520636f6e74726163742e00000000000000746f6b656e2e62616c616e6365000000000000000000000000000000000000004572726f723a20556e61626c6520746f207472616e736665722066756e64732e20506c6561736520636865636b20796f757220706172616d657465727320616e6420656e7375726520746865207370656e646572206861732074686520617070726f76656420616d6f756e74206f662066756e647320746f207472616e736665722e6c6c6f776564207065726d697373696f6e7320776974682073746f726167652075652e20506c6561736520656e7375726520636f6e74726163742068617320614572726f723a20556e61626c6520746f207365742073746f726167652076616c636f6e74726163742e00000000000000000000000000000000000000000000004572726f723a205472616e73616374696f6e2073656e646572206973206e6f74a165627a7a723058200c9617c9915829e5d747c0f9c842b737ef9886fd2b0e028949cdaf19f2e3bb890029",
  "source": "pragma solidity 0.4.24;\n\nimport \"./Ownable.sol\";\nimport \"./TokenIOStorage.sol\";\nimport \"./TokenIOLib.sol\";\n\n\n\n/*\nCOPYRIGHT 2018 Token, Inc.\n\nTHE SOFTWARE IS PROVIDED \"AS IS\", WITHOUT WARRANTY OF ANY KIND, EXPRESS OR IMPLIED,\nINCLUDING BUT NOT LIMITED TO THE WARRANTIES OF MERCHANTABILITY, FITNESS FOR A\nPARTICULAR PURPOSE AND NONINFRINGEMENT. IN NO EVENT SHALL THE AUTHORS OR\nCOPYRIGHT HOLDERS BE LIABLE FOR ANY CLAIM, DAMAGES OR OTHER LIABILITY, WHETHER\nIN AN ACTION OF CONTRACT, TORT OR OTHERWISE, ARISING FROM, OUT OF OR IN CONNECTION\nWITH THE SOFTWARE OR THE USE OR OTHER DEALINGS IN THE SOFTWARE.\n\n@title ERC20 Compliant Smart Contract for Token, Inc.\n\n@author Ryan Tate <ryan.tate@token.io>, Sean Pollock <sean.pollock@token.io>\n\n@notice Contract uses generalized storage contract, `TokenIOStorage`, for\nupgradeability of interface contract.\n\n@dev In the event that the main contract becomes deprecated, the upgraded contract\nwill be set as the owner of this contract, and use this contract's storage to\nmaintain data consistency between contract.\n*/\n\n\n\ncontract TokenIOERC20 is Ownable {\n  //// @dev Set reference to TokenIOLib interface which proxies to TokenIOStorage\n  using TokenIOLib for TokenIOLib.Data;\n  TokenIOLib.Data lib;\n\n  /**\n  * @notice Constructor method for ERC20 contract\n  * @param _storageContract     address of TokenIOStorage contract\n  */\n  constructor(address _storageContract) public {\n    //// @dev Set the storage contract for the interface\n    //// @dev This contract will be unable to use the storage constract until\n    //// @dev contract address is authorized with the storage contract\n    //// @dev Once authorized, Use the `setParams` method to set storage values\n    lib.Storage = TokenIOStorage(_storageContract);\n\n    //// @dev set owner to contract initiator\n    owner[msg.sender] = true;\n  }\n\n\n  /**\n  @notice Sets erc20 globals and fee paramters\n  @param _name Full token name  'USD by token.io'\n  @param _symbol Symbol name 'USDx'\n  @param _tla Three letter abbreviation 'USD'\n  @param _version Release version 'v0.0.1'\n  @param _decimals Decimal precision\n  @param _feeContract Address of fee contract\n  @return { \"success\" : \"Returns true if successfully called from another contract\"}\n  */\n  function setParams(\n    string _name,\n    string _symbol,\n    string _tla,\n    string _version,\n    uint _decimals,\n    address _feeContract,\n    uint _fxUSDBPSRate\n    ) onlyOwner public returns (bool success) {\n      require(lib.setTokenName(_name),\n        \"Error: Unable to set token name. Please check arguments.\");\n      require(lib.setTokenSymbol(_symbol),\n        \"Error: Unable to set token symbol. Please check arguments.\");\n      require(lib.setTokenTLA(_tla),\n        \"Error: Unable to set token TLA. Please check arguments.\");\n      require(lib.setTokenVersion(_version),\n        \"Error: Unable to set token version. Please check arguments.\");\n      require(lib.setTokenDecimals(_symbol, _decimals),\n        \"Error: Unable to set token decimals. Please check arguments.\");\n      require(lib.setFeeContract(_feeContract),\n        \"Error: Unable to set fee contract. Please check arguments.\");\n      require(lib.setFxUSDBPSRate(_symbol, _fxUSDBPSRate),\n        \"Error: Unable to set fx USD basis points rate. Please check arguments.\");\n      return true;\n    }\n\n    /**\n    * @notice Gets name of token\n    * @return {\"_name\" : \"Returns name of token\"}\n    */\n    function name() public view returns (string _name) {\n      return lib.getTokenName(address(this));\n    }\n\n    /**\n    * @notice Gets symbol of token\n    * @return {\"_symbol\" : \"Returns symbol of token\"}\n    */\n    function symbol() public view returns (string _symbol) {\n      return lib.getTokenSymbol(address(this));\n    }\n\n    /**\n    * @notice Gets three-letter-abbreviation of token\n    * @return {\"_tla\" : \"Returns three-letter-abbreviation of token\"}\n    */\n    function tla() public view returns (string _tla) {\n      return lib.getTokenTLA(address(this));\n    }\n\n    /**\n    * @notice Gets version of token\n    * @return {\"_version\" : \"Returns version of token\"}\n    */\n    function version() public view returns (string _version) {\n      return lib.getTokenVersion(address(this));\n    }\n\n    /**\n    * @notice Gets decimals of token\n    * @return {\"_decimals\" : \"Returns number of decimals\"}\n    */\n    function decimals() public view returns (uint _decimals) {\n      return lib.getTokenDecimals(lib.getTokenSymbol(address(this)));\n    }\n\n    /**\n    * @notice Gets total supply of token\n    * @return {\"supply\" : \"Returns current total supply of token\"}\n    */\n    function totalSupply() public view returns (uint supply) {\n      return lib.getTokenSupply(lib.getTokenSymbol(address(this)));\n    }\n\n    /**\n    * @notice Gets allowance that spender has with approver\n    * @param account Address of approver\n    * @param spender Address of spender\n    * @return {\"amount\" : \"Returns allowance of given account and spender\"}\n    */\n    function allowance(address account, address spender) public view returns (uint amount) {\n      return lib.getTokenAllowance(lib.getTokenSymbol(address(this)), account, spender);\n    }\n\n    /**\n    * @notice Gets balance of account\n    * @param account Address for balance lookup\n    * @return {\"balance\" : \"Returns balance amount\"}\n    */\n    function balanceOf(address account) public view returns (uint balance) {\n      return lib.getTokenBalance(lib.getTokenSymbol(address(this)), account);\n    }\n\n    /**\n    * @notice Gets fee parameters\n    * @return {\n      \"bps\":\"Fee amount as a mesuare of basis points\",\n      \"min\":\"Minimum fee amount\",\n      \"max\":\"Maximum fee amount\",\n      \"flat\":\"Flat fee amount\",\n      \"contract\":\"Address of fee contract\"\n      }\n    */\n    function getFeeParams() public view returns (uint bps, uint min, uint max, uint flat, bytes feeMsg, address feeAccount) {\n      address feeContract = lib.getFeeContract(address(this));\n      return (\n        lib.getFeeBPS(feeContract),\n        lib.getFeeMin(feeContract),\n        lib.getFeeMax(feeContract),\n        lib.getFeeFlat(feeContract),\n        lib.getFeeMsg(feeContract),\n        feeContract\n      );\n    }\n\n    /**\n    * @notice Calculates fee of a given transfer amount\n    * @param amount Amount to calculcate fee value\n    * @return {\"fees\": \"Returns the calculated transaction fees based on the fee contract parameters\"}\n    */\n    function calculateFees(uint amount) public view returns (uint fees) {\n      return lib.calculateFees(lib.getFeeContract(address(this)), amount);\n    }\n\n    /**\n    * @notice transfers 'amount' from msg.sender to a receiving account 'to'\n    * @param to Receiving address\n    * @param amount Transfer amount\n    * @return {\"success\" : \"Returns true if transfer succeeds\"}\n    */\n    function transfer(address to, uint amount) public notDeprecated returns (bool success) {\n      /// @notice send transfer through library\n      /// @dev !!! mutates storage state\n      require(\n        lib.transfer(lib.getTokenSymbol(address(this)), to, amount, \"0x0\"),\n        \"Error: Unable to transfer funds. Please check your parameters.\"\n      );\n      return true;\n    }\n\n    /**\n    * @notice spender transfers from approvers account to the reciving account\n    * @param from Approver's address\n    * @param to Receiving address\n    * @param amount Transfer amount\n    * @return {\"success\" : \"Returns true if transferFrom succeeds\"}\n    */\n    function transferFrom(address from, address to, uint amount) public notDeprecated returns (bool success) {\n      /// @notice sends transferFrom through library\n      /// @dev !!! mutates storage state\n      require(\n        lib.transferFrom(lib.getTokenSymbol(address(this)), from, to, amount, \"0x0\"),\n        \"Error: Unable to transfer funds. Please check your parameters and ensure the spender has the approved amount of funds to transfer.\"\n      );\n      return true;\n    }\n\n    /**\n    * @notice approves spender a given amount\n    * @param spender Spender's address\n    * @param amount Allowance amount\n    * @return {\"success\" : \"Returns true if approve succeeds\"}\n    */\n    function approve(address spender, uint amount) public notDeprecated returns (bool success) {\n      /// @notice sends approve through library\n      /// @dev !!! mtuates storage states\n      require(\n        lib.approveAllowance(spender, amount),\n        \"Error: Unable to approve allowance for spender. Please ensure spender is not null and does not have a frozen balance.\"\n      );\n      return true;\n    }\n\n    /**\n    * @notice gets currency status of contract\n    * @return {\"deprecated\" : \"Returns true if deprecated, false otherwise\"}\n    */\n    function deprecateInterface() public onlyOwner returns (bool deprecated) {\n      require(lib.setDeprecatedContract(address(this)),\n        \"Error: Unable to deprecate contract!\");\n      return true;\n    }\n\n    modifier notDeprecated() {\n      /// @notice throws if contract is deprecated\n      require(!lib.isContractDeprecated(address(this)),\n        \"Error: Contract has been deprecated, cannot perform operation!\");\n      _;\n    }\n\n  }\n",
  "sourcePath": "/Users/ryan/Projects/TokenInc/tokeninc-smart-contracts/contracts/TokenIOERC20.sol",
  "compiler": {
    "name": "solc",
    "version": "0.4.24+commit.e67f0147.Emscripten.clang"
  },
  "schemaVersion": "2.0.1",
  "updatedAt": "2018-10-24T17:36:20.208Z"
}