{
  "contractName": "TokenIOFeeContract",
  "abi": [
    {
      "constant": false,
      "inputs": [
        {
          "name": "allowedAddress",
          "type": "address"
        }
      ],
      "name": "allowOwnership",
      "outputs": [
        {
          "name": "success",
          "type": "bool"
        }
      ],
      "payable": false,
      "stateMutability": "nonpayable",
      "type": "function"
    },
    {
      "constant": false,
      "inputs": [
        {
          "name": "allowedAddress",
          "type": "address"
        }
      ],
      "name": "removeOwnership",
      "outputs": [
        {
          "name": "success",
          "type": "bool"
        }
      ],
      "payable": false,
      "stateMutability": "nonpayable",
      "type": "function"
    },
    {
      "constant": true,
      "inputs": [
        {
          "name": "",
          "type": "address"
        }
      ],
      "name": "owner",
      "outputs": [
        {
          "name": "",
          "type": "bool"
        }
      ],
      "payable": false,
      "stateMutability": "view",
      "type": "function"
    },
    {
      "constant": false,
      "inputs": [
        {
          "name": "newOwner",
          "type": "address"
        }
      ],
      "name": "transferOwnership",
      "outputs": [
        {
          "name": "success",
          "type": "bool"
        }
      ],
      "payable": false,
      "stateMutability": "nonpayable",
      "type": "function"
    },
    {
      "inputs": [
        {
          "name": "_storageContract",
          "type": "address"
        }
      ],
      "payable": false,
      "stateMutability": "nonpayable",
      "type": "constructor"
    },
    {
      "anonymous": false,
      "inputs": [
        {
          "indexed": true,
          "name": "previousOwner",
          "type": "address"
        },
        {
          "indexed": true,
          "name": "newOwner",
          "type": "address"
        }
      ],
      "name": "OwnershipTransferred",
      "type": "event"
    },
    {
      "anonymous": false,
      "inputs": [
        {
          "indexed": true,
          "name": "allowedAddress",
          "type": "address"
        }
      ],
      "name": "AllowOwnership",
      "type": "event"
    },
    {
      "anonymous": false,
      "inputs": [
        {
          "indexed": true,
          "name": "allowedAddress",
          "type": "address"
        }
      ],
      "name": "RevokeOwnership",
      "type": "event"
    },
    {
      "constant": false,
      "inputs": [
        {
          "name": "feeBps",
          "type": "uint256"
        },
        {
          "name": "feeMin",
          "type": "uint256"
        },
        {
          "name": "feeMax",
          "type": "uint256"
        },
        {
          "name": "feeFlat",
          "type": "uint256"
        },
        {
          "name": "feeMsg",
          "type": "bytes"
        }
      ],
      "name": "setFeeParams",
      "outputs": [
        {
          "name": "success",
          "type": "bool"
        }
      ],
      "payable": false,
      "stateMutability": "nonpayable",
      "type": "function"
    },
    {
      "constant": true,
      "inputs": [],
      "name": "getFeeParams",
      "outputs": [
        {
          "name": "bps",
          "type": "uint256"
        },
        {
          "name": "min",
          "type": "uint256"
        },
        {
          "name": "max",
          "type": "uint256"
        },
        {
          "name": "flat",
          "type": "uint256"
        },
        {
          "name": "feeMsg",
          "type": "bytes"
        },
        {
          "name": "feeContract",
          "type": "address"
        }
      ],
      "payable": false,
      "stateMutability": "view",
      "type": "function"
    },
    {
      "constant": true,
      "inputs": [
        {
          "name": "currency",
          "type": "string"
        }
      ],
      "name": "getTokenBalance",
      "outputs": [
        {
          "name": "balance",
          "type": "uint256"
        }
      ],
      "payable": false,
      "stateMutability": "view",
      "type": "function"
    },
    {
      "constant": true,
      "inputs": [
        {
          "name": "amount",
          "type": "uint256"
        }
      ],
      "name": "calculateFees",
      "outputs": [
        {
          "name": "fees",
          "type": "uint256"
        }
      ],
      "payable": false,
      "stateMutability": "view",
      "type": "function"
    },
    {
      "constant": false,
      "inputs": [
        {
          "name": "currency",
          "type": "string"
        },
        {
          "name": "to",
          "type": "address"
        },
        {
          "name": "amount",
          "type": "uint256"
        },
        {
          "name": "data",
          "type": "bytes"
        }
      ],
      "name": "transferCollectedFees",
      "outputs": [
        {
          "name": "success",
          "type": "bool"
        }
      ],
      "payable": false,
      "stateMutability": "nonpayable",
      "type": "function"
    }
  ],
  "bytecode": "0x608060405234801561001057600080fd5b506040516020806126a4833981016040908152905133600090815260208190529182208054600160ff19918216811783558054600160a060020a031916600160a060020a03909416939093178355815416909117905561262e90819061007690396000f30060806040526004361061007f5763ffffffff60e060020a600035041663025abd58811461008457806313b4312f146100ef5780634bbc142c146101b057806352238fdd146101d1578063666a3427146101e9578063666e1b391461020a578063aa08dfd31461022b578063be6fc18114610296578063f2fde38b14610358575b600080fd5b34801561009057600080fd5b506040805160206004803580820135601f81018490048402850184019095528484526100dd9436949293602493928401919081908401838280828437509497506103799650505050505050565b60408051918252519081900360200190f35b3480156100fb57600080fd5b506040805160206004803580820135601f810184900484028501840190955284845261019c94369492936024939284019190819084018382808284375050604080516020888301358a018035601f8101839004830284018301909452838352979a8935600160a060020a03169a8a8301359a919990985060609091019650919450908101925081908401838280828437509497506103939650505050505050565b604080519115158252519081900360200190f35b3480156101bc57600080fd5b5061019c600160a060020a036004351661049a565b3480156101dd57600080fd5b506100dd600435610556565b3480156101f557600080fd5b5061019c600160a060020a036004351661056a565b34801561021657600080fd5b5061019c600160a060020a0360043516610623565b34801561023757600080fd5b50604080516020601f60843560048181013592830184900484028501840190955281845261019c948035946024803595604435956064359536959460a49490939101919081908401838280828437509497506106389650505050505050565b3480156102a257600080fd5b506102ab610916565b604051808781526020018681526020018581526020018481526020018060200183600160a060020a0316600160a060020a03168152602001828103825284818151815260200191508051906020019080838360005b83811015610318578181015183820152602001610300565b50505050905090810190601f1680156103455780820380516001836020036101000a031916815260200191505b5097505050505050505060405180910390f35b34801561036457600080fd5b5061019c600160a060020a0360043516610987565b600061038d6001833063ffffffff610ac116565b92915050565b3360009081526020819052604081205460ff1615156103fe576040805160e560020a62461bcd02815260206004820152603960248201526000805160206125e383398151915260448201526000805160206125a3833981519152606482015290519081900360840190fd5b6104136001863087878763ffffffff610c5716565b151561048f576040805160e560020a62461bcd02815260206004820152602a60248201527f4572726f723a20756e61626c6520746f207472616e736665722066656573207460448201527f6f206163636f756e742e00000000000000000000000000000000000000000000606482015290519081900360840190fd5b506001949350505050565b3360009081526020819052604081205460ff161515610505576040805160e560020a62461bcd02815260206004820152603960248201526000805160206125e383398151915260448201526000805160206125a3833981519152606482015290519081900360840190fd5b600160a060020a038216600081815260208190526040808220805460ff19166001179055517f1c965cca064792c08083e8746b9062155a2f163d9f9ddab08196d5b2e3a818c59190a2506001919050565b600061038d6001308463ffffffff6113d316565b3360009081526020819052604081205460ff1615156105d5576040805160e560020a62461bcd02815260206004820152603960248201526000805160206125e383398151915260448201526000805160206125a3833981519152606482015290519081900360840190fd5b600160a060020a038216600081815260208190526040808220805460ff19169055517f2d760b10f59f9d65a092cfebe73f70fd0a4e19e59791ffd61ee3057a0010ad989190a2506001919050565b60006020819052908152604090205460ff1681565b3360009081526020819052604081205460ff1615156106a3576040805160e560020a62461bcd02815260206004820152603960248201526000805160206125e383398151915260448201526000805160206125a3833981519152606482015290519081900360840190fd5b6106b460018763ffffffff6118c416565b151561071e576040805160e560020a62461bcd02815260206004820152602f60248201526000805160206125c383398151915260448201527f7420626173697320706f696e74732e0000000000000000000000000000000000606482015290519081900360840190fd5b61072f60018663ffffffff611ad716565b1515610799576040805160e560020a62461bcd02815260206004820152602e60248201526000805160206125c383398151915260448201527f74206d696e696d756d206665652e000000000000000000000000000000000000606482015290519081900360840190fd5b6107aa60018563ffffffff611b5516565b1515610814576040805160e560020a62461bcd02815260206004820152602e60248201526000805160206125c383398151915260448201527f74206d6178696d756d206665652e000000000000000000000000000000000000606482015290519081900360840190fd5b61082560018463ffffffff611bd316565b151561088f576040805160e560020a62461bcd02815260206004820152602b60248201526000805160206125c383398151915260448201527f7420666c6174206665652e000000000000000000000000000000000000000000606482015290519081900360840190fd5b6108a060018363ffffffff611c5116565b151561090a576040805160e560020a62461bcd02815260206004820152603260248201526000805160206125c383398151915260448201527f742064656661756c74206d6573736167652e0000000000000000000000000000606482015290519081900360840190fd5b50600195945050505050565b600080808060608161092f60013063ffffffff611dc816565b61094060013063ffffffff611f0516565b61095160013063ffffffff611f9616565b61096260013063ffffffff61202716565b61097360013063ffffffff6120b816565b939a92995090975095509093503092509050565b3360009081526020819052604081205460ff1615156109f2576040805160e560020a62461bcd02815260206004820152603960248201526000805160206125e383398151915260448201526000805160206125a3833981519152606482015290519081900360840190fd5b600160a060020a0382161515610a52576040805160e560020a62461bcd02815260206004820152601f60248201527f4572726f723a206e65774f776e65722063616e6e6f74206265206e756c6c2100604482015290519081900360640190fd5b604051600160a060020a0383169033907f8be0079c531659141344cd1fd0a4f28419497f9722a3daafe3b4186f6b6457e090600090a350600160a060020a03166000908152602081905260408082208054600160ff199182168117909255338452919092208054909116905590565b60008083610acf868561226b565b60405160200180807f746f6b656e2e62616c616e636500000000000000000000000000000000000000815250600d0183805190602001908083835b60208310610b295780518252601f199092019160209182019101610b0a565b6001836020036101000a03801982511681845116808217855250505050505090500182600160a060020a0316600160a060020a0316606060020a028152601401925050506040516020818303038152906040526040518082805190602001908083835b60208310610bab5780518252601f199092019160209182019101610b8c565b51815160209384036101000a6000190180199092169116179052604080519290940182900382208b5460e060020a63bd02d0f5028452600484018290529451909750600160a060020a03909416955063bd02d0f5945060248083019491935090918290030181600087803b158015610c2257600080fd5b505af1158015610c36573d6000803e3d6000fd5b505050506040513d6020811015610c4c57600080fd5b505195945050505050565b60008080600160a060020a0386161515610ce1576040805160e560020a62461bcd02815260206004820152602560248201527f4572726f723a2060746f602061646472657373206d757374206e6f742062652060448201527f6e756c6c2e000000000000000000000000000000000000000000000000000000606482015290519081900360840190fd5b87610cec8a8961226b565b60405160200180807f746f6b656e2e62616c616e636500000000000000000000000000000000000000815250600d0183805190602001908083835b60208310610d465780518252601f199092019160209182019101610d27565b6001836020036101000a03801982511681845116808217855250505050505090500182600160a060020a0316600160a060020a0316606060020a028152601401925050506040516020818303038152906040526040518082805190602001908083835b60208310610dc85780518252601f199092019160209182019101610da9565b6001836020036101000a0380198251168184511680821785525050505050509050019150506040518091039020915087610e028a8861226b565b60405160200180807f746f6b656e2e62616c616e636500000000000000000000000000000000000000815250600d0183805190602001908083835b60208310610e5c5780518252601f199092019160209182019101610e3d565b6001836020036101000a03801982511681845116808217855250505050505090500182600160a060020a0316600160a060020a0316606060020a028152601401925050506040516020818303038152906040526040518082805190602001908083835b60208310610ede5780518252601f199092019160209182019101610ebf565b51815160209384036101000a6000190180199092169116179052604080519290940182900382208f5460e060020a63bd02d0f5028452600484018a90529451909750600160a060020a03909416955063e2a4853a94508793610f9993508b92879263bd02d0f5926024808401938290030181600087803b158015610f6157600080fd5b505af1158015610f75573d6000803e3d6000fd5b505050506040513d6020811015610f8b57600080fd5b50519063ffffffff6123dd16565b6040518363ffffffff1660e060020a02815260040180836000191660001916815260200182815260200192505050602060405180830381600087803b158015610fe157600080fd5b505af1158015610ff5573d6000803e3d6000fd5b505050506040513d602081101561100b57600080fd5b505115156110d5576040805160e560020a62461bcd02815260206004820152606960248201527f4572726f723a20556e61626c6520746f207365742073746f726167652076616c60448201527f75652e20506c6561736520656e7375726520636f6e747261637420686173206160648201527f6c6c6f776564207065726d697373696f6e7320776974682073746f726167652060848201527f636f6e74726163742e000000000000000000000000000000000000000000000060a482015290519081900360c40190fd5b88546040805160e060020a63bd02d0f5028152600481018490529051600160a060020a039092169163e2a4853a91849161116c918a91869163bd02d0f59160248083019260209291908290030181600087803b15801561113457600080fd5b505af1158015611148573d6000803e3d6000fd5b505050506040513d602081101561115e57600080fd5b50519063ffffffff61246216565b6040518363ffffffff1660e060020a02815260040180836000191660001916815260200182815260200192505050602060405180830381600087803b1580156111b457600080fd5b505af11580156111c8573d6000803e3d6000fd5b505050506040513d60208110156111de57600080fd5b505115156112a8576040805160e560020a62461bcd02815260206004820152606960248201527f4572726f723a20556e61626c6520746f207365742073746f726167652076616c60448201527f75652e20506c6561736520656e7375726520636f6e747261637420686173206160648201527f6c6c6f776564207065726d697373696f6e7320776974682073746f726167652060848201527f636f6e74726163742e000000000000000000000000000000000000000000000060a482015290519081900360c40190fd5b85600160a060020a031687600160a060020a03167f6f3dcde00ed34d4f404b335a65d18fb4adf74f5b817aa46f5d7c4f05c6d1e96e8a8888604051808060200184815260200180602001838103835286818151815260200191508051906020019080838360005b8381101561132757818101518382015260200161130f565b50505050905090810190601f1680156113545780820380516001836020036101000a031916815260200191505b50838103825284518152845160209182019186019080838360005b8381101561138757818101518382015260200161136f565b50505050905090810190601f1680156113b45780820380516001836020036101000a031916815260200191505b509550505050505060405180910390a350600198975050505050505050565b8254604080517f6665652e6d617800000000000000000000000000000000000000000000000000602080830191909152600160a060020a03868116606060020a0260278401528351808403601b018152603b9093019384905282516000958695869586958695869594169363bd02d0f593918291908401908083835b6020831061146e5780518252601f19909201916020918201910161144f565b51815160209384036101000a60001901801990921691161790526040805192909401829003822063ffffffff881660e060020a0283526004830152925160248083019650939450929083900301905081600087803b1580156114cf57600080fd5b505af11580156114e3573d6000803e3d6000fd5b505050506040513d60208110156114f957600080fd5b50518954604080517f6665652e6d696e00000000000000000000000000000000000000000000000000602080830191909152600160a060020a038d8116606060020a0260278401528351808403601b018152603b909301938490528251959a509093169363bd02d0f5939192918291908401908083835b6020831061158f5780518252601f199092019160209182019101611570565b51815160209384036101000a60001901801990921691161790526040805192909401829003822063ffffffff881660e060020a0283526004830152925160248083019650939450929083900301905081600087803b1580156115f057600080fd5b505af1158015611604573d6000803e3d6000fd5b505050506040513d602081101561161a57600080fd5b50518954604080517f6665652e62707300000000000000000000000000000000000000000000000000602080830191909152600160a060020a038d8116606060020a0260278401528351808403601b018152603b9093019384905282519599509093169363bd02d0f5939192918291908401908083835b602083106116b05780518252601f199092019160209182019101611691565b51815160209384036101000a60001901801990921691161790526040805192909401829003822063ffffffff881660e060020a0283526004830152925160248083019650939450929083900301905081600087803b15801561171157600080fd5b505af1158015611725573d6000803e3d6000fd5b505050506040513d602081101561173b57600080fd5b50518954604080517f6665652e666c6174000000000000000000000000000000000000000000000000602080830191909152600160a060020a038d8116606060020a0260288401528351808403601c018152603c9093019384905282519598509093169363bd02d0f5939192918291908401908083835b602083106117d15780518252601f1990920191602091820191016117b2565b51815160209384036101000a60001901801990921691161790526040805192909401829003822063ffffffff881660e060020a0283526004830152925160248083019650939450929083900301905081600087803b15801561183257600080fd5b505af1158015611846573d6000803e3d6000fd5b505050506040513d602081101561185c57600080fd5b505191506118928261188661271061187a8b8863ffffffff6124ec16565b9063ffffffff61258b16565b9063ffffffff61246216565b9050848111156118a4578495506118b8565b838110156118b4578395506118b8565b8095505b50505050509392505050565b604080517f6665652e62707300000000000000000000000000000000000000000000000000602080830191909152606060020a300260278301528251601b818403018152603b909201928390528151600093849392909182918401908083835b602083106119435780518252601f199092019160209182019101611924565b51815160209384036101000a6000190180199092169116179052604080519290940182900382208a547fe2a4853a00000000000000000000000000000000000000000000000000000000845260048401829052602484018b90529451909750600160a060020a03909416955063e2a4853a945060448083019491935090918290030181600087803b1580156119d757600080fd5b505af11580156119eb573d6000803e3d6000fd5b505050506040513d6020811015611a0157600080fd5b50511515611acb576040805160e560020a62461bcd02815260206004820152606860248201527f4572726f723a20556e61626c6520746f207365742073746f726167652076616c60448201527f75652e20506c6561736520656e7375726520636f6e747261637420696e74657260648201527f6661636520697320616c6c6f776564206279207468652073746f72616765206360848201527f6f6e74726163742e00000000000000000000000000000000000000000000000060a482015290519081900360c40190fd5b600191505b5092915050565b604080517f6665652e6d696e00000000000000000000000000000000000000000000000000602080830191909152606060020a300260278301528251601b818403018152603b90920192839052815160009384939290918291840190808383602083106119435780518252601f199092019160209182019101611924565b604080517f6665652e6d617800000000000000000000000000000000000000000000000000602080830191909152606060020a300260278301528251601b818403018152603b90920192839052815160009384939290918291840190808383602083106119435780518252601f199092019160209182019101611924565b604080517f6665652e666c6174000000000000000000000000000000000000000000000000602080830191909152606060020a300260288301528251601c818403018152603c90920192839052815160009384939290918291840190808383602083106119435780518252601f199092019160209182019101611924565b604080517f6665652e6d736700000000000000000000000000000000000000000000000000602080830191909152606060020a300260278301528251601b818403018152603b909201928390528151600093849392909182918401908083835b60208310611cd05780518252601f199092019160209182019101611cb1565b51815160209384036101000a6000190180199092169116179052604080519290940182900382208a547f2e28d08400000000000000000000000000000000000000000000000000000000845260048401828152602485019687528b5160448601528b51929950600160a060020a039091169750632e28d084965088958b9550909390926064909101919085019080838360005b83811015611d7b578181015183820152602001611d63565b50505050905090810190601f168015611da85780820380516001836020036101000a031916815260200191505b509350505050602060405180830381600087803b1580156119d757600080fd5b6000808260405160200180807f6665652e6270730000000000000000000000000000000000000000000000000081525060070182600160a060020a0316600160a060020a0316606060020a0281526014019150506040516020818303038152906040526040518082805190602001908083835b60208310611e5a5780518252601f199092019160209182019101611e3b565b51815160209384036101000a6000190180199092169116179052604080519290940182900382208a5460e060020a63bd02d0f5028452600484018290529451909750600160a060020a03909416955063bd02d0f5945060248083019491935090918290030181600087803b158015611ed157600080fd5b505af1158015611ee5573d6000803e3d6000fd5b505050506040513d6020811015611efb57600080fd5b5051949350505050565b6000808260405160200180807f6665652e6d696e0000000000000000000000000000000000000000000000000081525060070182600160a060020a0316600160a060020a0316606060020a02815260140191505060405160208183030381529060405260405180828051906020019080838360208310611e5a5780518252601f199092019160209182019101611e3b565b6000808260405160200180807f6665652e6d61780000000000000000000000000000000000000000000000000081525060070182600160a060020a0316600160a060020a0316606060020a02815260140191505060405160208183030381529060405260405180828051906020019080838360208310611e5a5780518252601f199092019160209182019101611e3b565b6000808260405160200180807f6665652e666c617400000000000000000000000000000000000000000000000081525060080182600160a060020a0316600160a060020a0316606060020a02815260140191505060405160208183030381529060405260405180828051906020019080838360208310611e5a5780518252601f199092019160209182019101611e3b565b606060008260405160200180807f6665652e6d73670000000000000000000000000000000000000000000000000081525060070182600160a060020a0316600160a060020a0316606060020a0281526014019150506040516020818303038152906040526040518082805190602001908083835b6020831061214b5780518252601f19909201916020918201910161212c565b5181516020939093036101000a60001901801990911692169190911790526040805191909301819003812089547fc031a180000000000000000000000000000000000000000000000000000000008352600483018290529351909650600160a060020a03909316945063c031a1809350602480820193600093509182900301818387803b1580156121db57600080fd5b505af11580156121ef573d6000803e3d6000fd5b505050506040513d6000823e601f3d908101601f19168201604052602081101561221857600080fd5b81019080805164010000000081111561223057600080fd5b8201602081018481111561224357600080fd5b815164010000000081118282018710171561225d57600080fd5b509098975050505050505050565b60008060008360405160200180807f6d61737465722e6163636f756e74000000000000000000000000000000000000815250600e0182600160a060020a0316600160a060020a0316606060020a0281526014019150506040516020818303038152906040526040518082805190602001908083835b602083106122ff5780518252601f1990920191602091820191016122e0565b51815160209384036101000a6000190180199092169116179052604080519290940182900382208b547f21f8a721000000000000000000000000000000000000000000000000000000008452600484018290529451909850600160a060020a0390941695506321f8a721945060248083019491935090918290030181600087803b15801561238c57600080fd5b505af11580156123a0573d6000803e3d6000fd5b505050506040513d60208110156123b657600080fd5b50519050600160a060020a038116156123d1578092506123d5565b8392505b505092915050565b60008282111561245c576040805160e560020a62461bcd028152602060048201526024808201527f4572726f723a20556e73616665207375627472616374696f6e206f706572617460448201527f696f6e2100000000000000000000000000000000000000000000000000000000606482015290519081900360840190fd5b50900390565b6000828201838110156124e5576040805160e560020a62461bcd02815260206004820152602160248201527f4572726f723a20556e73616665206164646974696f6e206f7065726174696f6e60448201527f2100000000000000000000000000000000000000000000000000000000000000606482015290519081900360840190fd5b9392505050565b6000808315156124ff5760009150611ad0565b5082820282848281151561250f57fe5b04146124e5576040805160e560020a62461bcd02815260206004820152602760248201527f4572726f723a20556e73616665206d756c7469706c69636174696f6e206f706560448201527f726174696f6e2100000000000000000000000000000000000000000000000000606482015290519081900360840190fd5b600080828481151561259957fe5b04949350505050560020616c6c6f7765642062792074686520636f6e74726163742e000000000000004572726f723a20556e61626c6520746f207365742066656520636f6e747261634572726f723a205472616e73616374696f6e2073656e646572206973206e6f74a165627a7a72305820215aae74e74e53e62457eae102d94e8ca00bc9ad6f55716da8455533040c8f5f0029",
  "source": "pragma solidity 0.4.24;\n\nimport \"./Ownable.sol\";\nimport \"./TokenIOStorage.sol\";\nimport \"./TokenIOLib.sol\";\n\n\n/*\nCOPYRIGHT 2018 Token, Inc.\n\nTHE SOFTWARE IS PROVIDED \"AS IS\", WITHOUT WARRANTY OF ANY KIND, EXPRESS OR IMPLIED,\nINCLUDING BUT NOT LIMITED TO THE WARRANTIES OF MERCHANTABILITY, FITNESS FOR A\nPARTICULAR PURPOSE AND NONINFRINGEMENT. IN NO EVENT SHALL THE AUTHORS OR\nCOPYRIGHT HOLDERS BE LIABLE FOR ANY CLAIM, DAMAGES OR OTHER LIABILITY, WHETHER\nIN AN ACTION OF CONTRACT, TORT OR OTHERWISE, ARISING FROM, OUT OF OR IN CONNECTION\nWITH THE SOFTWARE OR THE USE OR OTHER DEALINGS IN THE SOFTWARE.\n\n\n@title Standard Fee Contract for Token, Inc. Smart Money System\n\n@author Ryan Tate <ryan.tate@token.io>, Sean Pollock <sean.pollock@token.io>\n\n@notice Contract uses generalized storage contract, `TokenIOStorage`, for\nupgradeability of interface contract.\n\n@dev In the event that the main contract becomes deprecated, the upgraded contract\nwill be set as the owner of this contract, and use this contract's storage to\nmaintain data consistency between contract.\n\n*/\n\n\ncontract TokenIOFeeContract is Ownable {\n\n\t/// @dev Set reference to TokenIOLib interface which proxies to TokenIOStorage\n\tusing TokenIOLib for TokenIOLib.Data;\n\tTokenIOLib.Data lib;\n\n\n\t/**\n\t* @notice Constructor method for ERC20 contract\n\t* @param _storageContract     address of TokenIOStorage contract\n\t*/\n\tconstructor(address _storageContract) public {\n\t\t\t/// @dev Set the storage contract for the interface\n\t\t\t/// @dev NOTE: This contract will be unable to use the storage constract until\n\t\t\t/// @dev contract address is authorized with the storage contract\n\t\t\t/// @dev Once authorized, Use the `setParams` method to set storage values\n\t\t\tlib.Storage = TokenIOStorage(_storageContract);\n\n\t\t\t/// @dev set owner to contract initiator\n\t\t\towner[msg.sender] = true;\n\t}\n\n\t/**\n\t * @notice Set Fee Parameters for Fee Contract\n\t * @dev The min, max, flat transaction fees should be relative to decimal precision\n\t * @param feeBps Basis points transaction fee\n\t * @param feeMin Minimum transaction fees\n\t * @param feeMax Maximum transaction fee\n\t * @param feeFlat Flat transaction fee\n\t * returns {\"success\" : \"Returns true if successfully called from another contract\"}\n\t */\n\tfunction setFeeParams(uint feeBps, uint feeMin, uint feeMax, uint feeFlat, bytes feeMsg) public onlyOwner returns (bool success) {\n\t\trequire(lib.setFeeBPS(feeBps), \"Error: Unable to set fee contract basis points.\");\n\t\trequire(lib.setFeeMin(feeMin), \"Error: Unable to set fee contract minimum fee.\");\n\t\trequire(lib.setFeeMax(feeMax), \"Error: Unable to set fee contract maximum fee.\");\n\t\trequire(lib.setFeeFlat(feeFlat), \"Error: Unable to set fee contract flat fee.\");\n\t\trequire(lib.setFeeMsg(feeMsg), \"Error: Unable to set fee contract default message.\");\n\t\treturn true;\n\t}\n\n\t/**\n\t \t* @notice Gets fee parameters\n\t\t* @return {\n\t\t\"bps\":\"Returns the basis points fee of the TokenIOFeeContract\",\n\t\t\"min\":\"Returns the min fee of the TokenIOFeeContract\",\n\t\t\"max\":\"Returns the max fee of the TokenIOFeeContract\",\n\t\t\"flat\":\"Returns the flat fee of the TokenIOFeeContract\",\n\t\t\"feeContract\": \"Address of this contract\"\n\t}\n\t*/\n\tfunction getFeeParams() public view returns (uint bps, uint min, uint max, uint flat, bytes feeMsg, address feeContract) {\n\t\t\treturn (\n\t\t\t\t\tlib.getFeeBPS(address(this)),\n\t\t\t\t\tlib.getFeeMin(address(this)),\n\t\t\t\t\tlib.getFeeMax(address(this)),\n\t\t\t\t\tlib.getFeeFlat(address(this)),\n\t\t\t\t\tlib.getFeeMsg(address(this)),\n\t\t\t\t\taddress(this)\n\t\t\t);\n\t}\n\n\t/**\n\t * @notice Returns balance of this contract associated with currency symbol.\n\t * @param  currency Currency symbol of the token (e.g. USDx, JYPx, GBPx)\n\t * @return {\"balance\": \"Balance of TokenIO TSM currency account\"}\n\t */\n\tfunction getTokenBalance(string currency) public view returns(uint balance) {\n\t\treturn lib.getTokenBalance(currency, address(this));\n\t}\n\n\t/** @notice Calculates fee of a given transfer amount\n\t * @param amount transfer amount\n\t * @return { \"fees\": \"Returns the fees associated with this contract\"}\n\t */\n\tfunction calculateFees(uint amount) public view returns (uint fees) {\n\t\treturn lib.calculateFees(address(this), amount);\n\t}\n\n\n\t/**\n\t * @notice Transfer collected fees to another account; onlyOwner\n\t * @param  currency Currency symbol of the token (e.g. USDx, JYPx, GBPx)\n\t * @param  to \t\t\tEthereum address of account to send token amount to\n\t * @param  amount\t  Amount of tokens to transfer\n\t * @param  data\t\t  Arbitrary bytes data message to include in transfer\n\t * @return {\"success\": \"Returns ture if successfully called from another contract\"}\n\t */\n\tfunction transferCollectedFees(string currency, address to, uint amount, bytes data) public onlyOwner returns (bool success) {\n\t\trequire(\n\t\t\tlib.forceTransfer(currency, address(this), to, amount, data),\n\t\t\t\"Error: unable to transfer fees to account.\"\n\t\t);\n\t\treturn true;\n\t}\n\n\n}\n",
  "sourcePath": "/Users/ryan/Projects/TokenInc/tokeninc-smart-contracts/contracts/TokenIOFeeContract.sol",
  "compiler": {
    "name": "solc",
    "version": "0.4.24+commit.e67f0147.Emscripten.clang"
  },
  "schemaVersion": "2.0.1",
  "updatedAt": "2018-10-24T17:29:03.346Z"
}