{
  "contractName": "MultiSig",
  "abi": [
    {
      "constant": true,
      "inputs": [],
      "name": "_storage",
      "outputs": [
        {
          "name": "",
          "type": "address"
        }
      ],
      "payable": false,
      "stateMutability": "view",
      "type": "function"
    },
    {
      "inputs": [
        {
          "name": "storageContract",
          "type": "address"
        }
      ],
      "payable": false,
      "stateMutability": "nonpayable",
      "type": "constructor"
    },
    {
      "constant": false,
      "inputs": [
        {
          "name": "_initialOwners",
          "type": "address[5]"
        }
      ],
      "name": "initializeOwners",
      "outputs": [
        {
          "name": "",
          "type": "bool"
        }
      ],
      "payable": false,
      "stateMutability": "nonpayable",
      "type": "function"
    }
  ],
  "bytecode": "0x6060604052341561000f57600080fd5b6040516020806103db83398101604052808051906020019091905050806000806101000a81548173ffffffffffffffffffffffffffffffffffffffff021916908373ffffffffffffffffffffffffffffffffffffffff16021790555033600160006101000a81548173ffffffffffffffffffffffffffffffffffffffff021916908373ffffffffffffffffffffffffffffffffffffffff1602179055505061031f806100bc6000396000f30060606040526004361061004c576000357c0100000000000000000000000000000000000000000000000000000000900463ffffffff168063988801c514610051578063c3fb90d6146100af575b600080fd5b341561005c57600080fd5b6100956004808060a001906005806020026040519081016040528092919082600560200280828437820191505050505091905050610104565b604051808215151515815260200191505060405180910390f35b34156100ba57600080fd5b6100c26102ce565b604051808273ffffffffffffffffffffffffffffffffffffffff1673ffffffffffffffffffffffffffffffffffffffff16815260200191505060405180910390f35b6000803373ffffffffffffffffffffffffffffffffffffffff16600160009054906101000a900473ffffffffffffffffffffffffffffffffffffffff1673ffffffffffffffffffffffffffffffffffffffff1614151561016357600080fd5b600090505b60058110156102c4576000809054906101000a900473ffffffffffffffffffffffffffffffffffffffff1673ffffffffffffffffffffffffffffffffffffffff1663abfdcced84836005811015156101bc57fe5b602002015160405180807f6d756c74697369672e6f776e6572000000000000000000000000000000000000815250600e018273ffffffffffffffffffffffffffffffffffffffff1673ffffffffffffffffffffffffffffffffffffffff166c01000000000000000000000000028152601401915050604051809103902060016040518363ffffffff167c01000000000000000000000000000000000000000000000000000000000281526004018083600019166000191681526020018215151515815260200192505050602060405180830381600087803b151561029f57600080fd5b5af115156102ac57600080fd5b50505060405180519050508080600101915050610168565b6001915050919050565b6000809054906101000a900473ffffffffffffffffffffffffffffffffffffffff16815600a165627a7a7230582046996b61788168846927a5bd792ec1aa9c8a38583becaf50019ef41e161fe1b90029",
  "source": "pragma solidity 0.4.21;\n\nimport \"./StorageInterface.sol\";\n\n\ncontract MultiSig {\n\n    StorageInterface public _storage;\n    address private _admin;\n\n    function MultiSig(StorageInterface storageContract) public {\n        _storage = StorageInterface(storageContract);\n        _admin = msg.sender;\n    }\n\n    function initializeOwners(address[5] _initialOwners) public onlyAdmin returns (bool) {\n        for (uint owner = 0; owner < _initialOwners.length; owner++) {\n            _storage.setBool(keccak256(\"multisig.owner\", _initialOwners[owner]), true);\n        }\n        return true;\n    }\n\n    modifier onlyAdmin() {\n        require(_admin == msg.sender);\n        _;\n    }\n\n}\n\n\n// Step 1: Deploy Storage Contract\n// Step 2: Deploy MultiSig Contract w/ Storage Contract Address\n",
  "sourcePath": "/Users/ryan/Projects/TokenInc/tokeninc-smart-contracts/contracts/MultiSig.sol",
  "compiler": {
    "name": "solc",
    "version": "0.4.21+commit.dfe3193c.Emscripten.clang"
  },
  "schemaVersion": "2.0.0",
  "updatedAt": "2018-04-15T23:57:37.456Z"
}