{
  "contractName": "MultiSigOwner",
  "abi": [
    {
      "constant": true,
      "inputs": [],
      "name": "_storage",
      "outputs": [
        {
          "name": "",
          "type": "address"
        }
      ],
      "payable": false,
      "stateMutability": "view",
      "type": "function"
    },
    {
      "inputs": [
        {
          "name": "_storageContract",
          "type": "address"
        }
      ],
      "payable": false,
      "stateMutability": "nonpayable",
      "type": "constructor"
    }
  ],
  "bytecode": "0x6060604052341561000f57600080fd5b60405160208061016183398101604052808051906020019091905050806000806101000a81548173ffffffffffffffffffffffffffffffffffffffff021916908373ffffffffffffffffffffffffffffffffffffffff1602179055505060e78061007a6000396000f300606060405260043610603f576000357c0100000000000000000000000000000000000000000000000000000000900463ffffffff168063c3fb90d6146044575b600080fd5b3415604e57600080fd5b60546096565b604051808273ffffffffffffffffffffffffffffffffffffffff1673ffffffffffffffffffffffffffffffffffffffff16815260200191505060405180910390f35b6000809054906101000a900473ffffffffffffffffffffffffffffffffffffffff16815600a165627a7a72305820f1e8b09fae72d24302f1474b92bca877ae7e2005711585061153592d609b24350029",
  "source": "pragma solidity 0.4.21;\n\nimport \"./StorageInterface.sol\";\n\ncontract MultiSigOwner {\n\n  StorageInterface public _storage;\n\n  function MultiSigOwner(StorageInterface _storageContract) public {\n    _storage = StorageInterface(_storageContract);\n  }\n\n}\n",
  "sourcePath": "/Users/ryan/Projects/TokenInc/tokeninc-smart-contracts/contracts/MultiSigOwner.sol",
  "compiler": {
    "name": "solc",
    "version": "0.4.21+commit.dfe3193c.Emscripten.clang"
  },
  "schemaVersion": "2.0.0",
  "updatedAt": "2018-04-15T18:21:41.566Z"
}