{
  "contractName": "Storage",
  "abi": [
    {
      "inputs": [],
      "payable": false,
      "stateMutability": "nonpayable",
      "type": "constructor"
    },
    {
      "constant": false,
      "inputs": [
        {
          "name": "_key",
          "type": "bytes32"
        },
        {
          "name": "_value",
          "type": "address"
        }
      ],
      "name": "setAddress",
      "outputs": [],
      "payable": false,
      "stateMutability": "nonpayable",
      "type": "function"
    },
    {
      "constant": false,
      "inputs": [
        {
          "name": "_key",
          "type": "bytes32"
        },
        {
          "name": "_value",
          "type": "uint256"
        }
      ],
      "name": "setUint",
      "outputs": [],
      "payable": false,
      "stateMutability": "nonpayable",
      "type": "function"
    },
    {
      "constant": false,
      "inputs": [
        {
          "name": "_key",
          "type": "bytes32"
        },
        {
          "name": "_value",
          "type": "string"
        }
      ],
      "name": "setString",
      "outputs": [],
      "payable": false,
      "stateMutability": "nonpayable",
      "type": "function"
    },
    {
      "constant": false,
      "inputs": [
        {
          "name": "_key",
          "type": "bytes32"
        },
        {
          "name": "_value",
          "type": "bytes"
        }
      ],
      "name": "setBytes",
      "outputs": [],
      "payable": false,
      "stateMutability": "nonpayable",
      "type": "function"
    },
    {
      "constant": false,
      "inputs": [
        {
          "name": "_key",
          "type": "bytes32"
        },
        {
          "name": "_value",
          "type": "bool"
        }
      ],
      "name": "setBool",
      "outputs": [],
      "payable": false,
      "stateMutability": "nonpayable",
      "type": "function"
    },
    {
      "constant": false,
      "inputs": [
        {
          "name": "_key",
          "type": "bytes32"
        },
        {
          "name": "_value",
          "type": "int256"
        }
      ],
      "name": "setInt",
      "outputs": [],
      "payable": false,
      "stateMutability": "nonpayable",
      "type": "function"
    },
    {
      "constant": false,
      "inputs": [
        {
          "name": "_key",
          "type": "bytes32"
        }
      ],
      "name": "deleteAddress",
      "outputs": [],
      "payable": false,
      "stateMutability": "nonpayable",
      "type": "function"
    },
    {
      "constant": false,
      "inputs": [
        {
          "name": "_key",
          "type": "bytes32"
        }
      ],
      "name": "deleteUint",
      "outputs": [],
      "payable": false,
      "stateMutability": "nonpayable",
      "type": "function"
    },
    {
      "constant": false,
      "inputs": [
        {
          "name": "_key",
          "type": "bytes32"
        }
      ],
      "name": "deleteString",
      "outputs": [],
      "payable": false,
      "stateMutability": "nonpayable",
      "type": "function"
    },
    {
      "constant": false,
      "inputs": [
        {
          "name": "_key",
          "type": "bytes32"
        }
      ],
      "name": "deleteBytes",
      "outputs": [],
      "payable": false,
      "stateMutability": "nonpayable",
      "type": "function"
    },
    {
      "constant": false,
      "inputs": [
        {
          "name": "_key",
          "type": "bytes32"
        }
      ],
      "name": "deleteBool",
      "outputs": [],
      "payable": false,
      "stateMutability": "nonpayable",
      "type": "function"
    },
    {
      "constant": false,
      "inputs": [
        {
          "name": "_key",
          "type": "bytes32"
        }
      ],
      "name": "deleteInt",
      "outputs": [],
      "payable": false,
      "stateMutability": "nonpayable",
      "type": "function"
    },
    {
      "constant": true,
      "inputs": [
        {
          "name": "_key",
          "type": "bytes32"
        }
      ],
      "name": "getAddress",
      "outputs": [
        {
          "name": "",
          "type": "address"
        }
      ],
      "payable": false,
      "stateMutability": "view",
      "type": "function"
    },
    {
      "constant": true,
      "inputs": [
        {
          "name": "_key",
          "type": "bytes32"
        }
      ],
      "name": "getUint",
      "outputs": [
        {
          "name": "",
          "type": "uint256"
        }
      ],
      "payable": false,
      "stateMutability": "view",
      "type": "function"
    },
    {
      "constant": true,
      "inputs": [
        {
          "name": "_key",
          "type": "bytes32"
        }
      ],
      "name": "getString",
      "outputs": [
        {
          "name": "",
          "type": "string"
        }
      ],
      "payable": false,
      "stateMutability": "view",
      "type": "function"
    },
    {
      "constant": true,
      "inputs": [
        {
          "name": "_key",
          "type": "bytes32"
        }
      ],
      "name": "getBytes",
      "outputs": [
        {
          "name": "",
          "type": "bytes"
        }
      ],
      "payable": false,
      "stateMutability": "view",
      "type": "function"
    },
    {
      "constant": true,
      "inputs": [
        {
          "name": "_key",
          "type": "bytes32"
        }
      ],
      "name": "getBytes32",
      "outputs": [
        {
          "name": "",
          "type": "bytes32"
        }
      ],
      "payable": false,
      "stateMutability": "view",
      "type": "function"
    },
    {
      "constant": true,
      "inputs": [
        {
          "name": "_key",
          "type": "bytes32"
        }
      ],
      "name": "getBool",
      "outputs": [
        {
          "name": "",
          "type": "bool"
        }
      ],
      "payable": false,
      "stateMutability": "view",
      "type": "function"
    },
    {
      "constant": true,
      "inputs": [
        {
          "name": "_key",
          "type": "bytes32"
        }
      ],
      "name": "getInt",
      "outputs": [
        {
          "name": "",
          "type": "int256"
        }
      ],
      "payable": false,
      "stateMutability": "view",
      "type": "function"
    }
  ],
  "bytecode": "0x6060604052341561000f57600080fd5b6001600560003360405180807f6163636573732e726f6c65000000000000000000000000000000000000000000815250600b01807f6f776e65720000000000000000000000000000000000000000000000000000008152506005018273ffffffffffffffffffffffffffffffffffffffff1673ffffffffffffffffffffffffffffffffffffffff166c0100000000000000000000000002815260140191505060405180910390206000191660001916815260200190815260200160002060006101000a81548160ff0219169083151502179055503360405180807f6163636573732e726f6c65000000000000000000000000000000000000000000815250600b01807f6f776e65720000000000000000000000000000000000000000000000000000008152506005018273ffffffffffffffffffffffffffffffffffffffff1673ffffffffffffffffffffffffffffffffffffffff166c010000000000000000000000000281526014019150506040518091039020600460006001604051808260ff167f01000000000000000000000000000000000000000000000000000000000000000281526001019150506040518091039020600019166000191681526020019081526020016000208160001916905550611bc9806101f16000396000f300606060405260043610610107576000357c0100000000000000000000000000000000000000000000000000000000900463ffffffff1680630e14a3761461010c57806321f8a721146101335780632c62ff2d1461019a5780632e28d084146101c15780633e49bed0146101fc578063616b59f61461022c5780636e899550146102535780637ae1cfca1461028e5780638c160095146102cd578063986e791a146102f4578063a6ed563e14610394578063abfdcced146103d7578063bd02d0f514610409578063c031a18014610444578063ca446dd9146104e4578063dc97d9621461052a578063e2a4853a14610565578063e2b202bf14610595578063f6bb3cc4146105bc575b600080fd5b341561011757600080fd5b6101316004808035600019169060200190919050506105e3565b005b341561013e57600080fd5b610158600480803560001916906020019091905050610768565b604051808273ffffffffffffffffffffffffffffffffffffffff1673ffffffffffffffffffffffffffffffffffffffff16815260200191505060405180910390f35b34156101a557600080fd5b6101bf6004808035600019169060200190919050506107ad565b005b34156101cc57600080fd5b6101fa600480803560001916906020019091908035906020019082018035906020019190919290505061091f565b005b341561020757600080fd5b61022a600480803560001916906020019091908035906020019091905050610a93565b005b341561023757600080fd5b610251600480803560001916906020019091905050610bfb565b005b341561025e57600080fd5b61028c6004808035600019169060200190919080359060200190820180359060200191909192905050610d69565b005b341561029957600080fd5b6102b3600480803560001916906020019091905050610edd565b604051808215151515815260200191505060405180910390f35b34156102d857600080fd5b6102f2600480803560001916906020019091905050610f0f565b005b34156102ff57600080fd5b610319600480803560001916906020019091905050611075565b6040518080602001828103825283818151815260200191508051906020019080838360005b8381101561035957808201518184015260208101905061033e565b50505050905090810190601f1680156103865780820380516001836020036101000a031916815260200191505b509250505060405180910390f35b341561039f57600080fd5b6103b9600480803560001916906020019091905050611138565b60405180826000191660001916815260200191505060405180910390f35b34156103e257600080fd5b610407600480803560001916906020019091908035151590602001909190505061115d565b005b341561041457600080fd5b61042e6004808035600019169060200190919050506112d8565b6040518082815260200191505060405180910390f35b341561044f57600080fd5b6104696004808035600019169060200190919050506112fc565b6040518080602001828103825283818151815260200191508051906020019080838360005b838110156104a957808201518184015260208101905061048e565b50505050905090810190601f1680156104d65780820380516001836020036101000a031916815260200191505b509250505060405180910390f35b34156104ef57600080fd5b61052860048080356000191690602001909190803573ffffffffffffffffffffffffffffffffffffffff169060200190919050506113bf565b005b341561053557600080fd5b61054f600480803560001916906020019091905050611561565b6040518082815260200191505060405180910390f35b341561057057600080fd5b610593600480803560001916906020019091908035906020019091905050611586565b005b34156105a057600080fd5b6105ba6004808035600019169060200190919050506116ed565b005b34156105c757600080fd5b6105e1600480803560001916906020019091905050611852565b005b600115156005600060405180807f636f6e74726163742e73746f726167652e696e697469616c6973656400000000815250601c01905060405180910390206000191660001916815260200190815260200160002060009054906101000a900460ff1615151415610727576000600260003360405180807f636f6e74726163742e61646472657373000000000000000000000000000000008152506010018273ffffffffffffffffffffffffffffffffffffffff1673ffffffffffffffffffffffffffffffffffffffff166c0100000000000000000000000002815260140191505060405180910390206000191660001916815260200190815260200160002060009054906101000a900473ffffffffffffffffffffffffffffffffffffffff1673ffffffffffffffffffffffffffffffffffffffff161415151561072657600080fd5b5b60026000826000191660001916815260200190815260200160002060006101000a81549073ffffffffffffffffffffffffffffffffffffffff021916905550565b600060026000836000191660001916815260200190815260200160002060009054906101000a900473ffffffffffffffffffffffffffffffffffffffff169050919050565b600115156005600060405180807f636f6e74726163742e73746f726167652e696e697469616c6973656400000000815250601c01905060405180910390206000191660001916815260200190815260200160002060009054906101000a900460ff16151514156108f1576000600260003360405180807f636f6e74726163742e61646472657373000000000000000000000000000000008152506010018273ffffffffffffffffffffffffffffffffffffffff1673ffffffffffffffffffffffffffffffffffffffff166c0100000000000000000000000002815260140191505060405180910390206000191660001916815260200190815260200160002060009054906101000a900473ffffffffffffffffffffffffffffffffffffffff1673ffffffffffffffffffffffffffffffffffffffff16141515156108f057600080fd5b5b60056000826000191660001916815260200190815260200160002060006101000a81549060ff021916905550565b600115156005600060405180807f636f6e74726163742e73746f726167652e696e697469616c6973656400000000815250601c01905060405180910390206000191660001916815260200190815260200160002060009054906101000a900460ff1615151415610a63576000600260003360405180807f636f6e74726163742e61646472657373000000000000000000000000000000008152506010018273ffffffffffffffffffffffffffffffffffffffff1673ffffffffffffffffffffffffffffffffffffffff166c0100000000000000000000000002815260140191505060405180910390206000191660001916815260200190815260200160002060009054906101000a900473ffffffffffffffffffffffffffffffffffffffff1673ffffffffffffffffffffffffffffffffffffffff1614151515610a6257600080fd5b5b81816003600086600019166000191681526020019081526020016000209190610a8d9291906119c0565b50505050565b600115156005600060405180807f636f6e74726163742e73746f726167652e696e697469616c6973656400000000815250601c01905060405180910390206000191660001916815260200190815260200160002060009054906101000a900460ff1615151415610bd7576000600260003360405180807f636f6e74726163742e61646472657373000000000000000000000000000000008152506010018273ffffffffffffffffffffffffffffffffffffffff1673ffffffffffffffffffffffffffffffffffffffff166c0100000000000000000000000002815260140191505060405180910390206000191660001916815260200190815260200160002060009054906101000a900473ffffffffffffffffffffffffffffffffffffffff1673ffffffffffffffffffffffffffffffffffffffff1614151515610bd657600080fd5b5b80600660008460001916600019168152602001908152602001600020819055505050565b600115156005600060405180807f636f6e74726163742e73746f726167652e696e697469616c6973656400000000815250601c01905060405180910390206000191660001916815260200190815260200160002060009054906101000a900460ff1615151415610d3f576000600260003360405180807f636f6e74726163742e61646472657373000000000000000000000000000000008152506010018273ffffffffffffffffffffffffffffffffffffffff1673ffffffffffffffffffffffffffffffffffffffff166c0100000000000000000000000002815260140191505060405180910390206000191660001916815260200190815260200160002060009054906101000a900473ffffffffffffffffffffffffffffffffffffffff1673ffffffffffffffffffffffffffffffffffffffff1614151515610d3e57600080fd5b5b6003600082600019166000191681526020019081526020016000206000610d669190611a40565b50565b600115156005600060405180807f636f6e74726163742e73746f726167652e696e697469616c6973656400000000815250601c01905060405180910390206000191660001916815260200190815260200160002060009054906101000a900460ff1615151415610ead576000600260003360405180807f636f6e74726163742e61646472657373000000000000000000000000000000008152506010018273ffffffffffffffffffffffffffffffffffffffff1673ffffffffffffffffffffffffffffffffffffffff166c0100000000000000000000000002815260140191505060405180910390206000191660001916815260200190815260200160002060009054906101000a900473ffffffffffffffffffffffffffffffffffffffff1673ffffffffffffffffffffffffffffffffffffffff1614151515610eac57600080fd5b5b81816001600086600019166000191681526020019081526020016000209190610ed7929190611a88565b50505050565b600060056000836000191660001916815260200190815260200160002060009054906101000a900460ff169050919050565b600115156005600060405180807f636f6e74726163742e73746f726167652e696e697469616c6973656400000000815250601c01905060405180910390206000191660001916815260200190815260200160002060009054906101000a900460ff1615151415611053576000600260003360405180807f636f6e74726163742e61646472657373000000000000000000000000000000008152506010018273ffffffffffffffffffffffffffffffffffffffff1673ffffffffffffffffffffffffffffffffffffffff166c0100000000000000000000000002815260140191505060405180910390206000191660001916815260200190815260200160002060009054906101000a900473ffffffffffffffffffffffffffffffffffffffff1673ffffffffffffffffffffffffffffffffffffffff161415151561105257600080fd5b5b6006600082600019166000191681526020019081526020016000206000905550565b61107d611b08565b6001600083600019166000191681526020019081526020016000208054600181600116156101000203166002900480601f01602080910402602001604051908101604052809291908181526020018280546001816001161561010002031660029004801561112c5780601f106111015761010080835404028352916020019161112c565b820191906000526020600020905b81548152906001019060200180831161110f57829003601f168201915b50505050509050919050565b6000600460008360001916600019168152602001908152602001600020549050919050565b600115156005600060405180807f636f6e74726163742e73746f726167652e696e697469616c6973656400000000815250601c01905060405180910390206000191660001916815260200190815260200160002060009054906101000a900460ff16151514156112a1576000600260003360405180807f636f6e74726163742e61646472657373000000000000000000000000000000008152506010018273ffffffffffffffffffffffffffffffffffffffff1673ffffffffffffffffffffffffffffffffffffffff166c0100000000000000000000000002815260140191505060405180910390206000191660001916815260200190815260200160002060009054906101000a900473ffffffffffffffffffffffffffffffffffffffff1673ffffffffffffffffffffffffffffffffffffffff16141515156112a057600080fd5b5b8060056000846000191660001916815260200190815260200160002060006101000a81548160ff0219169083151502179055505050565b60008060008360001916600019168152602001908152602001600020549050919050565b611304611b1c565b6003600083600019166000191681526020019081526020016000208054600181600116156101000203166002900480601f0160208091040260200160405190810160405280929190818152602001828054600181600116156101000203166002900480156113b35780601f10611388576101008083540402835291602001916113b3565b820191906000526020600020905b81548152906001019060200180831161139657829003601f168201915b50505050509050919050565b600115156005600060405180807f636f6e74726163742e73746f726167652e696e697469616c6973656400000000815250601c01905060405180910390206000191660001916815260200190815260200160002060009054906101000a900460ff1615151415611503576000600260003360405180807f636f6e74726163742e61646472657373000000000000000000000000000000008152506010018273ffffffffffffffffffffffffffffffffffffffff1673ffffffffffffffffffffffffffffffffffffffff166c0100000000000000000000000002815260140191505060405180910390206000191660001916815260200190815260200160002060009054906101000a900473ffffffffffffffffffffffffffffffffffffffff1673ffffffffffffffffffffffffffffffffffffffff161415151561150257600080fd5b5b8060026000846000191660001916815260200190815260200160002060006101000a81548173ffffffffffffffffffffffffffffffffffffffff021916908373ffffffffffffffffffffffffffffffffffffffff1602179055505050565b6000600660008360001916600019168152602001908152602001600020549050919050565b600115156005600060405180807f636f6e74726163742e73746f726167652e696e697469616c6973656400000000815250601c01905060405180910390206000191660001916815260200190815260200160002060009054906101000a900460ff16151514156116ca576000600260003360405180807f636f6e74726163742e61646472657373000000000000000000000000000000008152506010018273ffffffffffffffffffffffffffffffffffffffff1673ffffffffffffffffffffffffffffffffffffffff166c0100000000000000000000000002815260140191505060405180910390206000191660001916815260200190815260200160002060009054906101000a900473ffffffffffffffffffffffffffffffffffffffff1673ffffffffffffffffffffffffffffffffffffffff16141515156116c957600080fd5b5b806000808460001916600019168152602001908152602001600020819055505050565b600115156005600060405180807f636f6e74726163742e73746f726167652e696e697469616c6973656400000000815250601c01905060405180910390206000191660001916815260200190815260200160002060009054906101000a900460ff1615151415611831576000600260003360405180807f636f6e74726163742e61646472657373000000000000000000000000000000008152506010018273ffffffffffffffffffffffffffffffffffffffff1673ffffffffffffffffffffffffffffffffffffffff166c0100000000000000000000000002815260140191505060405180910390206000191660001916815260200190815260200160002060009054906101000a900473ffffffffffffffffffffffffffffffffffffffff1673ffffffffffffffffffffffffffffffffffffffff161415151561183057600080fd5b5b60008082600019166000191681526020019081526020016000206000905550565b600115156005600060405180807f636f6e74726163742e73746f726167652e696e697469616c6973656400000000815250601c01905060405180910390206000191660001916815260200190815260200160002060009054906101000a900460ff1615151415611996576000600260003360405180807f636f6e74726163742e61646472657373000000000000000000000000000000008152506010018273ffffffffffffffffffffffffffffffffffffffff1673ffffffffffffffffffffffffffffffffffffffff166c0100000000000000000000000002815260140191505060405180910390206000191660001916815260200190815260200160002060009054906101000a900473ffffffffffffffffffffffffffffffffffffffff1673ffffffffffffffffffffffffffffffffffffffff161415151561199557600080fd5b5b60016000826000191660001916815260200190815260200160002060006119bd9190611b30565b50565b828054600181600116156101000203166002900490600052602060002090601f016020900481019282601f10611a0157803560ff1916838001178555611a2f565b82800160010185558215611a2f579182015b82811115611a2e578235825591602001919060010190611a13565b5b509050611a3c9190611b78565b5090565b50805460018160011615610100020316600290046000825580601f10611a665750611a85565b601f016020900490600052602060002090810190611a849190611b78565b5b50565b828054600181600116156101000203166002900490600052602060002090601f016020900481019282601f10611ac957803560ff1916838001178555611af7565b82800160010185558215611af7579182015b82811115611af6578235825591602001919060010190611adb565b5b509050611b049190611b78565b5090565b602060405190810160405280600081525090565b602060405190810160405280600081525090565b50805460018160011615610100020316600290046000825580601f10611b565750611b75565b601f016020900490600052602060002090810190611b749190611b78565b5b50565b611b9a91905b80821115611b96576000816000905550600101611b7e565b5090565b905600a165627a7a723058200c69637a208bacfcf6c3fbe0ebc60ba2c0d1d2028cb9ceadd975c2b490c08aea0029",
  "source": "pragma solidity 0.4.21;\n\n// NOTE: This contract is inspired by the RocketPool Storage Contract,\n// found here: https://github.com/rocket-pool/rocketpool/blob/master/contracts/RocketStorage.sol\n// And this medium article: https://medium.com/rocket-pool/upgradable-solidity-contract-design-54789205276d\n\ncontract Storage {\n\n    // Mappings for Primitive Data Types\n    //\n    mapping(bytes32 => uint256)    private uIntStorage;\n    mapping(bytes32 => string)     private stringStorage;\n    mapping(bytes32 => address)    private addressStorage;\n    mapping(bytes32 => bytes)      private bytesStorage;\n    mapping(bytes32 => bytes32)      private bytes32Storage;\n    mapping(bytes32 => bool)       private boolStorage;\n    mapping(bytes32 => int256)     private intStorage;\n\n    modifier onlyRegisteredContract() {\n\n        if (boolStorage[keccak256(\"contract.storage.initialised\")] == true) {\n            // Make sure the access is permitted to only contracts in our Dapp\n            require(addressStorage[keccak256(\"contract.address\", msg.sender)] != 0x0);\n        }\n        _;\n    }\n\n    function Storage() public {\n\n        // Set the main owner upon deployment\n        boolStorage[keccak256(\"access.role\", \"owner\", msg.sender)] = true;\n        bytes32Storage[keccak256(1)] = keccak256(\"access.role\", \"owner\", msg.sender);\n    }\n\n    // Methods to Set Data\n    function setAddress(bytes32 _key, address _value) external onlyRegisteredContract {\n        addressStorage[_key] = _value;\n    }\n\n    function setUint(bytes32 _key, uint _value) external onlyRegisteredContract {\n        uIntStorage[_key] = _value;\n    }\n\n    function setString(bytes32 _key, string _value) external onlyRegisteredContract {\n        stringStorage[_key] = _value;\n    }\n\n    function setBytes(bytes32 _key, bytes _value) external onlyRegisteredContract {\n        bytesStorage[_key] = _value;\n    }\n\n    function setBool(bytes32 _key, bool _value) external onlyRegisteredContract {\n        boolStorage[_key] = _value;\n    }\n\n    function setInt(bytes32 _key, int _value) external onlyRegisteredContract {\n        intStorage[_key] = _value;\n    }\n\n    // Methods to Delete Data\n    //\n    function deleteAddress(bytes32 _key) external onlyRegisteredContract {\n        delete addressStorage[_key];\n    }\n\n    function deleteUint(bytes32 _key) external onlyRegisteredContract {\n        delete uIntStorage[_key];\n    }\n\n    function deleteString(bytes32 _key) external onlyRegisteredContract {\n        delete stringStorage[_key];\n    }\n\n    function deleteBytes(bytes32 _key) external onlyRegisteredContract {\n        delete bytesStorage[_key];\n    }\n\n    function deleteBool(bytes32 _key) external onlyRegisteredContract {\n        delete boolStorage[_key];\n    }\n\n    function deleteInt(bytes32 _key) external onlyRegisteredContract {\n        delete intStorage[_key];\n    }\n\n    // Methods to Get Data\n    //\n    function getAddress(bytes32 _key) external view returns (address) {\n        return addressStorage[_key];\n    }\n\n    function getUint(bytes32 _key) external view returns (uint) {\n        return uIntStorage[_key];\n    }\n\n    function getString(bytes32 _key) external view returns (string) {\n        return stringStorage[_key];\n    }\n\n    function getBytes(bytes32 _key) external view returns (bytes) {\n        return bytesStorage[_key];\n    }\n\n    function getBytes32(bytes32 _key) external view returns (bytes32) {\n        return bytes32Storage[_key];\n    }\n\n    function getBool(bytes32 _key) external view returns (bool) {\n        return boolStorage[_key];\n    }\n\n    function getInt(bytes32 _key) external view returns (int) {\n        return intStorage[_key];\n    }\n\n}\n",
  "sourcePath": "/Users/ryan/Projects/TokenInc/tokeninc-smart-contracts/contracts/Storage.sol",
  "compiler": {
    "name": "solc",
    "version": "0.4.21+commit.dfe3193c.Emscripten.clang"
  },
  "schemaVersion": "2.0.0",
  "updatedAt": "2018-04-15T19:32:37.241Z"
}