{
  "contractName": "Storage",
  "abi": [
    {
      "inputs": [],
      "payable": false,
      "stateMutability": "nonpayable",
      "type": "constructor"
    },
    {
      "constant": false,
      "inputs": [
        {
          "name": "_key",
          "type": "bytes32"
        },
        {
          "name": "_value",
          "type": "address"
        }
      ],
      "name": "setAddress",
      "outputs": [
        {
          "name": "",
          "type": "bool"
        }
      ],
      "payable": false,
      "stateMutability": "nonpayable",
      "type": "function"
    },
    {
      "constant": false,
      "inputs": [
        {
          "name": "_key",
          "type": "bytes32"
        },
        {
          "name": "_value",
          "type": "uint256"
        }
      ],
      "name": "setUint",
      "outputs": [
        {
          "name": "",
          "type": "bool"
        }
      ],
      "payable": false,
      "stateMutability": "nonpayable",
      "type": "function"
    },
    {
      "constant": false,
      "inputs": [
        {
          "name": "_key",
          "type": "bytes32"
        },
        {
          "name": "_value",
          "type": "string"
        }
      ],
      "name": "setString",
      "outputs": [
        {
          "name": "",
          "type": "bool"
        }
      ],
      "payable": false,
      "stateMutability": "nonpayable",
      "type": "function"
    },
    {
      "constant": false,
      "inputs": [
        {
          "name": "_key",
          "type": "bytes32"
        },
        {
          "name": "_value",
          "type": "bytes"
        }
      ],
      "name": "setBytes",
      "outputs": [
        {
          "name": "",
          "type": "bool"
        }
      ],
      "payable": false,
      "stateMutability": "nonpayable",
      "type": "function"
    },
    {
      "constant": false,
      "inputs": [
        {
          "name": "_key",
          "type": "bytes32"
        },
        {
          "name": "_value",
          "type": "bool"
        }
      ],
      "name": "setBool",
      "outputs": [
        {
          "name": "",
          "type": "bool"
        }
      ],
      "payable": false,
      "stateMutability": "nonpayable",
      "type": "function"
    },
    {
      "constant": false,
      "inputs": [
        {
          "name": "_key",
          "type": "bytes32"
        },
        {
          "name": "_value",
          "type": "int256"
        }
      ],
      "name": "setInt",
      "outputs": [
        {
          "name": "",
          "type": "bool"
        }
      ],
      "payable": false,
      "stateMutability": "nonpayable",
      "type": "function"
    },
    {
      "constant": false,
      "inputs": [
        {
          "name": "_key",
          "type": "bytes32"
        }
      ],
      "name": "deleteAddress",
      "outputs": [
        {
          "name": "",
          "type": "bool"
        }
      ],
      "payable": false,
      "stateMutability": "nonpayable",
      "type": "function"
    },
    {
      "constant": false,
      "inputs": [
        {
          "name": "_key",
          "type": "bytes32"
        }
      ],
      "name": "deleteUint",
      "outputs": [
        {
          "name": "",
          "type": "bool"
        }
      ],
      "payable": false,
      "stateMutability": "nonpayable",
      "type": "function"
    },
    {
      "constant": false,
      "inputs": [
        {
          "name": "_key",
          "type": "bytes32"
        }
      ],
      "name": "deleteString",
      "outputs": [
        {
          "name": "",
          "type": "bool"
        }
      ],
      "payable": false,
      "stateMutability": "nonpayable",
      "type": "function"
    },
    {
      "constant": false,
      "inputs": [
        {
          "name": "_key",
          "type": "bytes32"
        }
      ],
      "name": "deleteBytes",
      "outputs": [
        {
          "name": "",
          "type": "bool"
        }
      ],
      "payable": false,
      "stateMutability": "nonpayable",
      "type": "function"
    },
    {
      "constant": false,
      "inputs": [
        {
          "name": "_key",
          "type": "bytes32"
        }
      ],
      "name": "deleteBool",
      "outputs": [
        {
          "name": "",
          "type": "bool"
        }
      ],
      "payable": false,
      "stateMutability": "nonpayable",
      "type": "function"
    },
    {
      "constant": false,
      "inputs": [
        {
          "name": "_key",
          "type": "bytes32"
        }
      ],
      "name": "deleteInt",
      "outputs": [
        {
          "name": "",
          "type": "bool"
        }
      ],
      "payable": false,
      "stateMutability": "nonpayable",
      "type": "function"
    },
    {
      "constant": true,
      "inputs": [
        {
          "name": "_key",
          "type": "bytes32"
        }
      ],
      "name": "getAddress",
      "outputs": [
        {
          "name": "",
          "type": "address"
        }
      ],
      "payable": false,
      "stateMutability": "view",
      "type": "function"
    },
    {
      "constant": true,
      "inputs": [
        {
          "name": "_key",
          "type": "bytes32"
        }
      ],
      "name": "getUint",
      "outputs": [
        {
          "name": "",
          "type": "uint256"
        }
      ],
      "payable": false,
      "stateMutability": "view",
      "type": "function"
    },
    {
      "constant": true,
      "inputs": [
        {
          "name": "_key",
          "type": "bytes32"
        }
      ],
      "name": "getString",
      "outputs": [
        {
          "name": "",
          "type": "string"
        }
      ],
      "payable": false,
      "stateMutability": "view",
      "type": "function"
    },
    {
      "constant": true,
      "inputs": [
        {
          "name": "_key",
          "type": "bytes32"
        }
      ],
      "name": "getBytes",
      "outputs": [
        {
          "name": "",
          "type": "bytes"
        }
      ],
      "payable": false,
      "stateMutability": "view",
      "type": "function"
    },
    {
      "constant": true,
      "inputs": [
        {
          "name": "_key",
          "type": "bytes32"
        }
      ],
      "name": "getBytes32",
      "outputs": [
        {
          "name": "",
          "type": "bytes32"
        }
      ],
      "payable": false,
      "stateMutability": "view",
      "type": "function"
    },
    {
      "constant": true,
      "inputs": [
        {
          "name": "_key",
          "type": "bytes32"
        }
      ],
      "name": "getBool",
      "outputs": [
        {
          "name": "",
          "type": "bool"
        }
      ],
      "payable": false,
      "stateMutability": "view",
      "type": "function"
    },
    {
      "constant": true,
      "inputs": [
        {
          "name": "_key",
          "type": "bytes32"
        }
      ],
      "name": "getInt",
      "outputs": [
        {
          "name": "",
          "type": "int256"
        }
      ],
      "payable": false,
      "stateMutability": "view",
      "type": "function"
    }
  ],
  "bytecode": "0x6060604052341561000f57600080fd5b6001600560003360405180807f73746f726167652e616c6c6f7765640000000000000000000000000000000000815250600f018273ffffffffffffffffffffffffffffffffffffffff1673ffffffffffffffffffffffffffffffffffffffff166c0100000000000000000000000002815260140191505060405180910390206000191660001916815260200190815260200160002060006101000a81548160ff021916908315150217905550611629806100ca6000396000f300606060405260043610610107576000357c0100000000000000000000000000000000000000000000000000000000900463ffffffff1680630e14a3761461010c57806321f8a7211461014b5780632c62ff2d146101b25780632e28d084146101f15780633e49bed014610244578063616b59f61461028c5780636e899550146102cb5780637ae1cfca1461031e5780638c1600951461035d578063986e791a1461039c578063a6ed563e1461043c578063abfdcced1461047f578063bd02d0f5146104c9578063c031a18014610504578063ca446dd9146105a4578063dc97d96214610602578063e2a4853a1461063d578063e2b202bf14610685578063f6bb3cc4146106c4575b600080fd5b341561011757600080fd5b610131600480803560001916906020019091905050610703565b604051808215151515815260200191505060405180910390f35b341561015657600080fd5b6101706004808035600019169060200190919050506107f8565b604051808273ffffffffffffffffffffffffffffffffffffffff1673ffffffffffffffffffffffffffffffffffffffff16815260200191505060405180910390f35b34156101bd57600080fd5b6101d760048080356000191690602001909190505061083d565b604051808215151515815260200191505060405180910390f35b34156101fc57600080fd5b61022a600480803560001916906020019091908035906020019082018035906020019190919290505061091f565b604051808215151515815260200191505060405180910390f35b341561024f57600080fd5b610272600480803560001916906020019091908035906020019091905050610a03565b604051808215151515815260200191505060405180910390f35b341561029757600080fd5b6102b1600480803560001916906020019091905050610adb565b604051808215151515815260200191505060405180910390f35b34156102d657600080fd5b6103046004808035600019169060200190919080359060200190820180359060200191909192905050610bb9565b604051808215151515815260200191505060405180910390f35b341561032957600080fd5b610343600480803560001916906020019091905050610c9d565b604051808215151515815260200191505060405180910390f35b341561036857600080fd5b610382600480803560001916906020019091905050610ccf565b604051808215151515815260200191505060405180910390f35b34156103a757600080fd5b6103c1600480803560001916906020019091905050610da5565b6040518080602001828103825283818151815260200191508051906020019080838360005b838110156104015780820151818401526020810190506103e6565b50505050905090810190601f16801561042e5780820380516001836020036101000a031916815260200191505b509250505060405180910390f35b341561044757600080fd5b610461600480803560001916906020019091905050610e68565b60405180826000191660001916815260200191505060405180910390f35b341561048a57600080fd5b6104af6004808035600019169060200190919080351515906020019091905050610e8d565b604051808215151515815260200191505060405180910390f35b34156104d457600080fd5b6104ee600480803560001916906020019091905050610f78565b6040518082815260200191505060405180910390f35b341561050f57600080fd5b610529600480803560001916906020019091905050610f9c565b6040518080602001828103825283818151815260200191508051906020019080838360005b8381101561056957808201518184015260208101905061054e565b50505050905090810190601f1680156105965780820380516001836020036101000a031916815260200191505b509250505060405180910390f35b34156105af57600080fd5b6105e860048080356000191690602001909190803573ffffffffffffffffffffffffffffffffffffffff1690602001909190505061105f565b604051808215151515815260200191505060405180910390f35b341561060d57600080fd5b610627600480803560001916906020019091905050611171565b6040518082815260200191505060405180910390f35b341561064857600080fd5b61066b600480803560001916906020019091908035906020019091905050611196565b604051808215151515815260200191505060405180910390f35b341561069057600080fd5b6106aa60048080356000191690602001909190505061126d565b604051808215151515815260200191505060405180910390f35b34156106cf57600080fd5b6106e9600480803560001916906020019091905050611342565b604051808215151515815260200191505060405180910390f35b6000600560003360405180807f73746f726167652e616c6c6f7765640000000000000000000000000000000000815250600f018273ffffffffffffffffffffffffffffffffffffffff1673ffffffffffffffffffffffffffffffffffffffff166c0100000000000000000000000002815260140191505060405180910390206000191660001916815260200190815260200160002060009054906101000a900460ff1615156107b157600080fd5b60026000836000191660001916815260200190815260200160002060006101000a81549073ffffffffffffffffffffffffffffffffffffffff021916905560019050919050565b600060026000836000191660001916815260200190815260200160002060009054906101000a900473ffffffffffffffffffffffffffffffffffffffff169050919050565b6000600560003360405180807f73746f726167652e616c6c6f7765640000000000000000000000000000000000815250600f018273ffffffffffffffffffffffffffffffffffffffff1673ffffffffffffffffffffffffffffffffffffffff166c0100000000000000000000000002815260140191505060405180910390206000191660001916815260200190815260200160002060009054906101000a900460ff1615156108eb57600080fd5b60056000836000191660001916815260200190815260200160002060006101000a81549060ff021916905560019050919050565b6000600560003360405180807f73746f726167652e616c6c6f7765640000000000000000000000000000000000815250600f018273ffffffffffffffffffffffffffffffffffffffff1673ffffffffffffffffffffffffffffffffffffffff166c0100000000000000000000000002815260140191505060405180910390206000191660001916815260200190815260200160002060009054906101000a900460ff1615156109cd57600080fd5b828260036000876000191660001916815260200190815260200160002091906109f7929190611420565b50600190509392505050565b6000600560003360405180807f73746f726167652e616c6c6f7765640000000000000000000000000000000000815250600f018273ffffffffffffffffffffffffffffffffffffffff1673ffffffffffffffffffffffffffffffffffffffff166c0100000000000000000000000002815260140191505060405180910390206000191660001916815260200190815260200160002060009054906101000a900460ff161515610ab157600080fd5b81600660008560001916600019168152602001908152602001600020819055506001905092915050565b6000600560003360405180807f73746f726167652e616c6c6f7765640000000000000000000000000000000000815250600f018273ffffffffffffffffffffffffffffffffffffffff1673ffffffffffffffffffffffffffffffffffffffff166c0100000000000000000000000002815260140191505060405180910390206000191660001916815260200190815260200160002060009054906101000a900460ff161515610b8957600080fd5b6003600083600019166000191681526020019081526020016000206000610bb091906114a0565b60019050919050565b6000600560003360405180807f73746f726167652e616c6c6f7765640000000000000000000000000000000000815250600f018273ffffffffffffffffffffffffffffffffffffffff1673ffffffffffffffffffffffffffffffffffffffff166c0100000000000000000000000002815260140191505060405180910390206000191660001916815260200190815260200160002060009054906101000a900460ff161515610c6757600080fd5b82826001600087600019166000191681526020019081526020016000209190610c919291906114e8565b50600190509392505050565b600060056000836000191660001916815260200190815260200160002060009054906101000a900460ff169050919050565b6000600560003360405180807f73746f726167652e616c6c6f7765640000000000000000000000000000000000815250600f018273ffffffffffffffffffffffffffffffffffffffff1673ffffffffffffffffffffffffffffffffffffffff166c0100000000000000000000000002815260140191505060405180910390206000191660001916815260200190815260200160002060009054906101000a900460ff161515610d7d57600080fd5b6006600083600019166000191681526020019081526020016000206000905560019050919050565b610dad611568565b6001600083600019166000191681526020019081526020016000208054600181600116156101000203166002900480601f016020809104026020016040519081016040528092919081815260200182805460018160011615610100020316600290048015610e5c5780601f10610e3157610100808354040283529160200191610e5c565b820191906000526020600020905b815481529060010190602001808311610e3f57829003601f168201915b50505050509050919050565b6000600460008360001916600019168152602001908152602001600020549050919050565b6000600560003360405180807f73746f726167652e616c6c6f7765640000000000000000000000000000000000815250600f018273ffffffffffffffffffffffffffffffffffffffff1673ffffffffffffffffffffffffffffffffffffffff166c0100000000000000000000000002815260140191505060405180910390206000191660001916815260200190815260200160002060009054906101000a900460ff161515610f3b57600080fd5b8160056000856000191660001916815260200190815260200160002060006101000a81548160ff0219169083151502179055506001905092915050565b60008060008360001916600019168152602001908152602001600020549050919050565b610fa461157c565b6003600083600019166000191681526020019081526020016000208054600181600116156101000203166002900480601f0160208091040260200160405190810160405280929190818152602001828054600181600116156101000203166002900480156110535780601f1061102857610100808354040283529160200191611053565b820191906000526020600020905b81548152906001019060200180831161103657829003601f168201915b50505050509050919050565b6000600560003360405180807f73746f726167652e616c6c6f7765640000000000000000000000000000000000815250600f018273ffffffffffffffffffffffffffffffffffffffff1673ffffffffffffffffffffffffffffffffffffffff166c0100000000000000000000000002815260140191505060405180910390206000191660001916815260200190815260200160002060009054906101000a900460ff16151561110d57600080fd5b8160026000856000191660001916815260200190815260200160002060006101000a81548173ffffffffffffffffffffffffffffffffffffffff021916908373ffffffffffffffffffffffffffffffffffffffff1602179055506001905092915050565b6000600660008360001916600019168152602001908152602001600020549050919050565b6000600560003360405180807f73746f726167652e616c6c6f7765640000000000000000000000000000000000815250600f018273ffffffffffffffffffffffffffffffffffffffff1673ffffffffffffffffffffffffffffffffffffffff166c0100000000000000000000000002815260140191505060405180910390206000191660001916815260200190815260200160002060009054906101000a900460ff16151561124457600080fd5b816000808560001916600019168152602001908152602001600020819055506001905092915050565b6000600560003360405180807f73746f726167652e616c6c6f7765640000000000000000000000000000000000815250600f018273ffffffffffffffffffffffffffffffffffffffff1673ffffffffffffffffffffffffffffffffffffffff166c0100000000000000000000000002815260140191505060405180910390206000191660001916815260200190815260200160002060009054906101000a900460ff16151561131b57600080fd5b60008083600019166000191681526020019081526020016000206000905560019050919050565b6000600560003360405180807f73746f726167652e616c6c6f7765640000000000000000000000000000000000815250600f018273ffffffffffffffffffffffffffffffffffffffff1673ffffffffffffffffffffffffffffffffffffffff166c0100000000000000000000000002815260140191505060405180910390206000191660001916815260200190815260200160002060009054906101000a900460ff1615156113f057600080fd5b60016000836000191660001916815260200190815260200160002060006114179190611590565b60019050919050565b828054600181600116156101000203166002900490600052602060002090601f016020900481019282601f1061146157803560ff191683800117855561148f565b8280016001018555821561148f579182015b8281111561148e578235825591602001919060010190611473565b5b50905061149c91906115d8565b5090565b50805460018160011615610100020316600290046000825580601f106114c657506114e5565b601f0160209004906000526020600020908101906114e491906115d8565b5b50565b828054600181600116156101000203166002900490600052602060002090601f016020900481019282601f1061152957803560ff1916838001178555611557565b82800160010185558215611557579182015b8281111561155657823582559160200191906001019061153b565b5b50905061156491906115d8565b5090565b602060405190810160405280600081525090565b602060405190810160405280600081525090565b50805460018160011615610100020316600290046000825580601f106115b657506115d5565b601f0160209004906000526020600020908101906115d491906115d8565b5b50565b6115fa91905b808211156115f65760008160009055506001016115de565b5090565b905600a165627a7a72305820e99cc672a56dafff003bea404a3fc85019714c318110a6e0b2c73e8ea21eaa3b0029",
  "source": "pragma solidity 0.4.21;\n\n// NOTE: This contract is inspired by the RocketPool Storage Contract,\n// found here: https://github.com/rocket-pool/rocketpool/blob/master/contracts/RocketStorage.sol\n// And this medium article: https://medium.com/rocket-pool/upgradable-solidity-contract-design-54789205276d\n\ncontract Storage {\n\n    // Mappings for Primitive Data Types\n    //\n    mapping(bytes32 => uint256)    private uIntStorage;\n    mapping(bytes32 => string)     private stringStorage;\n    mapping(bytes32 => address)    private addressStorage;\n    mapping(bytes32 => bytes)      private bytesStorage;\n    mapping(bytes32 => bytes32)    private bytes32Storage;\n    mapping(bytes32 => bool)       private boolStorage;\n    mapping(bytes32 => int256)     private intStorage;\n\n    function Storage() public {\n\n        // set owner as a registered contract\n        boolStorage[keccak256(\"storage.allowed\", msg.sender)] = true;\n    }\n\n    // Set Methods\n    function setAddress(bytes32 _key, address _value)\n        external\n        isAllowed\n        returns (bool)\n    {\n        addressStorage[_key] = _value;\n        return true;\n    }\n\n    function setUint(bytes32 _key, uint _value)\n        external\n        isAllowed\n        returns (bool)\n    {\n        uIntStorage[_key] = _value;\n        return true;\n    }\n\n    function setString(bytes32 _key, string _value)\n        external\n        isAllowed\n        returns (bool)\n    {\n        stringStorage[_key] = _value;\n        return true;\n    }\n\n    function setBytes(bytes32 _key, bytes _value)\n        external\n        isAllowed\n        returns (bool)\n    {\n        bytesStorage[_key] = _value;\n        return true;\n    }\n\n    function setBool(bytes32 _key, bool _value)\n        external\n        isAllowed\n        returns (bool)\n    {\n        boolStorage[_key] = _value;\n        return true;\n    }\n\n    function setInt(bytes32 _key, int _value)\n        external\n        isAllowed\n        returns (bool)\n    {\n        intStorage[_key] = _value;\n        return true;\n    }\n\n    // Delete Methods\n    function deleteAddress(bytes32 _key)\n        external\n        isAllowed\n        returns (bool)\n    {\n        delete addressStorage[_key];\n        return true;\n    }\n\n    function deleteUint(bytes32 _key)\n        external\n        isAllowed\n        returns (bool)\n    {\n        delete uIntStorage[_key];\n        return true;\n    }\n\n    function deleteString(bytes32 _key)\n        external\n        isAllowed\n        returns (bool)\n    {\n        delete stringStorage[_key];\n        return true;\n    }\n\n    function deleteBytes(bytes32 _key)\n        external\n        isAllowed\n        returns (bool)\n    {\n        delete bytesStorage[_key];\n        return true;\n    }\n\n    function deleteBool(bytes32 _key)\n        external\n        isAllowed\n        returns (bool)\n    {\n        delete boolStorage[_key];\n        return true;\n    }\n\n    function deleteInt(bytes32 _key)\n        external\n        isAllowed\n        returns (bool)\n    {\n        delete intStorage[_key];\n        return true;\n    }\n\n    // Get Methods\n    function getAddress(bytes32 _key)\n        external\n        view\n        returns (address)\n    {\n        return addressStorage[_key];\n    }\n\n    function getUint(bytes32 _key)\n        external\n        view\n        returns (uint)\n    {\n        return uIntStorage[_key];\n    }\n\n    function getString(bytes32 _key)\n        external\n        view\n        returns (string)\n    {\n        return stringStorage[_key];\n    }\n\n    function getBytes(bytes32 _key)\n        external\n        view\n        returns (bytes)\n    {\n        return bytesStorage[_key];\n    }\n\n    function getBytes32(bytes32 _key)\n        external\n        view\n        returns (bytes32)\n    {\n        return bytes32Storage[_key];\n    }\n\n    function getBool(bytes32 _key)\n        external\n        view\n        returns (bool)\n    {\n        return boolStorage[_key];\n    }\n\n    function getInt(bytes32 _key)\n        external\n        view\n        returns (int)\n    {\n        return intStorage[_key];\n    }\n\n    // Modifiers\n    modifier isAllowed() {\n        require(boolStorage[keccak256(\"storage.allowed\", msg.sender)]);\n        _;\n    }\n\n}\n",
  "sourcePath": "/Users/ryan/Projects/TokenInc/tokeninc-smart-contracts/contracts/Storage.sol",
  "compiler": {
    "name": "solc",
    "version": "0.4.21+commit.dfe3193c.Emscripten.clang"
  },
  "schemaVersion": "2.0.0",
  "updatedAt": "2018-04-15T23:57:37.459Z"
}